:020000040000FA
:100000000C9463000C94C9070C94A2070C948B0009
:100010000C948B000C948B000C948B000C948B0034
:100020000C948B000C948B000C948B000C948B0024
:100030000C948B000C948B000C948B000C948B0014
:100040000C9458070C948B000C9426070C94000712
:100050000C948B000C948B000C948B000C948B00F4
:100060000C94F0070C948B00000000002400270083
:100070002A0000000000250028002B0000000000DE
:1000800023002600290004040404040404040202DA
:100090000202020203030303030301020408102007
:1000A0004080010204081020010204081020000012
:1000B0000008000201000003040700000000000027
:1000C00000000F090D0E11241FBECFEFD8E0DEBFD8
:1000D000CDBF26E0A8E2B4E001C01D92AA3FB2075E
:1000E000E1F714E0A0E0B1E0ECE9F3E202C0059032
:1000F0000D92A832B107D9F710E0C2E6D0E004C0F3
:100100002197FE010E94C90FC136D107C9F70E948D
:100110003E0A0C94C1110C9400008091F10490915E
:10012000F204A091F304B091F4040196A11DB11D55
:100130008093F1049093F204A093F304B093F40439
:10014000089508950895AF92BF92CF92DF92EF92F3
:10015000FF920F931F93CF93DF936C017B018B0171
:10016000040F151FEB015E01AE18BF08C017D107C1
:1001700059F06991D601ED91FC910190F081E02D4B
:10018000C6010995892B79F7C501DF91CF911F91A0
:100190000F91FF90EF90DF90CF90BF90AF900895B8
:1001A000FC01538D448D252F30E0842F90E0821B7D
:1001B000930B541710F0CF96089501970895FC0102
:1001C000918D828D981761F0A28DAE0FBF2FB11D5A
:1001D0005D968C91928D9F5F9F73928F90E00895B2
:1001E0008FEF9FEF0895FC01918D828D981731F06C
:1001F000828DE80FF11D858D90E008958FEF9FEFC0
:100200000895FC01918D228D892F90E0805C9F4F95
:10021000821B91098F739927089583E095E00E94CE
:10022000010121E0892B09F420E0822F089580E06C
:1002300090E0892B29F00E940D0181110C9400009F
:100240000895FC01A48DA80FB92FB11DA35ABF4F6B
:100250002C91848D90E001968F739927848FA689C5
:10026000B7892C93A089B1898C91837080648C9319
:10027000938D848D981306C00288F389E02D8081C8
:100280008F7D80830895EF92FF920F931F93CF93FA
:10029000DF93EC0181E0888F9B8D8C8D98131AC0C1
:1002A000E889F989808185FF15C09FB7F894EE89A8
:1002B000FF896083E889F989808183708064808305
:1002C0009FBF81E090E0DF91CF911F910F91FF9050
:1002D000EF900895F62E0B8D10E00F5F1F4F0F73F8
:1002E0001127E02E8C8D8E110CC00FB607FCFACFB3
:1002F000E889F989808185FFF5CFCE010E9421012F
:10030000F1CFEB8DEC0FFD2FF11DE35AFF4FF08283
:100310009FB7F8940B8FEA89FB8980818062CFCFE9
:10032000CF93DF93EC01888D8823B9F0AA89BB892C
:10033000E889F9898C9185FD03C0808186FD0DC017
:100340000FB607FCF7CF8C9185FFF2CF808185FF38
:10035000EDCFCE010E942101E9CFDF91CF91089529
:10036000833081F028F4813099F08230A9F008952B
:100370008730A9F08830C9F08430B1F480918000D2
:100380008F7D03C0809180008F77809380000895D7
:1003900084B58F7784BD089584B58F7DFBCF809120
:1003A000B0008F778093B00008958091B0008F7D6A
:1003B000F9CFCF93DF93282F30E0F901E255FF4FBB
:1003C0008491F901E656FF4FD491F901EA57FF4FA6
:1003D000C491CC23A1F081110E94B001EC2FF0E078
:1003E000EE0FFF1FE458FF4FA591B491EC91ED2360
:1003F00081E090E009F480E0DF91CF91089580E002
:1004000090E0FACF1F93CF93DF93282F30E0F901CC
:10041000E255FF4F8491F901E656FF4FD491F9015F
:10042000EA57FF4FC491CC23A9F0162F81110E94E7
:10043000B001EC2FF0E0EE0FFF1FEE58FF4FA5913B
:10044000B4918FB7F894EC91111108C0D095DE23C8
:10045000DC938FBFDF91CF911F910895DE2BF8CFF2
:10046000CF93DF9390E0FC01E656FF4F24918A572B
:100470009F4FFC0184918823C9F090E0880F991F59
:10048000FC01E859FF4FA591B491FC01EE58FF4FD4
:10049000C591D49161110DC09FB7F8948C912095AE
:1004A00082238C938881282328839FBFDF91CF915B
:1004B0000895623051F49FB7F8943C91822F809553
:1004C00083238C93E8812E2BEFCF8FB7F894EC9198
:1004D0002E2B2C938FBFEACF8E50806480937C00AC
:1004E00080917A00806480937A0080917A0086FD02
:1004F000FCCF809178009091790008953FB7F894EF
:100500008091DB049091DC04A091DD04B091DE04C5
:1005100026B5A89B05C02F3F19F00196A11DB11D5E
:100520003FBFBA2FA92F982F8827BC01CD01620F9A
:10053000711D811D911D42E0660F771F881F991F55
:100540004A95D1F708958F929F92AF92BF92CF9222
:10055000DF92EF92FF924B015C010E947E026B01E1
:100560007C010E947E026C197D098E099F09683EFC
:10057000734081059105A8F321E0821A9108A10832
:10058000B10888EEC80E83E0D81EE11CF11C81146E
:100590009104A104B10429F7FF90EF90DF90CF9070
:1005A000BF90AF909F908F90089508950F931F93E1
:1005B000CF93DF93EC0188810E94D9012FB7F89483
:1005C0004091E7045091E8046091E9047091EA04D5
:1005D0002FBF288939892817390731F04A8B5B8B5F
:1005E0006C8B7D8B998B888B0A891B892C893D8923
:1005F000401B510B620B730B0A811B812C813D81C7
:10060000401751076207730730F02E853F853D87FD
:100610002C879F878E872C853D858E859F85281703
:10062000390781F04A855B854230510581F48E811E
:100630009F81A885B9850196A11DB11D8E839F83D9
:10064000A887B987DF91CF911F910F910895411528
:10065000510531F421303105A9F7892B41F3F2CF4F
:100660004130510579F7232B69F7019759F7DFCF0F
:10067000FC0184859585019729F481E026853785DD
:10068000232B09F080E00895CF93DF93EC01862FB0
:10069000688379831A821B821C821D821E821F82BC
:1006A000188619861B861A8662E00E9430028881AD
:1006B0000E94D9019D878C879F878E87998B888B15
:1006C0001A8A1B8A1C8A1D8ADF91CF91089508958A
:1006D00020916904260F3327331F21323105ECF4B2
:1006E0002091B204FC0190E080E0243069F082E0C7
:1006F0000895A09169042191AC01475B5B4FA40F61
:10070000B52FB11D2C930196861798F3809169043B
:10071000680F6093690480E0089581E00895109265
:10072000B20481E08093B10410928C0461E082E114
:100730000E94020261E083E10E940202E9EBF0E024
:1007400080818E7F808380818D7F808388E4809309
:10075000B80085E48093BC000895CF93DF9391E0C7
:10076000909348048823B9F0C091B800D091BA00A2
:100770008091BC008A7B8093BC0060E082E10E9493
:10078000020260E083E10E9402020E948F03D09384
:10079000BA00C093B800DF91CF9108950895E09119
:1007A000E6048091E504E81730F4F0E0E85DFB4FE3
:1007B000808190E008958FEF9FEF08959091E60477
:1007C0008091E5042FEF3FEF981748F4E92FF0E010
:1007D000E85DFB4F208130E09F5F9093E604C90104
:1007E00008958091E5049091E604891B990B089582
:1007F000CF92DF92EF92FF920F931F93CF93DF93ED
:100800007C01CB018A012091B804222389F0EB01FD
:100810006B01C40ED51ECC15DD0569F06991D701B9
:10082000ED91FC910190F081E02DC7010995F3CF86
:10083000642F0E946803C801DF91CF911F910F912F
:10084000FF90EF90DF90CF900895CF93DF931F92AA
:10085000CDB7DEB769832091B8042223F9F0209147
:10086000E304203258F021E030E0FC01338322839E
:1008700090E080E00F90DF91CF9108958091E404A3
:10088000E82FF0E0E754FB4F998190838F5F8093CE
:10089000E4048093E30481E090E0ECCF61E0CE01DA
:1008A00001960E946803F7CFCF92DF92EF92FF92FA
:1008B0000F931F93CF93DF93FC01C48121E020931A
:1008C000B804C093D9041092E4041092E304838521
:1008D000682B80EA95E00E942504D091E304D13290
:1008E00008F092C00E947E026B017C018091B204EC
:1008F000811165C082E08093B20481E08093B104ED
:100900008FEF8093B0041092AF04D093AE04A9EBA4
:10091000B4E0EEE8F4E080E0D81385C010928D04D6
:1009200080918D04CC0FC82BC0938D0480918C04D2
:10093000813009F07CC010928C040E947E026B0111
:100940007C0180918D048093BB008091B4049091D0
:10095000B504A091B604B091B704892B8A2B8B2BD8
:1009600099F00E947E020091B4041091B504209188
:10097000B6043091B7046C197D098E099F090617DA
:10098000170728073907E0F18091BC0083FDD9CF14
:1009900085EC8093BC000E947E026B017C018091FB
:1009A000B204823009F445C08091B0048F3F61F1F8
:1009B0008091B004803241F18091B00425C08091D3
:1009C000B4049091B504A091B604B091B704892BFA
:1009D0008A2B8B2B09F48ACF0E947E020091B404EB
:1009E0001091B5042091B6043091B7046C197D09BB
:1009F0008E099F09061717072807390708F076CFD1
:100A00008091B3040E94AD031092E4041092E304B9
:100A10001092B804DF91CF911F910F91FF90EF904A
:100A2000DF90CF9008959D9191938F5F75CF85EE64
:100A3000B0CF8091B4049091B504A091B604B09168
:100A4000B704892B8A2B8B2B09F4A9CF0E947E0235
:100A50000091B4041091B5042091B6043091B7040C
:100A60006C197D098E099F09061717072807390792
:100A700008F095CFC5CF90E080E008950F931F93C5
:100A8000CF938C01C62F0E9454046C2F6460C80160
:100A90000E9454046C2F6B7FC8010E94540483ECA5
:100AA00090E00197F1F7CF911F910F9108950F9367
:100AB0001F93CF93DF938C01D62FC42F607F642BBD
:100AC0000E943E0580E1D89FB00111246C2BC80123
:100AD000DF91CF911F910F910C943E05682F6068B4
:100AE00040E080EF95E00C94570541E00E945705E7
:100AF00081E090E008950F931F93CF93DF93EC0173
:100B000088819981009759F02A813B812617370700
:100B100030F081E0DF91CF911F910F9108958B010B
:100B20006F5F7F4F0E94F410009759F0998388837C
:100B30001B830A832C813D81232B59F7FC011082F2
:100B4000E8CF80E0E7CFCF93DF93EC0188819981F4
:100B5000009711F00E946B10198218821D821C826E
:100B60001B821A82DF91CF910895EF92FF920F932B
:100B70001F93CF93DF93EC018617970781F0FB015A
:100B8000008111810115110539F0E480F580B7016C
:100B90000E947B0581110BC0CE010E94A305CE01EE
:100BA000DF91CF911F910F91FF90EF900895FD82FB
:100BB000EC82B801888199810E94BA11F0CFFC01C2
:100BC00080819181009711F00C946B100895EF9241
:100BD000FF920F931F93CF93DF93EC017B01198258
:100BE00018821B821A821D821C82FB010190002048
:100BF000E9F731978F01061B170BB8010E947B059F
:100C0000811109C0CE01DF91CF911F910F91FF900B
:100C1000EF900C94A3051D830C83B7018881998103
:100C2000DF91CF911F910F91FF90EF900C94BA112B
:100C3000FB0101900020E9F73197AF01461B570BEC
:100C4000DC01ED91FC910280F381E02D09948F92FB
:100C50009F92AF92BF92CF92DF92EF92FF920F934B
:100C60001F93CF93DF93CDB7DEB7A1970FB6F8945C
:100C7000DEBF0FBECDBF6C01990FEE08FF08F7FE77
:100C80004BC06DE283E095E00E9443018C01222776
:100C90003327A9012C193D094E095F0919A2CE017C
:100CA00081967C019AE0892E912CA12CB12CCA014D
:100CB000B901A50194010E94A70F605DF70162933D
:100CC0007F01211531054105510589F790E080E04C
:100CD000309729F0BF0183E095E00E941806080FC5
:100CE000191F6AE772E083E095E00E941806800F02
:100CF000911FA1960FB6F894DEBF0FBECDBFDF9156
:100D0000CF911F910F91FF90EF90DF90CF90BF9008
:100D1000AF909F908F900895A701960119A28E0120
:100D20000F5D1F4F8AE0C82ED12CE12CF12CCA0197
:100D3000B901A70196010E94A70F605DF8016293B7
:100D40008F01211531054105510589F7309739F09B
:100D5000BF0183E095E00E9418068C01C2CF10E02D
:100D600000E0BFCF0F931F93CF93DF93EC010E945E
:100D700018068C016AE772E0CE010E941806800F07
:100D8000911FDF91CF911F910F9108950C94180638
:100D900085ED8093BC008091B4049091B504A0913E
:100DA000B604B091B7040796A11DB11D23E0B69516
:100DB000A795979587952A95D1F72091BC0024FD9A
:100DC00003C01092B20408954091B4045091B50448
:100DD0006091B6047091B704452B462B472B69F3FD
:100DE0000097A105B10541F025E32A95F1F7000030
:100DF0000197A109B109E1CF8091B3040C94AD032F
:100E00001F920F920FB60F9211242F933F934F937F
:100E10005F936F937F938F939F93AF93BF93EF9362
:100E2000FF9383E095E00E942101FF91EF91BF9134
:100E3000AF919F918F917F916F915F914F913F9172
:100E40002F910F900FBE0F901F9018951F920F9229
:100E50000FB60F9211242F938F939F93EF93FF93CD
:100E6000E0911305F09114058081E0911905F0914E
:100E70001A0582FD1BC0908180911C058F5F8F73C6
:100E800020911D05821741F0E0911C05F0E0ED5F17
:100E9000FA4F958F80931C05FF91EF919F918F9151
:100EA0002F910F900FBE0F901F9018958081F4CF57
:100EB0001F920F920FB60F9211242F933F938F938F
:100EC0009F93AF93BF938091E7049091E804A09122
:100ED000E904B091EA043091DA0423E0230F2D37BE
:100EE00058F50196A11DB11D2093DA048093E70403
:100EF0009093E804A093E904B093EA048091DB04A2
:100F00009091DC04A091DD04B091DE040196A11D56
:100F1000B11D8093DB049093DC04A093DD04B093B7
:100F2000DE04BF91AF919F918F913F912F910F90D0
:100F30000FBE0F901F90189526E8230F0296A11D53
:100F4000B11DD2CF1F920F920FB60F9211242F9383
:100F50003F934F935F936F937F938F939F93AF9341
:100F6000BF93EF93FF93E0910201F0910301099584
:100F7000FF91EF91BF91AF919F918F917F916F9171
:100F80005F914F913F912F910F900FBE0F901F9047
:100F900018951F920F920FB60F9211242F933F9323
:100FA0004F935F936F937F938F939F93AF93BF9371
:100FB000EF93FF93E0910001F09101010995FF91FA
:100FC000EF91BF91AF919F918F917F916F915F91C1
:100FD0004F913F912F910F900FBE0F901F9018953A
:100FE0001F920F920FB60F9211242F933F934F939E
:100FF0005F936F937F938F939F93AF93BF93EF9381
:10100000FF938091B900887F803609F44AC0F0F5DB
:10101000883209F4A7C018F5803109F49BC0B8F4F0
:10102000882309F4F9C0883009F494C0FF91EF9146
:10103000BF91AF919F918F917F916F915F914F91F0
:101040003F912F910F900FBE0F901F9018958831F0
:1010500009F488C0803251F78093B00414C0803402
:1010600009F49DC040F48033B9F38833F9F68093D6
:10107000B00485ECB0C0803509F485C0883509F42A
:1010800096C0883499F60E94C806D0CF883909F4F2
:101090008CC038F5883729F050F4883611F0803745
:1010A00029F683E08093B20410928B0457C08838ED
:1010B00009F47BC0803919F0803809F0B7CF8091EE
:1010C0008B04803208F071C0E0918B0481E08E0FB8
:1010D00080938B048091BB00F0E0E559FB4F808347
:1010E0003DC0803B39F0E0F4803A09F479C0883A99
:1010F00009F09CCF84E08093B20410926A041092AD
:101100006904E091E104F091E20409958091690499
:1011100081110FC081E0809369041092490409C0D5
:10112000803C09F4A6CF883C09F4A3CF883B09F0A2
:101130007DCFE0916A0481E08E0F80936A04F0E035
:10114000E75BFB4F80818093BB0090916A048091A4
:10115000690429C080918D048093BB0085EC809345
:10116000BC0064CF9091AF048091AE04981758F5FD
:10117000E091AF0481E08E0F8093AF04F0E0E2577E
:10118000FB4F8081E9CFE091AF0481E08E0F809327
:10119000AF048091BB00F0E0E257FB4F8083909159
:1011A000AF048091AE049817C8F285E8D8CFE091DB
:1011B000AF0481E08E0F8093AF048091BB00F0E01C
:1011C000E257FB4F80838091B10481115CCF81E0B5
:1011D00080938C0484EA8093BC001092B20426CFE2
:1011E00085EC8093BC001092B20480918B04803215
:1011F00030F4E0918B04F0E0E559FB4F10826091F0
:101200008B0470E0E091DF04F091E0048BE694E061
:10121000099510928B040ACF1092B00434CF10922B
:1012200006051092050588EE93E0A0E0B0E08093FB
:10123000070590930805A0930905B0930A052EE4CD
:1012400032E0309304052093030525EC30E0309321
:10125000100520930F0524EC30E030931205209305
:10126000110520EC30E0309314052093130521EC98
:1012700030E0309316052093150522EC30E03093D2
:1012800018052093170526EC30E030931A052093BB
:10129000190510921C0510921D0510921E05109242
:1012A0001F051092A3051092A2058093A4059093A8
:1012B000A505A093A605B093A70580E692E09093BC
:1012C000A1058093A005ACEAB5E0FD018285807C94
:1012D00082871682178210861186128213821482E8
:1012E0001582118210823B9685E0EE3EF80771F779
:1012F0001092EE0590E080E03BE0389FF001399FCE
:10130000F00D1124EA54FA4F2081422F4F7089F0DA
:10131000207E208311961C921E9212961D921D9281
:101320001D921C92159716961D921D921D921C924D
:10133000199701961B9686309105F9F663E070E0E7
:1013400080EE96E00E94440364E070E08AEC96E050
:101350000E94440365E070E084EB96E00E94440341
:1013600066E070E08EE996E00E94440367E070E07A
:1013700088E896E00E94440368E070E082E796E027
:101380000E94440369E070E08CE596E00E9444030B
:101390006CE772E086E596E00E94E7056DE772E093
:1013A00084E496E00E94E70565E373E08AE496E052
:1013B0000E94E70562E573E080E596E00E94E7059C
:1013C00063E872E08AE196E00E94E7056AE872E06D
:1013D00080E296E00E94E70561E972E086E296E02D
:1013E0000E94E70569E972E08CE296E00E94E70559
:1013F00063EA72E082E396E00E94E7056CEA72E03D
:1014000088E396E00E94E70563EB72E08EE396E0E6
:101410000E94E7056CEB72E082E096E00E94E7052F
:1014200061EC72E088E096E00E94E70567EC72E00C
:101430008EE096E00E94E7056DEC72E084E196E0B4
:101440000E94E7056CE772E08CEF95E00E94E705EB
:101450001092F3051092F20582E792E09093F10565
:101460008093F00587E28093F40580E18093F9058D
:1014700082E08093FA051092FB050895789484B574
:10148000826084BD84B5816084BD85B5826085BD80
:1014900085B5816085BD80916E00816080936E000E
:1014A0001092810080918100826080938100809100
:1014B00081008160809381008091800081608093B1
:1014C00080008091B10084608093B1008091B00071
:1014D00081608093B00080917A00846080937A006C
:1014E00080917A00826080937A0080917A00816096
:1014F00080937A0080917A00806880937A001092BD
:10150000C100E0911305F091140582E08083E09121
:101510000F05F09110051082E0911105F091120570
:101520008FEC808310921B05E0911705F091180550
:1015300086E08083E0911505F09116058081806139
:101540008083E0911505F091160580818860808385
:10155000E0911505F0911605808180688083E09107
:101560001505F091160580818F7D808382E390E0E0
:10157000A0E0B0E08093E2069093E306A093E40637
:10158000B093E5068093CC069093CD06A093CE064B
:10159000B093CF068093B6069093B706A093B80693
:1015A000B093B9068093A0069093A106A093A206DB
:1015B000B093A30680938A0690938B06A0938C0623
:1015C000B0938D068093740690937506A09376066B
:1015D000B093770680935E0690935F06A0936006B3
:1015E000B093610660E082E00E94300260E08EE02D
:1015F0000E94300260E08FE00E94300261E08CE0E7
:101600000E94300261E08CE00E9402028DE890E0CE
:101610009093010180930001809169008360809321
:101620006900E89A1092E6041092E5041092E4042E
:101630001092E3040E948F0381EA90E09093E20409
:101640008093E10482EA90E09093E0048093DF04C9
:101650001092F5058091FA05823018F098E0909389
:10166000F5058093F80562E370E080E090E00E9469
:10167000A3026091FB0580EF95E00E94540468EEA0
:1016800073E080E090E00E94A30260E380EF95E0C9
:101690000E943E05CBE4D6E4CE010197F1F760E36A
:1016A00080EF95E00E943E052197F1F760E380EF1F
:1016B00095E00E943E0583E592E00197F1F760E234
:1016C00080EF95E00E943E056091F505606240E084
:1016D00080EF95E00E94570584E08093F60540E096
:1016E0006CE080EF95E00E94570540E061E080EFFC
:1016F00095E00E945705CBE3DFE1CE010197F1F7BA
:1017000082E08093F70540E066E080EF95E00E947C
:10171000570540E062E080EF95E00E945705CE015A
:101720000197F1F788E08093FB0560E080EF95E09A
:101730000E94540480E00E946E0563ED72E080EF29
:1017400095E00E94C60681E00E946E0564EE72E09C
:1017500080EF95E00E94C60660ED77E080E090E0C3
:101760000E94A30240E061E080EF95E00E945705EF
:101770002197F1F765EF72E083E095E00E94B206F1
:1017800070ED872E77E0972EA12CB12CD4E1E0E00C
:101790006E2EE0E07E2EC1E0F3E0CF2ED12CA2E051
:1017A000EA2EF12C01E010E080EE96E00E94D602D5
:1017B0008AEC96E00E94D60284EB96E00E94D60264
:1017C0008EE996E00E94D60288E896E00E94D60252
:1017D00082E796E00E94D6028CE596E00E94D6024F
:1017E0008EE00E946C028FE00E946C022FB7F8948A
:1017F0006091E7047091E8048091E9049091EA0413
:101800002FBFA50194010E94A70F309302052093DA
:1018100001058091FF0490910005281B390B2230AF
:101820003105A4F061E073E083E095E00E94C60614
:1018300080910105909102050E9427068091010583
:1018400090910205909300058093FF048091FE041F
:10185000811182C00E946E0565EF72E080EF95E015
:101860000E94B20680EE96E00E943803882309F1B8
:10187000C093FE0464E476E086E596E00E94B50538
:1018800066E073E083E095E00E94B20681E00E948A
:101890006E0564E173E080EF95E00E94B20610925D
:1018A000FD041092FC0461E273E083E095E00E9485
:1018B000B2068AEC96E00E943803882309F1C093AF
:1018C000FE046AE476E086E596E00E94B5056DE2E6
:1018D00073E083E095E00E94B20681E00E946E050D
:1018E0006CE373E080EF95E00E94B2061093FD0474
:1018F0000093FC0461E273E083E095E00E94B2068D
:1019000084EB96E00E943803882309F1C093FE041B
:1019100060E576E086E596E00E94B5056AE473E04E
:1019200083E095E00E94B20681E00E946E0568E5C2
:1019300073E080EF95E00E94B206F092FD04E09221
:10194000FC0461E273E083E095E00E94B2068091BE
:10195000FE04882309F49FC08091FB0481119BC081
:101960000E946E0561E273E080EF95E00E94C6067A
:101970008EE996E00E9438038823D9F0C093FB04D7
:1019800062E076E08CEF95E00E94B50581E00E9470
:101990006E0565E673E083E095E00E94C6066DE79C
:1019A00073E080EF95E00E94C6061092FA04109250
:1019B000F90488E896E00E9438038823D9F0C093A0
:1019C000FB0468E076E08CEF95E00E94B50581E0CD
:1019D0000E946E056DE873E083E095E00E94C60604
:1019E00064EA73E080EF95E00E94C6061093FA0463
:1019F0000093F90482E796E00E9438038823D9F027
:101A0000C093FB046EE076E08CEF95E00E94B50594
:101A100081E00E946E0563EB73E083E095E00E9435
:101A2000C60660ED73E080EF95E00E94C606F09276
:101A3000FA04E092F9048CE596E00E9438038823CA
:101A4000D9F0C093FB0464E176E08CEF95E00E944E
:101A5000B50581E00E946E0560EE73E083E095E0DD
:101A60000E94C60669EA73E080EF95E00E94C60610
:101A7000D092FA04C092F90480E00E946E05409171
:101A80005A0650915B06609156067091570680EF9A
:101A900095E00E94A3004091F9045091FA048091CE
:101AA000F7049091F8042091010530910205D49F2C
:101AB000F001D59FF00D1124E80FF91FEE0FFF1F65
:101AC000E655FE4F608171816217730789F40196B4
:101AD0009093F8048093F7041092F6041092F504A2
:101AE0001092F1041092F2041092F3041092F40494
:101AF000D49FC001D59F900D1124E091F704F0917F
:101B0000F804E80FF91FEE0FFF1FE65FFE4F80811C
:101B100091819093F0048093EF048091FB048823DB
:101B2000B1F18091FE04882391F18091ED049091B0
:101B3000EE04A901481B590B4330510544F1309381
:101B4000EE042093ED0463EF73E083E095E00E94E0
:101B5000C6068091F7049091F8040E9427066DEF65
:101B600073E083E095E00E94C6068091EF049091B7
:101B7000F0040E9427066CE074E083E095E00E9488
:101B8000C6068091EB049091EC040E9427066091B8
:101B9000F1047091F2048091F3049091F4040E9496
:101BA000410E20E030E040E250E40E947C0E0E94B2
:101BB000710F9B017093EC046093EB048091EF0430
:101BC0009091F00428173907E4F48091F50490917E
:101BD000F604892B51F460E08CE00E94020263E17C
:101BE00074E083E095E00E94B2066114710409F488
:101BF000DBCD0E940D01882309F4D6CD0E940000A0
:101C0000D3CD821793078CF761E08CE00E9402022B
:101C10001093F6040093F504E8CFCF93DF938CEF95
:101C200095E00E94DF0584E196E00E94DF058EE0EA
:101C300096E00E94DF0588E096E00E94DF0582E0E2
:101C400096E00E94DF05C4E4D6E02697CE010E940C
:101C5000DF0586E0CA31D807C1F780E596E00E942B
:101C6000DF058AE496E00E94DF0584E496E00E94A6
:101C7000DF0586E596E0DF91CF910C94DF05E894CF
:101C800009C097FB3EF490958095709561957F4FC4
:101C90008F4F9F4F9923A9F0F92F96E9BB27939572
:101CA000F695879577956795B795F111F8CFFAF482
:101CB000BB0F11F460FF1BC06F5F7F4F8F4F9F4FB3
:101CC00016C0882311F096E911C0772321F09EE811
:101CD000872F762F05C0662371F096E8862F70E077
:101CE00060E02AF09A95660F771F881FDAF7880F51
:101CF0009695879597F908950E948F0E0C94000F82
:101D00000E94F20E38F00E94F90E20F0952311F097
:101D10000C94E90E0C94EF0E11240C94340F0E94D5
:101D2000110F70F3959FC1F3950F50E0551F629FFF
:101D3000F001729FBB27F00DB11D639FAA27F00D24
:101D4000B11DAA1F649F6627B00DA11D661F829F4B
:101D50002227B00DA11D621F739FB00DA11D621F30
:101D6000839FA00D611D221F749F3327A00D611D4D
:101D7000231F849F600D211D822F762F6A2F11242F
:101D80009F5750409AF0F1F088234AF0EE0FFF1F62
:101D9000BB1F661F771F881F91505040A9F79E3FB9
:101DA000510580F00C94E90E0C94340F5F3FE4F37E
:101DB000983ED4F3869577956795B795F795E7950F
:101DC0009F5FC1F7FE2B880F911D9695879597F918
:101DD000089597F99F6780E870E060E008959FEFAD
:101DE00080EC089500240A941616170618060906B2
:101DF000089500240A941216130614060506089581
:101E0000092E0394000C11F4882352F0BB0F40F408
:101E1000BF2B11F460FF04C06F5F7F4F8F4F9F4F48
:101E2000089557FD9058440F551F59F05F3F71F0CA
:101E30004795880F97FB991F61F09F3F79F0879531
:101E40000895121613061406551FF2CF4695F1DFBA
:101E500008C0161617061806991FF1CF869571054A
:101E6000610508940895E894BB2766277727CB017E
:101E700097F908952F923F924F925F926F927F92BF
:101E80008F929F92AF92BF92CF92DF92EF92FF928A
:101E90000F931F93CF93DF93CDB7DEB7CA1BDB0B36
:101EA0000FB6F894DEBF0FBECDBF09942A883988DB
:101EB00048885F846E847D848C849B84AA84B984E2
:101EC000C884DF80EE80FD800C811B81AA81B981EE
:101ED000CE0FD11D0FB6F894DEBF0FBECDBFED0102
:101EE00008950E94780F6894B1110C94340F0895EE
:101EF0000E94190F88F09F5798F0B92F9927B75172
:101F0000B0F0E1F0660F771F881F991F1AF0BA959D
:101F1000C9F714C0B13091F00E94330FB1E00895B9
:101F20000C94330F672F782F8827B85F39F0B93FAB
:101F3000CCF3869577956795B395D9F73EF4909550
:101F40008095709561957F4F8F4F9F4F0895A1E2C7
:101F50001A2EAA1BBB1BFD010DC0AA1FBB1FEE1F23
:101F6000FF1FA217B307E407F50720F0A21BB30B6E
:101F7000E40BF50B661F771F881F991F1A9469F7EA
:101F800060957095809590959B01AC01BD01CF0146
:101F90000895EE0FFF1F0590F491E02D09940F9323
:101FA0001F93CF93DF938230910510F482E090E08D
:101FB000E091F806F091F90630E020E0B0E0A0E012
:101FC000309799F42115310509F44AC0281B390BC3
:101FD00024303105D8F58A819B816115710589F11D
:101FE000FB0193838283FE0111C0408151810281F4
:101FF000138148175907E0F04817590799F41097CB
:1020000061F012960C93129713961C933296CF019F
:10201000DF91CF911F910F9108950093F8061093CF
:10202000F906F4CF2115310551F04217530738F066
:10203000A901DB019A01BD01DF01F801C1CFEF0168
:10204000F9CF9093F9068093F806CDCFFE01E20F09
:10205000F31F819391932250310939832883D7CF7D
:102060002091F6063091F706232B41F420910601CA
:10207000309107013093F7062093F6062091040172
:10208000309105012115310541F42DB73EB740913E
:10209000080150910901241B350BE091F606F091DF
:1020A000F706E217F307A0F42E1B3F0B281739079A
:1020B00078F0AC014E5F5F4F2417350748F04E0FA4
:1020C0005F1F5093F7064093F606819391939FCF3D
:1020D000F0E0E0E09CCFCF93DF930097E9F0FC01C4
:1020E000329713821282A091F806B091F906ED01A1
:1020F00030E020E01097A1F420813181820F931FFE
:102100002091F6063091F7062817390709F061C0CB
:10211000F093F706E093F606DF91CF910895EA0178
:10212000CE17DF07E8F54A815B819E014115510515
:10213000B1F7E901FB83EA8349915991C40FD51F97
:10214000EC17FD0761F4808191810296840F951F41
:10215000E90199838883828193819B838A83F0E05C
:10216000E0E012968D919C9113970097B9F52D910F
:102170003C911197CD010296820F931F2091F60694
:102180003091F7062817390739F6309751F5109234
:10219000F9061092F806B093F706A093F606BCCFA6
:1021A000D383C28340815181840F951FC817D907FB
:1021B00061F44E5F5F4F88819981480F591F5183A9
:1021C00040838A819B81938382832115310509F0A5
:1021D000B0CFF093F906E093F8069ECFFD01DC0145
:1021E000C0CF13821282D7CFB0E0A0E0EAEFF0E1D7
:1021F0000C943C0F8C01009751F4CB010E94CF0F3F
:102200008C01C801CDB7DEB7E0E10C94580FFC019A
:10221000E60FF71F9C0122503109E217F30708F47B
:102220009DC0D901CD91DC911197C617D70798F0C1
:10223000C530D10530F3CE0104978617970708F310
:10224000C61BD70B2297C193D1936D937C93CF017B
:102250000E946B10D6CF5B01AC1ABD0A4C018C0EEC
:102260009D1EA091F806B091F906512C412CF12C3D
:10227000E12C109731F58091F6069091F7068815BC
:10228000990509F05CC04616570608F058C08091C1
:10229000040190910501009741F48DB79EB74091DC
:1022A000080150910901841B950BE817F90708F004
:1022B00055C0F093F706E093F606F9017183608349
:1022C000A0CF8D919C91119712966C9012971396B6
:1022D0007C901397A815B90559F56C0142E0C40E1E
:1022E000D11CCA14DB0420F1AC014A195B09DA01E4
:1022F0001296159780F06282738251834083D901D0
:102300006D937C93E114F10471F0D7011396FC9363
:10231000EE93129776CF22968C0F9D1FF901918331
:102320008083F301EFCFF093F906E093F80669CFCD
:102330004816590608F42C017D01D3019ACFCB0130
:102340000E94CF0F7C01009749F0AE01B8010E94B6
:10235000B111C8010E946B10870153CF10E000E05B
:1023600050CFFB01DC0102C001900D924150504062
:10237000D8F70895FB01DC0101900D920020E1F7F0
:10238000089510E0C2E6D0E004C0FE010E94C90F2B
:102390002196C336D107C9F7F894FFCFD502D502ED
:1023A0000000FA0680002A003C006F008B009E00AF
:1023B000AD00AF00AF00AF00AF00000000000000B4
:1023C00000000000000000000000000000004F00BE
:1023D000BA00EC0007010C0107010000000000003A
:1023E00000000000000000000000000000000000ED
:1023F0000000000000000D0015003E006B0085008D
:102400009700A800B700C300D000DD000000000066
:1024100000000000000000000000000000001300A9
:102420003B0075009400B300BE00E0000000000017
:10243000000000000000000000000000000000009C
:102440000000000000000F0025003300490061007B
:102450008100B900C700D400E500000000000000C2
:1024600000000000000000000000000000001B0051
:102470006F009600BB00C700DC00000000000000F9
:10248000000000000000000000000000000000004C
:102490000000000000000D0015003E006B008500EC
:1024A0009700A800B700C300D000DD0000000000C6
:1024B0000000000000000000000000000000130009
:1024C0003B0075009400B300BE00E0000000000077
:1024D00000000000000000000000000000000000FC
:1024E000000000000000000000004301A300D00035
:1024F00090010101DF00F300000000002504F80353
:102500003B05CE03F103DE03CF0300000000750599
:10251000A3003B0567030D0A0077686561740053EB
:10252000756E646179004D6F6E64617900547565F4
:1025300073646179005765646E65736461790054F2
:1025400068757273646179004672696461790053D9
:102550006174757264617900534C53310053544C6B
:1025600053320053434C5333004C5330303400202B
:102570002020202057454C434F4D20202020200074
:10258000534D4152542049525249474154494F4EAC
:102590000053454C4543542043524F500044415949
:1025A0003A0063726F7020697320574845415400A8
:1025B00043524F50203A2057484541540053454C10
:1025C00045435420534F494C0063726F7020697328
:1025D00020636F74746F6E0043524F50203A204353
:1025E0004F54544F4E0063726F702069732073759F
:1025F0006761720043524F50203A20535547415271
:1026000000534F494C2069732073616E6479206CCC
:102610006F616D20736F696C0053414E44595F4C7C
:102620004F414D5F534F494C00534F494C20697304
:102630002053494C54206C6F616D20736F696C009E
:1026400053494C545F4C4F414D5F534F494C0053DD
:102650004F494C2069732073616E647920636C610B
:1026600079206C6F616D20736F696C0053414E442B
:10267000595F434C41595F534F494C00534F494CAC
:1026800020697320206C6F616D20736F696C00642A
:10269000617920696E6465780077617465725F6C3A
:1026A0006576656C5F746800564F4C554D4500501B
:1026B000554D50206973206F6E202E2E2E2E2E2EFB
:0426C0002E2E2E008C
:107800000C94343C0C94513C0C94513C0C94513CE1
:107810000C94513C0C94513C0C94513C0C94513CB4
:107820000C94513C0C94513C0C94513C0C94513CA4
:107830000C94513C0C94513C0C94513C0C94513C94
:107840000C94513C0C94513C0C94513C0C94513C84
:107850000C94513C0C94513C0C94513C0C94513C74
:107860000C94513C0C94513C11241FBECFEFD8E036
:10787000DEBFCDBF11E0A0E0B1E0ECE9FFE702C060
:1078800005900D92A230B107D9F712E0A2E0B1E065
:1078900001C01D92AD30B107E1F70E942D3D0C945F
:1078A000CC3F0C94003C982F959595959595959582
:1078B000905D8F708A307CF0282F295A8091C0000B
:1078C00085FFFCCF9093C6008091C00085FFFCCF60
:1078D0002093C6000895282F205DF0CF982F809127
:1078E000C00085FFFCCF9093C6000895EF92FF92F1
:1078F0000F931F93EE24FF2487018091C00087FD22
:1079000017C00894E11CF11C011D111D81E4E8164B
:1079100082E4F8068FE0080780E0180770F3E09132
:107920000401F091050109958091C00087FFE9CF1E
:107930008091C6001F910F91FF90EF9008950E94D3
:10794000763C982F8091C00085FFFCCF9093C600B5
:1079500091362CF490330CF09053892F089597555D
:10796000892F08951F930E949F3C182F0E949F3CCF
:107970001295107F810F1F9108951F93182F882350
:1079800021F00E94763C1150E1F71F9108951F935A
:10799000182F0E94763C803249F0809103018F5F5E
:1079A000809303018530C1F01F9108958091C0003C
:1079B00085FFFCCF84E18093C6008091C00085FFE5
:1079C000FCCF1093C6008091C00085FFFCCF80E102
:1079D0008093C6001F910895E0910401F091050184
:1079E00009951F9108950E94763C803241F0809164
:1079F00003018F5F80930301853081F008958091AA
:107A0000C00085FFFCCF84E18093C6008091C00058
:107A100085FFFCCF80E18093C6000895E0910401CA
:107A2000F09105010995089540E951E08823A1F0FE
:107A30002D9A28EE33E0FA013197F1F721503040CA
:107A4000D1F72D9828EE33E0FA013197F1F7215064
:107A50003040D1F7815061F708953F924F925F9285
:107A60006F927F928F929F92AF92BF92CF92DF924E
:107A7000EF92FF920F931F93CF93DF93000080E16B
:107A80008093C4001092C50088E18093C10086E015
:107A90008093C2005098589A259A81E00E94143D24
:107AA00024E1F22E9EE1E92E85E9D82E0FE0C02ECA
:107AB00010E1B12EAA24A394B1E49B2EA6E58A2E50
:107AC000F2E57F2EE0E26E2E79E4572E63E5462E36
:107AD00050E5352E0E94763C8033B1F18133B9F107
:107AE000803409F46FC0813409F476C0823409F41B
:107AF00085C0853409F488C0803531F1823521F1A3
:107B0000813511F1853509F485C0863509F48DC0BC
:107B1000843609F496C0843709F403C1853709F423
:107B200072C1863709F466C0809103018F5F80932C
:107B30000301853079F6E0910401F0910501099582
:107B40000E94763C803351F60E94F33CC3CF0E94E2
:107B5000763C803249F78091C00085FFFCCFF092DF
:107B6000C6008091C00085FFFCCF9092C600809136
:107B7000C00085FFFCCF8092C6008091C00085FFC9
:107B8000FCCF7092C6008091C00085FFFCCF609250
:107B9000C6008091C00085FFFCCF5092C600809146
:107BA000C00085FFFCCF4092C6008091C00085FFD9
:107BB000FCCF3092C6008091C00085FFFCCFB09210
:107BC000C60088CF0E94763C863808F4BDCF0E945C
:107BD000763C0E94F33C7ECF0E94763C803809F4CC
:107BE0009CC0813809F40BC1823809F43CC1883942
:107BF00009F48FC080E00E94C73C6CCF84E10E94F2
:107C0000BD3C0E94F33C66CF85E00E94BD3C0E94D3
:107C1000F33C60CF0E94763C809306010E94763C44
:107C2000809307010E94F33C55CF0E94763C80333D
:107C300009F41DC183E00E94BD3C80E00E94C73C66
:107C400049CF0E94763C809309020E94763C809343
:107C5000080280910C028E7F80930C020E94763C79
:107C6000853409F415C18091080290910902892B8D
:107C700089F000E010E00E94763CF801E85FFE4FDA
:107C800080830F5F1F4F80910802909109020817AF
:107C9000190788F30E94763C803209F045CF809125
:107CA0000C0280FF01C16091060170910701660F0F
:107CB000771F7093070160930601A0910802B091AD
:107CC00009021097C9F0E8E0F1E09B01AD014E0F09
:107CD0005F1FF999FECF32BD21BD819180BDFA9A17
:107CE000F99A2F5F3F4FE417F50799F76A0F7B1F4B
:107CF00070930701609306018091C00085FFFCCF5F
:107D0000F092C6008091C00085FFFCCFB092C60003
:107D1000E1CE83E00E94C73CDDCE82E00E94C73CFA
:107D2000D9CE0E94763C809309020E94763C8093D3
:107D300008028091060190910701880F991F909386
:107D40000701809306010E94763C853409F4A6C0A1
:107D500080910C028E7F80930C020E94763C8032D0
:107D600009F0B8CE8091C00085FFFCCFF092C6002C
:107D7000609108027091090261157105B9F140E046
:107D800050E080910C02A82FA170B82FB27011C0E2
:107D9000BB2309F45CC0E0910601F0910701319624
:107DA000F0930701E09306014F5F5F4F46175707B7
:107DB000E8F4AA2369F3F999FECF209106013091E6
:107DC000070132BD21BDF89A90B58091C00085FFB2
:107DD000FCCF9093C6002F5F3F4F30930701209355
:107DE00006014F5F5F4F4617570718F38091C00099
:107DF00085FDE5CE8091C00085FFF8CFE0CE81E023
:107E00000E94C73C67CE0E94763C803209F08CCE3F
:107E10008091C00085FFFCCFF092C6008091C00029
:107E200085FFFCCFE092C6008091C00085FFFCCFAB
:107E3000D092C6008091C00085FFFCCFC092C600E2
:107E40008091C00085FFFCCFB092C60043CEE09188
:107E50000601F091070194918091C00085FFFCCF4D
:107E60009093C6009CCF80E10E94C73C33CE0E9415
:107E7000763C0E94763C182F0E94763C112309F430
:107E800083C0113009F484C08FE00E94C73C22CE29
:107E900080910C02816080930C02E5CE80910C02EF
:107EA000816080930C0259CF809107018823880F4D
:107EB000880B8A2180930B02809106019091070123
:107EC000880F991F90930701809306018091080203
:107ED00080FF09C080910802909109020196909359
:107EE000090280930802F894F999FECF1127E091D6
:107EF0000601F0910701C8E0D1E08091080290915D
:107F00000902103091F40091570001700130D9F34B
:107F100003E000935700E89500915700017001308D
:107F2000D9F301E100935700E89509901990009169
:107F3000570001700130D9F301E000935700E89534
:107F40001395103498F011270091570001700130FB
:107F5000D9F305E000935700E895009157000170B0
:107F60000130D9F301E100935700E895329602976A
:107F700009F0C7CF103011F00296E5CF112480919F
:107F8000C00085FFB9CEBCCE8EE10E94C73CA2CD19
:0E7F900085E90E94C73C9ECDF894FFCF80008B
:00000001FF
