:020000040000FA
:100000000C9463000C94F3070C94CC070C948B00B5
:100010000C948B000C948B000C948B000C948B0034
:100020000C948B000C948B000C948B000C948B0024
:100030000C948B000C948B000C948B000C948B0014
:100040000C9482070C948B000C9450070C942A0794
:100050000C948B000C948B000C948B000C948B00F4
:100060000C941A080C948B00000000002400270058
:100070002A0000000000250028002B0000000000DE
:1000800023002600290004040404040404040202DA
:100090000202020203030303030301020408102007
:1000A0004080010204081020010204081020000012
:1000B0000008000201000003040700000000000027
:1000C00000003909580E11241FBECFEFD8E0DEBF63
:1000D000CDBF28E0A2ECB5E001C01D92A439B20763
:1000E000E1F715E0A0E0B1E0E2E3F4E202C0059040
:1000F0000D92A23CB107D9F710E0C2E6D0E004C0EF
:100100002197FE010E941410C136D107C9F70E9441
:10011000680A0C940C120C94000080918B0690914C
:100120008C06A0918D06B0918E060196A11DB11D81
:1001300080938B0690938C06A0938D06B0938E06C9
:10014000089508950895AF92BF92CF92DF92EF92F3
:10015000FF920F931F93CF93DF936C017B018B0171
:10016000040F151FEB015E01AE18BF08C017D107C1
:1001700059F06991D601ED91FC910190F081E02D4B
:10018000C6010995892B79F7C501DF91CF911F91A0
:100190000F91FF90EF90DF90CF90BF90AF900895B8
:1001A000FC01538D448D252F30E0842F90E0821B7D
:1001B000930B541710F0CF96089501970895FC0102
:1001C000918D828D981761F0A28DAE0FBF2FB11D5A
:1001D0005D968C91928D9F5F9F73928F90E00895B2
:1001E0008FEF9FEF0895FC01918D828D981731F06C
:1001F000828DE80FF11D858D90E008958FEF9FEFC0
:100200000895FC01918D228D892F90E0805C9F4F95
:10021000821B91098F73992708958DE996E00E94BA
:10022000010121E0892B09F420E0822F089580E06C
:1002300090E0892B29F00E940D0181110C9400009F
:100240000895FC01A48DA80FB92FB11DA35ABF4F6B
:100250002C91848D90E001968F739927848FA689C5
:10026000B7892C93A089B1898C91837080648C9319
:10027000938D848D981306C00288F389E02D8081C8
:100280008F7D80830895EF92FF920F931F93CF93FA
:10029000DF93EC0181E0888F9B8D8C8D98131AC0C1
:1002A000E889F989808185FF15C09FB7F894EE89A8
:1002B000FF896083E889F989808183708064808305
:1002C0009FBF81E090E0DF91CF911F910F91FF9050
:1002D000EF900895F62E0B8D10E00F5F1F4F0F73F8
:1002E0001127E02E8C8D8E110CC00FB607FCFACFB3
:1002F000E889F989808185FFF5CFCE010E9421012F
:10030000F1CFEB8DEC0FFD2FF11DE35AFF4FF08283
:100310009FB7F8940B8FEA89FB8980818062CFCFE9
:10032000CF93DF93EC01888D8823B9F0AA89BB892C
:10033000E889F9898C9185FD03C0808186FD0DC017
:100340000FB607FCF7CF8C9185FFF2CF808185FF38
:10035000EDCFCE010E942101E9CFDF91CF91089529
:10036000833081F028F4813099F08230A9F008952B
:100370008730A9F08830C9F08430B1F480918000D2
:100380008F7D03C0809180008F77809380000895D7
:1003900084B58F7784BD089584B58F7DFBCF809120
:1003A000B0008F778093B00008958091B0008F7D6A
:1003B000F9CFCF93DF93282F30E0F901E255FF4FBB
:1003C0008491F901E656FF4FD491F901EA57FF4FA6
:1003D000C491CC23A1F081110E94B001EC2FF0E078
:1003E000EE0FFF1FE458FF4FA591B491EC91ED2360
:1003F00081E090E009F480E0DF91CF91089580E002
:1004000090E0FACF1F93CF93DF93282F30E0F901CC
:10041000E255FF4F8491F901E656FF4FD491F9015F
:10042000EA57FF4FC491CC23A9F0162F81110E94E7
:10043000B001EC2FF0E0EE0FFF1FEE58FF4FA5913B
:10044000B4918FB7F894EC91111108C0D095DE23C8
:10045000DC938FBFDF91CF911F910895DE2BF8CFF2
:10046000CF93DF9390E0FC01E656FF4F24918A572B
:100470009F4FFC0184918823C9F090E0880F991F59
:10048000FC01E859FF4FA591B491FC01EE58FF4FD4
:10049000C591D49161110DC09FB7F8948C912095AE
:1004A00082238C938881282328839FBFDF91CF915B
:1004B0000895623051F49FB7F8943C91822F809553
:1004C00083238C93E8812E2BEFCF8FB7F894EC9198
:1004D0002E2B2C938FBFEACF8E50806480937C00AC
:1004E00080917A00806480937A0080917A0086FD02
:1004F000FCCF809178009091790008953FB7F894EF
:100500008091750690917606A0917706B091780655
:1005100026B5A89B05C02F3F19F00196A11DB11D5E
:100520003FBFBA2FA92F982F8827BC01CD01620F9A
:10053000711D811D911D42E0660F771F881F991F55
:100540004A95D1F708958F929F92AF92BF92CF9222
:10055000DF92EF92FF924B015C010E947E026B01E1
:100560007C010E947E026C197D098E099F09683EFC
:10057000734081059105A8F321E0821A9108A10832
:10058000B10888EEC80E83E0D81EE11CF11C81146E
:100590009104A104B10429F7FF90EF90DF90CF9070
:1005A000BF90AF909F908F90089508950F931F93E1
:1005B000CF93DF93EC0188810E94D9012FB7F89483
:1005C0004091810650918206609183067091840665
:1005D0002FBF288939892817390731F04A8B5B8B5F
:1005E0006C8B7D8B998B888B0A891B892C893D8923
:1005F000401B510B620B730B0A811B812C813D81C7
:10060000401751076207730730F02E853F853D87FD
:100610002C879F878E872C853D858E859F85281703
:10062000390781F04A855B854230510581F48E811E
:100630009F81A885B9850196A11DB11D8E839F83D9
:10064000A887B987DF91CF911F910F910895411528
:10065000510531F421303105A9F7892B41F3F2CF4F
:100660004130510579F7232B69F7019759F7DFCF0F
:10067000FC0184859585019729F481E026853785DD
:10068000232B09F080E00895CF93DF93EC01862FB0
:10069000688379831A821B821C821D821E821F82BC
:1006A000188619861B861A8662E00E9430028881AD
:1006B0000E94D9019D878C879F878E87998B888B15
:1006C0001A8A1B8A1C8A1D8ADF91CF91089508958A
:1006D00020910306260F3327331F21323105ECF416
:1006E00020914C06FC0190E080E0243069F082E02B
:1006F0000895A09103062191AC014D515A4FA40FCA
:10070000B52FB11D2C930196861798F3809103069F
:10071000680F6093030680E0089581E008951092C9
:100720004C0681E080934B061092260661E082E140
:100730000E94020261E083E10E940202E9EBF0E024
:1007400080818E7F808380818D7F808388E4809309
:10075000B80085E48093BC000895CF93DF9391E0C7
:100760009093E2058823B9F0C091B800D091BA0007
:100770008091BC008A7B8093BC0060E082E10E9493
:10078000020260E083E10E9402020E948F03D09384
:10079000BA00C093B800DF91CF9108950895E09119
:1007A000800680917F06E81730F4F0E0EE53FA4FB0
:1007B000808190E008958FEF9FEF089590918006DB
:1007C00080917F062FEF3FEF981748F4E92FF0E074
:1007D000EE53FA4F208130E09F5F90938006C9016D
:1007E000089580917F0690918006891B990B08954A
:1007F000CF92DF92EF92FF920F931F93CF93DF93ED
:100800007C01CB018A0120915206222389F0EB0161
:100810006B01C40ED51ECC15DD0569F06991D701B9
:10082000ED91FC910190F081E02DC7010995F3CF86
:10083000642F0E946803C801DF91CF911F910F912F
:10084000FF90EF90DF90CF900895CF93DF931F92AA
:10085000CDB7DEB76983209152062223F9F02091AB
:100860007D06203258F021E030E0FC013383228302
:1008700090E080E00F90DF91CF91089580917E0607
:10088000E82FF0E0ED5AF94F998190838F5F8093C4
:100890007E0680937D0681E090E0ECCF61E0CE01A2
:1008A00001960E946803F7CFCF92DF92EF92FF92FA
:1008B0000F931F93CF93DF93FC01C48121E020931A
:1008C0005206C093730610927E0610927D068385B1
:1008D000682B8AE397E00E942504D0917D06D132EF
:1008E00008F092C00E947E026B017C0180914C0650
:1008F000811165C082E080934C0681E080934B06B5
:100900008FEF80934A0610924906D0934806A3E5DC
:10091000B6E0E8E2F6E080E0D81385C01092270642
:1009200080912706CC0FC82BC093270680912606FE
:10093000813009F07CC0109226060E947E026B0175
:100940007C01809127068093BB0080914E06909198
:100950004F06A0915006B0915106892B8A2B8B2B04
:1009600099F00E947E0200914E0610914F06209150
:100970005006309151066C197D098E099F090617A2
:10098000170728073907E0F18091BC0083FDD9CF14
:1009900085EC8093BC000E947E026B017C018091FB
:1009A0004C06823009F445C080914A068F3F61F1C0
:1009B00080914A06803241F180914A0625C080919B
:1009C0004E0690914F06A0915006B0915106892B8A
:1009D0008A2B8B2B09F48ACF0E947E0200914E064F
:1009E00010914F0620915006309151066C197D09E7
:1009F0008E099F09061717072807390708F076CFD1
:100A000080914D060E94AD0310927E0610927D06E5
:100A100010925206DF91CF911F910F91FF90EF90AE
:100A2000DF90CF9008959D9191938F5F75CF85EE64
:100A3000B0CF80914E0690914F06A0915006B09194
:100A40005106892B8A2B8B2B09F4A9CF0E947E0299
:100A500000914E0610914F0620915006309151069C
:100A60006C197D098E099F09061717072807390792
:100A700008F095CFC5CF90E080E008950F931F93C5
:100A8000CF938C01C62F0E9454046C2F6460C80160
:100A90000E9454046C2F6B7FC8010E94540483ECA5
:100AA00090E00197F1F7CF911F910F9108950F9367
:100AB0001F93CF93DF938C01D62FC42F607F642BBD
:100AC0000E943E0580E1D89FB00111246C2BC80123
:100AD000DF91CF911F910F910C943E05CF93DF933F
:100AE000CDB7DEB728970FB6F894DEBF0FBECDBFE7
:100AF00098E0EAE0F1E0DE01119601900D929A95FE
:100B0000E1F790919207981708F48FEF90E0880F23
:100B1000991F21E030E02C0F3D1F820F931FFC0135
:100B20006081606840E08AE897E028960FB6F89404
:100B3000DEBF0FBECDBFDF91CF910C94570541E0D2
:100B40000E94570581E090E008950F931F93CF9383
:100B5000DF93EC0188819981009759F02A813B81CC
:100B60002617370730F081E0DF91CF911F910F9169
:100B700008958B016F5F7F4F0E943F11009759F0DE
:100B8000998388831B830A832C813D81232B59F70A
:100B9000FC011082E8CF80E0E7CFCF93DF93EC0138
:100BA00088819981009711F00E94B61019821882ED
:100BB0001D821C821B821A82DF91CF910895EF92D1
:100BC000FF920F931F93CF93DF93EC018617970744
:100BD00081F0FB01008111810115110539F0E480DC
:100BE000F580B7010E94A50581110BC0CE010E94BE
:100BF000CD05CE01DF91CF911F910F91FF90EF9026
:100C00000895FD82EC82B801888199810E940512C5
:100C1000F0CFFC0180819181009711F00C94B61007
:100C20000895EF92FF920F931F93CF93DF93EC0100
:100C30007B01198218821B821A821D821C82FB0191
:100C400001900020E9F731978F01061B170BB801BF
:100C50000E94A505811109C0CE01DF91CF911F919E
:100C60000F91FF90EF900C94CD051D830C83B7017D
:100C700088819981DF91CF911F910F91FF90EF9023
:100C80000C940512FB0101900020E9F73197AF01A8
:100C9000461B570BDC01ED91FC910280F381E02DA6
:100CA00009948F929F92AF92BF92CF92DF92EF9270
:100CB000FF920F931F93CF93DF93CDB7DEB7A1972A
:100CC0000FB6F894DEBF0FBECDBF6C01990FEE08D2
:100CD000FF08F7FE4BC06DE28DE996E00E944301EC
:100CE0008C0122273327A9012C193D094E095F09E0
:100CF00019A2CE0181967C019AE0892E912CA12C1B
:100D0000B12CCA01B901A50194010E94F20F605DE6
:100D1000F70162937F01211531054105510589F7DE
:100D200090E080E0309729F0BF018DE996E00E94C5
:100D30004206080F191F62E174E08DE996E00E94F7
:100D40004206800F911FA1960FB6F894DEBF0FBE2A
:100D5000CDBFDF91CF911F910F91FF90EF90DF906A
:100D6000CF90BF90AF909F908F900895A70196016C
:100D700019A28E010F5D1F4F8AE0C82ED12CE12CE5
:100D8000F12CCA01B901A70196010E94F20F605D22
:100D9000F80162938F01211531054105510589F74D
:100DA000309739F0BF018DE996E00E9442068C0130
:100DB000C2CF10E000E0BFCF0F931F93CF93DF931C
:100DC000EC010E9442068C0162E174E0CE010E94B7
:100DD0004206800F911FDF91CF911F910F910895CF
:100DE0000C94420685ED8093BC0080914E06909154
:100DF0004F06A0915006B09151060796A11DB11D56
:100E000023E0B695A795979587952A95D1F72091D8
:100E1000BC0024FD03C010924C06089540914E067C
:100E200050914F066091500670915106452B462B0C
:100E3000472B69F30097A105B10541F025E32A95F9
:100E4000F1F700000197A109B109E1CF80914D06AA
:100E50000C94AD031F920F920FB60F9211242F9393
:100E60003F934F935F936F937F938F939F93AF9332
:100E7000BF93EF93FF938DE996E00E942101FF91CC
:100E8000EF91BF91AF919F918F917F916F915F9102
:100E90004F913F912F910F900FBE0F901F9018957B
:100EA0001F920F920FB60F9211242F938F939F933F
:100EB000EF93FF93E091AD06F091AE068081E09153
:100EC000B306F091B40682FD1BC090818091B606F6
:100ED0008F5F8F732091B706821741F0E091B606BD
:100EE000F0E0E356F94F958F8093B606FF91EF91AE
:100EF0009F918F912F910F900FBE0F901F9018957B
:100F00008081F4CF1F920F920FB60F9211242F936E
:100F10003F938F939F93AF93BF938091810690915E
:100F20008206A0918306B09184063091740623E076
:100F3000230F2D3758F50196A11DB11D209374067E
:100F40008093810690938206A0938306B0938406D3
:100F50008091750690917606A0917706B0917806FB
:100F60000196A11DB11D8093750690937606A093FE
:100F70007706B0937806BF91AF919F918F913F9183
:100F80002F910F900FBE0F901F90189526E8230FFA
:100F90000296A11DB11DD2CF1F920F920FB60F92D4
:100FA00011242F933F934F935F936F937F938F936E
:100FB0009F93AF93BF93EF93FF93E0910201F09162
:100FC00003010995FF91EF91BF91AF919F918F918F
:100FD0007F916F915F914F913F912F910F900FBE35
:100FE0000F901F9018951F920F920FB60F92112419
:100FF0002F933F934F935F936F937F938F939F9321
:10100000AF93BF93EF93FF93E0910001F091010143
:101010000995FF91EF91BF91AF919F918F917F9132
:101020006F915F914F913F912F910F900FBE0F9055
:101030001F9018951F920F920FB60F9211242F93A5
:101040003F934F935F936F937F938F939F93AF9350
:10105000BF93EF93FF938091B900887F803609F4A6
:101060004AC0F0F5883209F4A7C018F5803109F4B8
:101070009BC0B8F4882309F4F9C0883009F494C0FF
:10108000FF91EF91BF91AF919F918F917F916F9160
:101090005F914F913F912F910F900FBE0F901F9036
:1010A0001895883109F488C0803251F780934A0638
:1010B00014C0803409F49DC040F48033B9F3883300
:1010C000F9F680934A0685ECB0C0803509F485C0F6
:1010D000883509F496C0883499F60E94F206D0CF7C
:1010E000883909F48CC038F5883729F050F48836EF
:1010F00011F0803729F683E080934C061092250684
:1011000057C0883809F47BC0803919F0803809F05D
:10111000B7CF80912506803208F071C0E091250696
:1011200081E08E0F809325068091BB00F0E0EB5F9D
:10113000F94F80833DC0803B39F0E0F4803A09F4F8
:1011400079C0883A09F09CCF84E080934C061092D5
:10115000040610920306E0917B06F0917C06099547
:101160008091030681110FC081E0809303061092E5
:10117000E30509C0803C09F4A6CF883C09F4A3CF5D
:10118000883B09F07DCFE091040681E08E0F8093CB
:101190000406F0E0ED51FA4F80818093BB009091FE
:1011A00004068091030629C0809127068093BB0026
:1011B00085EC8093BC0064CF9091490680914806ED
:1011C000981758F5E091490681E08E0F8093490603
:1011D000F0E0E85DF94F8081E9CFE091490681E0D8
:1011E0008E0F809349068091BB00F0E0E85DF94FD7
:1011F000808390914906809148069817C8F285E847
:10120000D8CFE091490681E08E0F80934906809106
:10121000BB00F0E0E85DF94F808380914B068111BF
:101220005CCF81E08093260684EA8093BC00109214
:101230004C0626CF85EC8093BC0010924C06809122
:101240002506803230F4E0912506F0E0EB5FF94F9F
:1012500010826091250670E0E0917906F0917A069F
:1012600085E096E00995109225060ACF10924A066D
:1012700034CF1092A00610929F0688EE93E0A0E073
:10128000B0E08093A1069093A206A093A306B0932A
:10129000A40626EE33E030939E0620939D0625ECAF
:1012A00030E03093AA062093A90624EC30E0309376
:1012B000AC062093AB0620EC30E03093AE062093D2
:1012C000AD0621EC30E03093B0062093AF0622EC5F
:1012D00030E03093B2062093B10626EC30E0309334
:1012E000B4062093B3061092B6061092B706109279
:1012F000B8061092B90610923D0710923C078093F1
:101300003E0790933F07A0934007B093410788EFB3
:1013100093E090933B0780933A07A6E4B7E0FD0182
:101320008285807C828716821782108611861282BF
:10133000138214821582118210823B9687E0E8386E
:10134000F80771F71092880790E080E03BE0389F43
:10135000F001399FF00D1124E05BF84F2081422FFE
:101360004F7089F0207E208311961C921E92129657
:101370001D921D921D921C92159716961D921D92FC
:101380001D921C92199701961B9686309105F9F6CD
:1013900063E070E08AE798E00E94440364E070E054
:1013A00084E698E00E94440365E070E08EE498E0F3
:1013B0000E94440366E070E088E398E00E944403E2
:1013C00067E070E082E298E00E94440368E070E029
:1013D0008CE098E00E94440369E070E086EF97E0BB
:1013E0000E94440364E174E080EF97E00E941106DC
:1013F00065E174E08EED97E00E9411066EEC74E0FA
:1014000084EE97E00E9411066BEE74E08AEE97E09E
:101410000E9411066BE174E084EB97E00E941106D4
:1014200062E274E08AEB97E00E94110669E274E0E0
:1014300080EC97E00E94110661E374E086EC97E08F
:101440000E9411066BE374E08CEC97E00E94110699
:1014500064E474E082ED97E00E9411066BE474E0AE
:1014600088ED97E00E94110664E574E08CE997E04E
:101470000E94110669E574E082EA97E00E94110675
:101480006FE574E088EA97E00E94110665E674E073
:101490008EEA97E00E94110664E174E086E997E025
:1014A0000E94110610928D0710928C078AE094E03A
:1014B00090938B0780938A0787E280938E0780E161
:1014C0008093930782E08093940710929507089584
:1014D000789484B5826084BD84B5816084BD85B50F
:1014E000826085BD85B5816085BD80916E0081601B
:1014F00080936E00109281008091810082608093C1
:1015000081008091810081608093810080918000C2
:101510008160809380008091B10084608093B100ED
:101520008091B00081608093B00080917A008460E7
:1015300080937A0080917A00826080937A00809113
:101540007A00816080937A0080917A00806880932D
:101550007A001092C100E091AD06F091AE0682E0F3
:101560008083E091A906F091AA061082E091AB0673
:10157000F091AC068FEC80831092B506E091B10635
:10158000F091B20686E08083E091AF06F091B0065C
:10159000808180618083E091AF06F091B006808108
:1015A00088608083E091AF06F091B006808180680A
:1015B0008083E091AF06F091B00680818F7D8083BB
:1015C00082E390E0A0E0B0E080937C0890937D08F7
:1015D000A0937E08B0937F08809366089093670875
:1015E000A0936808B09369088093500890935108BD
:1015F000A0935208B093530880933A0890933B0805
:10160000A0933C08B0933D0880932408909325084C
:10161000A0932608B093270880930E0890930F0894
:10162000A0931008B09311088093F8079093F907DE
:10163000A093FA07B093FB0760E082E00E943002BB
:1016400060E08EE00E94300260E08FE00E94300295
:1016500061E08CE00E94300261E08CE00E940202B6
:101660008DE890E0909301018093000180916900E2
:10167000836080936900E89A1092800610927F063A
:1016800010927E0610927D060E948F0381EA90E000
:1016900090937C0680937B0682EA90E090937A0692
:1016A0008093790610928F0780919407823018F00A
:1016B00098E090938F078093920762E370E080E058
:1016C00090E00E94A302609195078AE897E00E944B
:1016D000540468EE73E080E090E00E94A30260E3AF
:1016E0008AE897E00E943E05CBE4D6E4CE0101975C
:1016F000F1F760E38AE897E00E943E052197F1F751
:1017000060E38AE897E00E943E0583E592E0019756
:10171000F1F760E28AE897E00E943E0560918F074A
:10172000606240E08AE897E00E94570584E0809379
:10173000900740E06CE08AE897E00E94570540E09F
:1017400061E08AE897E00E945705CBE3DFE1CE0134
:101750000197F1F782E08093910740E066E08AE824
:1017600097E00E94570540E062E08AE897E00E9417
:101770005705CE010197F1F788E08093950760E067
:101780008AE897E00E94540480E00E946E056BE6B0
:1017900074E08AE897E00E94F00681E00E946E05FE
:1017A0006CE774E08AE897E00E94F00660ED77E06D
:1017B00080E090E00E94A30240E061E08AE897E0C8
:1017C0000E9457052197F1F76DE874E08DE996E0E6
:1017D0000E94DC0620ED822E27E0922EA12CB12C57
:1017E000DCE330E0632E30E0732EC1E043E0C42E32
:1017F000D12C52E0E52EF12C01E010E08AE798E0D0
:101800000E94D60284E698E00E94D6028EE498E018
:101810000E94D60288E398E00E94D60282E298E015
:101820000E94D6028CE098E00E94D60286EF97E0F4
:101830000E94D6028EE00E946C028FE00E946C0231
:101840002FB7F8946091810670918206809183068B
:10185000909184062FBFA50194010E94F20F30934E
:101860009C0620939B068091990690919A06281BCE
:10187000390B22303105A4F069E974E08DE996E076
:101880000E94F00680919B0690919C060E94510652
:1018900080919B0690919C0690939A06809399065E
:1018A00080919806811182C00E946E056DE874E0F7
:1018B0008AE897E00E94DC068AE798E00E943803F5
:1018C000882309F1C09398066EED77E080EF97E0EA
:1018D0000E94DF056FE974E08DE996E00E94DC0666
:1018E00081E00E946E056DEA74E08AE897E00E944C
:1018F000DC0610929706109296066AEB74E08DE96A
:1019000096E00E94DC0684E698E00E943803882373
:1019100009F1C093980664EE77E080EF97E00E94AB
:10192000DF0566EC74E08DE996E00E94DC0681E05C
:101930000E946E0565ED74E08AE897E00E94DC067F
:1019400010939706009396066AEB74E08DE996E093
:101950000E94DC068EE498E00E943803882309F197
:10196000C09398066AEE77E080EF97E00E94DF056B
:1019700063EE74E08DE996E00E94DC0681E00E944F
:101980006E0561EF74E08AE897E00E94DC06F09251
:101990009706E09296066AEB74E08DE996E00E9465
:1019A000DC0680919806882309F49FC080919506F3
:1019B00081119BC00E946E056AEB74E08AE897E093
:1019C0000E94F00688E398E00E9438038823D9F04B
:1019D000C09395066CE977E086E997E00E94DF0501
:1019E00081E00E946E056EEF74E08DE996E00E9442
:1019F000DC0666E175E08AE897E00E94F006109246
:101A000094061092930682E298E00E94380388239D
:101A1000D9F0C093950662EA77E086E997E00E94E4
:101A2000DF0581E00E946E0566E275E08DE996E0D3
:101A30000E94DC066DE375E08AE897E00E94F006FC
:101A400010939406009393068CE098E00E9438036C
:101A50008823D9F0C093950668EA77E086E997E095
:101A60000E94DF0581E00E946E056CE475E08DE95F
:101A700096E00E94DC0669E675E08AE897E00E943D
:101A8000F006F0929406E092930686EF97E00E94AB
:101A900038038823D9F0C09395066EEA77E086E98B
:101AA00097E00E94DF0581E00E946E0569E775E01E
:101AB0008DE996E00E94DC0662E475E08AE897E032
:101AC0000E94F006D0929406C092930680E00E9495
:101AD0006E054091F4075091F5076091F007709101
:101AE000F1078AE897E00E94A30040919606509182
:101AF00097066091930670919406A0919506AA238B
:101B0000B9F180919806882399F12091910630913E
:101B10009206EFE0E69FC001E79F900D1124D49F4D
:101B2000F001D59FF00D1124E80FF91FE20FF31F0C
:101B3000EE0FFF1FE658FD4F0190F081E02D8091E0
:101B40009B0690919C06E817F90791F42F5F3F4F91
:101B500030939206209391061092900610928F0671
:101B600010928B0610928C0610928D0610928E06A3
:101B70002FE0269FC001279F900D1124D49F900134
:101B8000D59F300D1124820F931F20919106309123
:101B90009206820F931FFC01EE0FFF1FEE5EFE4FB9
:101BA0008081918190938A0680938906AA23D1F13E
:101BB000809198068823B1F180919B0690919C06B4
:101BC0002091870630918806AC01421B530B4330AD
:101BD000510544F190938806809387066CE875E080
:101BE0008DE996E00E94F006809191069091920610
:101BF0000E94510666E975E08DE996E00E94F006C4
:101C00008091890690918A060E94510665EA75E0E6
:101C10008DE996E00E94F0068091850690918606F7
:101C20000E94510660918B0670918C0680918D0602
:101C300090918E060E948C0E20E030E040E250E44D
:101C40000E94C70E0E94BC0F9B0170938606609392
:101C500085068091890690918A0628173907E4F451
:101C600080918F0690919006892B51F460E08CE072
:101C70000E9402026CEA75E08DE996E00E94DC06A3
:101C80006114710409F4BACD0E940D01882309F48E
:101C9000B5CD0E940000B2CD821793078CF761E0AA
:101CA0008CE00E9402021093900600938F06E8CF0A
:101CB000CF93DF9386E997E00E9409068EEA97E0CA
:101CC0000E94090688EA97E00E94090682EA97E0E6
:101CD0000E9409068CE997E00E940906CEEDD7E044
:101CE0002697CE010E94090687E0C43BD807C1F7BA
:101CF0008AEE97E00E94090684EE97E00E940906AA
:101D00008EED97E00E94090680EF97E0DF91CF917A
:101D10000C940906E89409C097FB3EF490958095D1
:101D2000709561957F4F8F4F9F4F9923A9F0F92FA1
:101D300096E9BB279395F695879577956795B7951F
:101D4000F111F8CFFAF4BB0F11F460FF1BC06F5F05
:101D50007F4F8F4F9F4F16C0882311F096E911C017
:101D6000772321F09EE8872F762F05C0662371F038
:101D700096E8862F70E060E02AF09A95660F771F4C
:101D8000881FDAF7880F9695879597F908950E942E
:101D9000DA0E0C944B0F0E943D0F38F00E94440F56
:101DA00020F0952311F00C94340F0C943A0F112469
:101DB0000C947F0F0E945C0F70F3959FC1F3950FF9
:101DC00050E0551F629FF001729FBB27F00DB11DBF
:101DD000639FAA27F00DB11DAA1F649F6627B00D4F
:101DE000A11D661F829F2227B00DA11D621F739F38
:101DF000B00DA11D621F839FA00D611D221F749F46
:101E00003327A00D611D231F849F600D211D822F8C
:101E1000762F6A2F11249F5750409AF0F1F08823B3
:101E20004AF0EE0FFF1FBB1F661F771F881F9150E0
:101E30005040A9F79E3F510580F00C94340F0C944C
:101E40007F0F5F3FE4F3983ED4F3869577956795CF
:101E5000B795F795E7959F5FC1F7FE2B880F911D0A
:101E60009695879597F9089597F99F6780E870E0B0
:101E700060E008959FEF80EC089500240A94161600
:101E8000170618060906089500240A941216130668
:101E9000140605060895092E0394000C11F48823F6
:101EA00052F0BB0F40F4BF2B11F460FF04C06F5F12
:101EB0007F4F8F4F9F4F089557FD9058440F551FE8
:101EC00059F05F3F71F04795880F97FB991F61F0BC
:101ED0009F3F79F087950895121613061406551F33
:101EE000F2CF4695F1DF08C0161617061806991F9F
:101EF000F1CF86957105610508940895E894BB2794
:101F000066277727CB0197F908952F923F924F923A
:101F10005F926F927F928F929F92AF92BF92CF9279
:101F2000DF92EF92FF920F931F93CF93DF93CDB782
:101F3000DEB7CA1BDB0B0FB6F894DEBF0FBECDBFFA
:101F400009942A88398848885F846E847D848C84CB
:101F50009B84AA84B984C884DF80EE80FD800C81D4
:101F60001B81AA81B981CE0FD11D0FB6F894DEBFB7
:101F70000FBECDBFED0108950E94C30F6894B1114B
:101F80000C947F0F08950E94640F88F09F5798F07B
:101F9000B92F9927B751B0F0E1F0660F771F881F6E
:101FA000991F1AF0BA95C9F714C0B13091F00E9488
:101FB0007E0FB1E008950C947E0F672F782F88274D
:101FC000B85F39F0B93FCCF3869577956795B395AF
:101FD000D9F73EF490958095709561957F4F8F4F1E
:101FE0009F4F0895A1E21A2EAA1BBB1BFD010DC035
:101FF000AA1FBB1FEE1FFF1FA217B307E407F507B9
:1020000020F0A21BB30BE40BF50B661F771F881F94
:10201000991F1A9469F760957095809590959B012A
:10202000AC01BD01CF010895EE0FFF1F0590F491A3
:10203000E02D09940F931F93CF93DF938230910586
:1020400010F482E090E0E0919208F091930830E083
:1020500020E0B0E0A0E0309799F42115310509F4B3
:102060004AC0281B390B24303105D8F58A819B8161
:102070006115710589F1FB0193838283FE0111C013
:10208000408151810281138148175907E0F04817B8
:10209000590799F4109761F012960C9312971396C2
:1020A0001C933296CF01DF91CF911F910F9108952C
:1020B0000093920810939308F4CF2115310551F045
:1020C0004217530738F0A901DB019A01BD01DF0176
:1020D000F801C1CFEF01F9CF909393088093920854
:1020E000CDCFFE01E20FF31F81939193225031096E
:1020F00039832883D7CF2091900830919108232BE2
:1021000041F420910601309107013093910820930A
:10211000900820910401309105012115310541F409
:102120002DB73EB74091080150910901241B350B92
:10213000E0919008F0919108E217F307A0F42E1BAC
:102140003F0B2817390778F0AC014E5F5F4F24171B
:10215000350748F04E0F5F1F509391084093900849
:10216000819391939FCFF0E0E0E09CCFCF93DF93FA
:102170000097E9F0FC01329713821282A091920835
:10218000B0919308ED0130E020E01097A1F4208198
:102190003181820F931F2091900830919108281768
:1021A000390709F061C0F0939108E0939008DF913E
:1021B000CF910895EA01CE17DF07E8F54A815B81E8
:1021C0009E0141155105B1F7E901FB83EA8349916D
:1021D0005991C40FD51FEC17FD0761F480819181DF
:1021E0000296840F951FE9019983888382819381E8
:1021F0009B838A83F0E0E0E012968D919C91139787
:102200000097B9F52D913C911197CD010296820F5F
:10221000931F20919008309191082817390739F6BB
:10222000309751F51092930810929208B09391084C
:10223000A0939008BCCFD383C28340815181840F87
:10224000951FC817D90761F44E5F5F4F8881998148
:10225000480F591F518340838A819B8193838283D6
:102260002115310509F0B0CFF0939308E09392085F
:102270009ECFFD01DC01C0CF13821282D7CFB0E028
:10228000A0E0E5E4F1E10C94870F8C01009751F494
:10229000CB010E941A108C01C801CDB7DEB7E0E176
:1022A0000C94A30FFC01E60FF71F9C01225031098B
:1022B000E217F30708F49DC0D901CD91DC91119785
:1022C000C617D70798F0C530D10530F3CE01049773
:1022D0008617970708F3C61BD70B2297C193D19394
:1022E0006D937C93CF010E94B610D6CF5B01AC1AE0
:1022F000BD0A4C018C0E9D1EA0919208B0919308CE
:10230000512C412CF12CE12C109731F58091900843
:10231000909191088815990509F05CC046165706FA
:1023200008F058C08091040190910501009741F494
:102330008DB79EB74091080150910901841B950B00
:10234000E817F90708F055C0F0939108E09390085A
:10235000F90171836083A0CF8D919C9111971296A2
:102360006C90129713967C901397A815B90559F5A0
:102370006C0142E0C40ED11CCA14DB0420F1AC0194
:102380004A195B09DA011296159780F0628273820E
:1023900051834083D9016D937C93E114F10471F072
:1023A000D7011396FC93EE93129776CF22968C0F5B
:1023B0009D1FF90191838083F301EFCFF093930880
:1023C000E093920869CF4816590608F42C017D0164
:1023D000D3019ACFCB010E941A107C01009749F0DB
:1023E000AE01B8010E94FC11C8010E94B61087011D
:1023F00053CF10E000E050CFFB01DC0102C00190A0
:102400000D9241505040D8F70895FB01DC01019036
:102410000D920020E1F7089510E0C2E6D0E004C07C
:10242000FE010E9414102196C336D107C9F7F89413
:10243000FFCFD502D50200009408800000004000C4
:10244000140054002A003C006F008B009E00AD0079
:10245000AF00AF00AF00AF000000000000000000C0
:1024600000004F00BA00EC0007010C01070100005A
:10247000000000000000000000000000000000005C
:102480000D0015003E006B0085009700A800B70006
:10249000C300D000DD0000000000000000001300B9
:1024A0003B0075009400B300BE00E0000000000097
:1024B000000000000000000000000000AC00AC00C4
:1024C000AC00AC00AC00AC0000000000000000005C
:1024D00000000000000000000000000100010001F9
:1024E00000010000000000000000000000000000EB
:1024F000000000000000000098009800980098007C
:102500009800000000000000000000000000000033
:10251000000000000000D000D000D000D00000007B
:1025200000000000000000000000000000000000AB
:1025300000000000C200C200C200C200C200C2000F
:10254000C200C200C200C200000000000000000083
:102550000000250125012501250125012501250171
:10256000000000000000000000000000000000006B
:10257000AE00AE00AE00AE00AE00AE00AE00AE00EB
:10258000AE00AE00AE000000000000000000ED0054
:10259000ED00ED00ED00ED00ED00ED00ED000000C0
:1025A0000000000000000000000000000F002500F7
:1025B0003300490061008100B900C700D400E50084
:1025C000000000000000000000001B006F009600EB
:1025D000BB00C700DC00000000000000000000009D
:1025E00000000000000000000D0015003E006B0020
:1025F00085009700A800B700C300D000DD000000F0
:1026000000000000000013003B0075009400B300C0
:10261000BE00E0000000000000000000000000001C
:10262000000000005F007E009400A8006100BF0071
:10263000000000000000000000000000000000009A
:10264000000070009400A800B3000000000000002B
:10265000000000000000000000000000000000007A
:102660005B0077008C009F00B200000000000000BB
:1026700000000000000000000000000000006700F3
:102680008900A100BC000000000000000000000064
:102690000000000000000000000000006200830055
:1026A0009900AB00BC00CA00D700E400FD00510156
:1026B0000000000000000000000074009900B40059
:1026C000CA00DF00E0006B01000000000000000015
:1026D00000000000000000005F007E009300A400E6
:1026E000B300B700CD00DA00E500F3004D010000B3
:1026F0000000000000006B008F00A500BA00CB00B6
:10270000DC00EE005C0100000000000000000000A2
:1027100000000000000000004301A300D000900171
:102720000101DF00F300000000002504F8033B0571
:10273000CE03F103DE03CF03000000009F05A300DA
:102740003B0567030D0A0077686561740053756E79
:10275000646179004D6F6E646179005475657364CE
:102760006179005765646E657364617900546875BA
:1027700072736461790046726964617900536174AF
:10278000757264617900534C53310053544C533289
:102790000053434C5333004C53303034002020203E
:1027A000202057454C434F4D202020202000534DE2
:1027B0004152542049525249474154494F4E0053C7
:1027C000454C4543542043524F50004441593A2010
:1027D0000063726F7020697320574845415400436D
:1027E000524F50203A2057484541540053454C45DC
:1027F000435420534F494C0063726F70206973201B
:10280000636F74746F6E0043524F50203A20434FF1
:1028100054544F4E0063726F702069732073756754
:1028200061720043524F50203A20535547415200A5
:10283000534F494C2069732073616E6479206C6F2B
:10284000616D20736F696C0053414E44595F4C4F6A
:10285000414D5F534F494C00534F494C2069732001
:1028600053494C54206C6F616D20736F696C005339
:10287000494C545F4C4F414D5F534F494C00534FAF
:10288000494C2069732073616E647920636C6179AF
:10289000206C6F616D20736F696C0053414E445919
:1028A0005F434C41595F534F494C00534F494C20B3
:1028B000697320206C6F616D20736F696C006461B7
:1028C0007920696E6465780077617465725F6C6504
:1028D00076656C5F746800564F4C554D45005055F9
:1028E0004D50206973206F6E202E2E2E2E2E2E2EF0
:0428F0002E2E000088
:107800000C94343C0C94513C0C94513C0C94513CE1
:107810000C94513C0C94513C0C94513C0C94513CB4
:107820000C94513C0C94513C0C94513C0C94513CA4
:107830000C94513C0C94513C0C94513C0C94513C94
:107840000C94513C0C94513C0C94513C0C94513C84
:107850000C94513C0C94513C0C94513C0C94513C74
:107860000C94513C0C94513C11241FBECFEFD8E036
:10787000DEBFCDBF11E0A0E0B1E0ECE9FFE702C060
:1078800005900D92A230B107D9F712E0A2E0B1E065
:1078900001C01D92AD30B107E1F70E942D3D0C945F
:1078A000CC3F0C94003C982F959595959595959582
:1078B000905D8F708A307CF0282F295A8091C0000B
:1078C00085FFFCCF9093C6008091C00085FFFCCF60
:1078D0002093C6000895282F205DF0CF982F809127
:1078E000C00085FFFCCF9093C6000895EF92FF92F1
:1078F0000F931F93EE24FF2487018091C00087FD22
:1079000017C00894E11CF11C011D111D81E4E8164B
:1079100082E4F8068FE0080780E0180770F3E09132
:107920000401F091050109958091C00087FFE9CF1E
:107930008091C6001F910F91FF90EF9008950E94D3
:10794000763C982F8091C00085FFFCCF9093C600B5
:1079500091362CF490330CF09053892F089597555D
:10796000892F08951F930E949F3C182F0E949F3CCF
:107970001295107F810F1F9108951F93182F882350
:1079800021F00E94763C1150E1F71F9108951F935A
:10799000182F0E94763C803249F0809103018F5F5E
:1079A000809303018530C1F01F9108958091C0003C
:1079B00085FFFCCF84E18093C6008091C00085FFE5
:1079C000FCCF1093C6008091C00085FFFCCF80E102
:1079D0008093C6001F910895E0910401F091050184
:1079E00009951F9108950E94763C803241F0809164
:1079F00003018F5F80930301853081F008958091AA
:107A0000C00085FFFCCF84E18093C6008091C00058
:107A100085FFFCCF80E18093C6000895E0910401CA
:107A2000F09105010995089540E951E08823A1F0FE
:107A30002D9A28EE33E0FA013197F1F721503040CA
:107A4000D1F72D9828EE33E0FA013197F1F7215064
:107A50003040D1F7815061F708953F924F925F9285
:107A60006F927F928F929F92AF92BF92CF92DF924E
:107A7000EF92FF920F931F93CF93DF93000080E16B
:107A80008093C4001092C50088E18093C10086E015
:107A90008093C2005098589A259A81E00E94143D24
:107AA00024E1F22E9EE1E92E85E9D82E0FE0C02ECA
:107AB00010E1B12EAA24A394B1E49B2EA6E58A2E50
:107AC000F2E57F2EE0E26E2E79E4572E63E5462E36
:107AD00050E5352E0E94763C8033B1F18133B9F107
:107AE000803409F46FC0813409F476C0823409F41B
:107AF00085C0853409F488C0803531F1823521F1A3
:107B0000813511F1853509F485C0863509F48DC0BC
:107B1000843609F496C0843709F403C1853709F423
:107B200072C1863709F466C0809103018F5F80932C
:107B30000301853079F6E0910401F0910501099582
:107B40000E94763C803351F60E94F33CC3CF0E94E2
:107B5000763C803249F78091C00085FFFCCFF092DF
:107B6000C6008091C00085FFFCCF9092C600809136
:107B7000C00085FFFCCF8092C6008091C00085FFC9
:107B8000FCCF7092C6008091C00085FFFCCF609250
:107B9000C6008091C00085FFFCCF5092C600809146
:107BA000C00085FFFCCF4092C6008091C00085FFD9
:107BB000FCCF3092C6008091C00085FFFCCFB09210
:107BC000C60088CF0E94763C863808F4BDCF0E945C
:107BD000763C0E94F33C7ECF0E94763C803809F4CC
:107BE0009CC0813809F40BC1823809F43CC1883942
:107BF00009F48FC080E00E94C73C6CCF84E10E94F2
:107C0000BD3C0E94F33C66CF85E00E94BD3C0E94D3
:107C1000F33C60CF0E94763C809306010E94763C44
:107C2000809307010E94F33C55CF0E94763C80333D
:107C300009F41DC183E00E94BD3C80E00E94C73C66
:107C400049CF0E94763C809309020E94763C809343
:107C5000080280910C028E7F80930C020E94763C79
:107C6000853409F415C18091080290910902892B8D
:107C700089F000E010E00E94763CF801E85FFE4FDA
:107C800080830F5F1F4F80910802909109020817AF
:107C9000190788F30E94763C803209F045CF809125
:107CA0000C0280FF01C16091060170910701660F0F
:107CB000771F7093070160930601A0910802B091AD
:107CC00009021097C9F0E8E0F1E09B01AD014E0F09
:107CD0005F1FF999FECF32BD21BD819180BDFA9A17
:107CE000F99A2F5F3F4FE417F50799F76A0F7B1F4B
:107CF00070930701609306018091C00085FFFCCF5F
:107D0000F092C6008091C00085FFFCCFB092C60003
:107D1000E1CE83E00E94C73CDDCE82E00E94C73CFA
:107D2000D9CE0E94763C809309020E94763C8093D3
:107D300008028091060190910701880F991F909386
:107D40000701809306010E94763C853409F4A6C0A1
:107D500080910C028E7F80930C020E94763C8032D0
:107D600009F0B8CE8091C00085FFFCCFF092C6002C
:107D7000609108027091090261157105B9F140E046
:107D800050E080910C02A82FA170B82FB27011C0E2
:107D9000BB2309F45CC0E0910601F0910701319624
:107DA000F0930701E09306014F5F5F4F46175707B7
:107DB000E8F4AA2369F3F999FECF209106013091E6
:107DC000070132BD21BDF89A90B58091C00085FFB2
:107DD000FCCF9093C6002F5F3F4F30930701209355
:107DE00006014F5F5F4F4617570718F38091C00099
:107DF00085FDE5CE8091C00085FFF8CFE0CE81E023
:107E00000E94C73C67CE0E94763C803209F08CCE3F
:107E10008091C00085FFFCCFF092C6008091C00029
:107E200085FFFCCFE092C6008091C00085FFFCCFAB
:107E3000D092C6008091C00085FFFCCFC092C600E2
:107E40008091C00085FFFCCFB092C60043CEE09188
:107E50000601F091070194918091C00085FFFCCF4D
:107E60009093C6009CCF80E10E94C73C33CE0E9415
:107E7000763C0E94763C182F0E94763C112309F430
:107E800083C0113009F484C08FE00E94C73C22CE29
:107E900080910C02816080930C02E5CE80910C02EF
:107EA000816080930C0259CF809107018823880F4D
:107EB000880B8A2180930B02809106019091070123
:107EC000880F991F90930701809306018091080203
:107ED00080FF09C080910802909109020196909359
:107EE000090280930802F894F999FECF1127E091D6
:107EF0000601F0910701C8E0D1E08091080290915D
:107F00000902103091F40091570001700130D9F34B
:107F100003E000935700E89500915700017001308D
:107F2000D9F301E100935700E89509901990009169
:107F3000570001700130D9F301E000935700E89534
:107F40001395103498F011270091570001700130FB
:107F5000D9F305E000935700E895009157000170B0
:107F60000130D9F301E100935700E895329602976A
:107F700009F0C7CF103011F00296E5CF112480919F
:107F8000C00085FFB9CEBCCE8EE10E94C73CA2CD19
:0E7F900085E90E94C73C9ECDF894FFCF80008B
:00000001FF
