:020000040000FA
:100000000C9458010C94C20C0C94970C0C946C0C2E
:100010000C94410C0C94160C0C94EB0B0C94C00B30
:100020000C94950B0C9489010C9489010C94890112
:100030000C9489010C9489010C9489010C94890118
:100040000C9489010C9489010C9489010C94890108
:100050000C9489010C9489010C9489010C944B0B2C
:100060000C9489010C94150B0C94EB0A0C948901E7
:100070000C9489010C9489010C9489010C948901D8
:100080000C9489010C9489010C9489010C948901C8
:100090000C9489010C9489010C9489010C94ED0C49
:1000A0000C9489010C9489010C9489010C948901A8
:1000B0000C9489010C9489010C9489010C94890198
:1000C0000C9489010C9489010C9489010C94890188
:1000D0000C9489010C9489010C9489010C94890178
:1000E0000C9489010C9499060C9481030C94F006ED
:1000F0000C94AA020C9409020C949A060C948503A1
:100100000C9442050C9474030C948B030C94B0046F
:100110000C9466030C9472020C9441020C94A1039B
:100120000C94110E0C940A020C9464020C94F501C8
:100130000C94A9060C9433070C94AB030C9478032D
:100140000C94A6030C9493030C9450020C949D03FE
:100150000C94F7020C946E140C9470030C947B03B3
:100160000C94C3060C9499030C940B020C94600934
:100170000C948F030C946C030C94A7030C94BC0692
:1001800000002100240027002A002D003000330049
:1001900001010000040107010A01000022002500FE
:1001A00028002B002E003100340002010000050160
:1001B00008010B01000020002300260029002C006C
:1001C0002F003200000100000301060109010505AE
:1001D0000505070508080808020202020A0A0808BD
:1001E00004040404010101010101010103030303EB
:1001F00003030303040707070C0C0C0C0C0C0C0C7A
:100200000202020206060606060606060B0B0B0B8A
:100210000B0B0B0B010210202008081020401020AF
:1002200040800201020108040201010204081020BA
:1002300040808040201008040201800402018040B8
:100240002010080402010804020101020408102021
:100250004080010204081020408000000A0B0209BF
:100260000C0D0E0807030401000000000000000050
:10027000000000000000000000000000000000007E
:10028000000000000000121110000000000000003B
:10029000000000000000000000000000000000005E
:1002A0001F1C1F1E1F1E1F1F1E1F1E00110E6E145F
:1002B00011241FBECFEFD1E2DEBFCDBF00E00CBFE7
:1002C0002AE0A2EFB7E001C01D92AA3AB207E1F717
:1002D00017E0A0E0B2E0E2E8F0E300E00BBF02C00C
:1002E00007900D92A23FB107D9F711E0C7E5D1E021
:1002F00000E006C021970109802FFE010E9411161F
:10030000C635D10780E00807A9F70E942F0F0C948B
:100310002F180C940000EF92FF920F931F9360919F
:10032000E5093091E409432F50E02091E609822F3E
:1003300090E0E0EAF2E021E0261730F47491870FB4
:10034000911D2F5F3196F8CF633018F0337009F4A8
:1003500001966DE671E0469F9001479F300D569FD4
:10036000300D1124215031094D5F5F4F569547954F
:1003700056954795240F351F280F391FA8E1B0E087
:100380000E94AA152091E7097B018C01E20EF11C65
:10039000011D111DA8019701ACE3B0E00E949F155B
:1003A0002091E8097B018C01E20EF11C011D111D59
:1003B000A80197010E949F15AB01BC019091E9092A
:1003C000892F90E0B0E0A0E080589C4BA249B74C48
:1003D0008A019B01080F191F2A1F3B1FC901B80181
:1003E0001F910F91FF90EF9008958091490890918F
:1003F0004A08A0914B08B0914C080196A11DB11D6F
:100400008093490890934A08A0934B08B0934C08F6
:10041000089508950895AF92BF92CF92DF92EF9220
:10042000FF920F931F93CF93DF936C017B018B019E
:10043000040F151FEB015E01AE18BF08C017D107EE
:1004400059F06991D601ED91FC910190F081E02D78
:10045000C6011995892B79F7C501DF91CF911F91BD
:100460000F91FF90EF90DF90CF90BF90AF900895E5
:10047000FC0144815581608171818EE799E00C9483
:100480000B02FC01538D448D252F30E0842F90E02A
:10049000821B930B541710F0CF960895019708957F
:1004A000FC01918D828D981761F0A28DAE0FBF2F48
:1004B000B11D5D968C91928D9F5F9F73928F90E09E
:1004C00008958FEF9FEF0895FC01918D828D98170D
:1004D00031F0828DE80FF11D858D90E008958FEF4A
:1004E0009FEF0895FC01918D228D892F90E0805C13
:1004F0009F4F821B91098F739927089585ED98E08E
:100500000E94720221E0892B09F420E0822F0895D5
:10051000FC01A48DA80FB92FB11DA35ABF4F2C9178
:10052000848D90E001968F739927848FA689B7896F
:100530002C93A089B1898C91837080648C93938D66
:10054000848D981306C00288F389E02D80818F7D09
:1005500080830895EF92FF920F931F93CF93DF93C1
:10056000EC0181E0888F9B8D8C8D98131AC0E889EF
:10057000F989808185FF15C09FB7F894EE89FF89BE
:100580006083E889F98980818370806480839FBF5C
:1005900081E090E0DF91CF911F910F91FF90EF905C
:1005A0000895F62E0B8D10E00F5F1F4F0F7311276C
:1005B000E02E8C8D8E110CC00FB607FCFACFE889A7
:1005C000F989808185FFF5CFCE010E948802F1CFA5
:1005D000EB8DEC0FFD2FF11DE35AFF4FF0829FB71B
:1005E000F8940B8FEA89FB8980818062CFCFCF930B
:1005F000DF93EC01888D8823B9F0AA89BB89E8894B
:10060000F9898C9185FD03C0808186FD0DC00FB6F0
:1006100007FCF7CF8C9185FFF2CF808185FFEDCF6E
:10062000CE010E948802E9CFDF91CF91089580E04A
:1006300090E0892B29F00E947E0281110E94000027
:1006400080E090E0892B49F080E090E0892B29F050
:100650000E94000081110E94000080E090E0892B40
:1006600049F080E090E0892B29F00E940000811180
:100670000E94000080E090E0892B49F080E090E04B
:10068000892B29F00E94000081110C94000008952C
:100690008150823108F05AC0E82FF0E08827EC5AE8
:1006A000FC4F8F4F0C9411167403780366036C0390
:1006B0007003A6037B03810385038B038F039303DE
:1006C00099039D03A603A103A703AB0380918000B8
:1006D0008F77809380000895809180008F7DF9CF7F
:1006E00080918000877FF5CF84B58F7784BD089592
:1006F00084B58F7DFBCF8091B0008F778093B00061
:1007000008958091B0008F7DF9CF809190008F7710
:10071000809390000895809190008F7DF9CF809113
:100720009000877FF5CF8091A0008F778093A00005
:1007300008958091A0008F7DF9CF8091A000877FE0
:10074000F5CF809120018F778093200108958091CB
:1007500020018F7DF9CF80912001877FF5CFCF9346
:10076000DF93282F30E0F901E65AFD4F8491F9011B
:10077000EC5EFD4FD491F901E253FE4FC491CC23BE
:10078000A1F081110E944803EC2FF0E0EE0FFF1F53
:10079000EC54FE4FA591B491EC91ED2381E090E0F3
:1007A00009F480E0DF91CF91089580E090E0FACFE6
:1007B0001F93CF93DF93282F30E0F901E65AFD4FC6
:1007C0008491F901EC5EFD4FD491F901E253FE4FA3
:1007D000C491CC23A9F0162F81110E944803EC2F5D
:1007E000F0E0EE0FFF1FE656FE4FA591B4918FB7D4
:1007F000F894EC91111108C0D095DE23DC938FBFE3
:10080000DF91CF911F910895DE2BF8CFCF93DF9327
:1008100090E0FC01EC5EFD4F249182539E4FFC0161
:1008200084918823C9F090E0880F991FFC01E0585B
:10083000FE4FA591B491FC01E656FE4FC591D491AF
:1008400061110DC09FB7F8948C91209582238C93F1
:100850008881282328839FBFDF91CF91089562303C
:1008600051F49FB7F8943C91822F809583238C9309
:10087000E8812E2BEFCF8FB7F894EC912E2B2C9391
:100880008FBFEACF90917B00977F90937B00865338
:10089000806480937C0080917A00806480937A00E9
:1008A00080917A0086FDFCCF80917800909179004C
:1008B00008953FB7F89480913B0890913C08A0912F
:1008C0003D08B0913E0826B5A89B05C02F3F19F002
:1008D0000196A11DB11D3FBFBA2FA92F982F8827C0
:1008E000BC01CD01620F711D811D911D42E0660F9B
:1008F000771F881F991F4A95D1F708958F929F926D
:10090000AF92BF92CF92DF92EF92FF924B015C01C8
:100910000E9459046B017C010E9459046C197D09E5
:100920008E099F09683E734081059105A8F321E077
:10093000821A9108A108B10888EEC80E83E0D81E7B
:10094000E11CF11C81149104A104B10429F7FF906A
:10095000EF90DF90CF90BF90AF909F908F900895D1
:1009600008950F931F93CF93DF93EC0188810E942A
:10097000AF032FB7F8944091370850913808609131
:10098000390870913A082FBF288939892817390703
:1009900031F04A8B5B8B6C8B7D8B998B888B0A89B2
:1009A0001B892C893D89401B510B620B730B0A81FB
:1009B0001B812C813D81401751076207730730F07E
:1009C0002E853F853D872C879F878E872C853D858B
:1009D0008E859F852817390781F04A855B854230CF
:1009E000510581F48E819F81A885B9850196A11D4D
:1009F000B11D8E839F83A887B987DF91CF911F9107
:100A00000F9108954115510531F421303105A9F7B1
:100A1000892B41F3F2CF4130510579F7232B69F748
:100A2000019759F7DFCFFC0184859585019729F45B
:100A300081E026853785232B09F080E00895CF9348
:100A4000DF93EC01862F688379831A821B821C82D4
:100A50001D821E821F82188619861B861A8662E0F6
:100A60000E94060488810E94AF039D878C879F8720
:100A70008E87998B888B1A8A1B8A1C8A1D8ADF9124
:100A8000CF910895089520911308260F3327331F1F
:100A900021323105ECF42091AB08FC0190E080E0BC
:100AA000243069F082E00895A09113082191AC01EF
:100AB0004D50584FA40FB52FB11D2C93019686179A
:100AC00098F380911308680F6093130880E00895ED
:100AD00081E008951092AB0881E08093AA081092FB
:100AE000850861E084E10E94D80361E085E10E940D
:100AF000D803E9EBF0E080818E7F808380818D7F59
:100B0000808388E48093B80085E48093BC000895D6
:100B1000CF93DF9391E09093F2078823B9F0C091CF
:100B2000B800D091BA008091BC008A7B8093BC0051
:100B300060E084E10E94D80360E085E10E94D80370
:100B40000E946A05D093BA00C093B800DF91CF919C
:100B500008958F929F92AF92BF92CF92DF92EF92C1
:100B6000FF920F931F93CF93DF93D091D408D1328C
:100B700008F0D7C0182FC091D3080E9459046B0108
:100B80007C018091AB0881116BC082E08093AB083F
:100B90001093AA088FEF8093A9081092A808D09309
:100BA000A708A3EBB8E0E7E8F8E080E0D81391C02D
:100BB0001092860880918608CC0FC82BC0938608B7
:100BC00080918508813009F088C0109285080E94C4
:100BD00059046B017C01809186088093BB00809151
:100BE000AD089091AE08A091AF08B091B008892BE4
:100BF0008A2B8B2BA1F00E9459040091AD08109113
:100C0000AE082091AF083091B0086C197D098E09AB
:100C10009F09061717072807390708F442C0809173
:100C2000BC0083FDD8CF85EC8093BC000E945904A2
:100C30006B017C018091AB08823009F450C0809137
:100C4000A9088F3F09F46FC08091A908803209F488
:100C50006CC08091A908803309F469C084E026C083
:100C60008091AD089091AE08A091AF08B091B00806
:100C7000892B8A2B8B2B09F484CF0E9459048090F6
:100C8000AD089090AE08A090AF08B090B0086C1975
:100C90007D098E099F0986169706A806B90608F0F1
:100CA00070CF8091AC080E94880585E01092B20850
:100CB0001092D4081092B108DF91CF911F910F913B
:100CC000FF90EF90DF90CF90BF90AF909F908F906C
:100CD00008959D9191938F5F69CF85EEA5CF809107
:100CE000AD089091AE08A091AF08B091B008892BE3
:100CF0008A2B8B2B09F49ECF0E9459040091AD08DA
:100D00001091AE082091AF083091B0086C197D09A0
:100D10008E099F09061717072807390708F08ACF99
:100D2000C0CF81E0C3CF80E0C1CF82E0BFCF83E0FE
:100D3000BDCF0895E091620880916108E81730F412
:100D4000F0E0ED59F74F808190E008958FEF9FEF2D
:100D5000089590916208809161082FEF3FEF9817F6
:100D600048F4E92FF0E0ED59F74F208130E09F5F24
:100D700090936208C901089580916108909162087A
:100D8000891B990B0895CF92DF92EF92FF920F93F8
:100D90001F93CF93DF937C01CB018A012091B1088F
:100DA000222389F0EB016B01C40ED51ECC15DD05A5
:100DB00069F06991D701ED91FC910190F081E02DEE
:100DC000C7011995F3CF642F0E944305C801DF9135
:100DD000CF911F910F91FF90EF90DF90CF900895EA
:100DE000CF93DF931F92CDB7DEB769832091B1080F
:100DF0002223F9F02091D408203258F021E030E08D
:100E0000FC013383228390E080E00F90DF91CF914B
:100E100008958091B208E82FF0E0ED54F74F9981E2
:100E200090838F5F8093B2088093D40881E090E034
:100E3000ECCF61E0CE0101960E944305F7CFFC01A3
:100E4000248131E03093B1082093D3081092B20886
:100E50001092D4088385682B82E799E00E94F006FF
:100E600081E00C94A90590E080E008952F923F92D4
:100E70004F925F926F927F928F929F92AF92BF92AA
:100E8000CF92DF92EF92FF920F931F93CF93DF9356
:100E900000D000D01F92CDB7DEB78C011982A09090
:100EA0008308B0908408D50114968D919C91159774
:100EB000892B09F427C111968D919C9112972C9141
:100EC00031E03093B1082093D3081092B208109209
:100ED000D408DC01ED91FC910280F381E02D41E02A
:100EE00050E0BE016F5F7F4F1995019709F00AC16D
:100EF00080E00E94A905811105C1D12CC12C87E099
:100F0000282E312CF501848195817101EC18FD08A2
:100F10008E159F0508F47C01D5018C900E94590420
:100F20002B013C018091AB08811175C09E2CB0E271
:100F3000BE1510F4B0E29B2EE1E0E093AB0821E097
:100F4000C1018E199F09C816D90608F420E0209324
:100F5000AA08FFEFF093A9081092A8088FEF890D57
:100F60008093A70881E08093860880918608880C8A
:100F7000882A8092860880918508813009F095C082
:100F8000109285080E9459042B013C01809186082B
:100F90008093BB008091AD089091AE08A091AF08FE
:100FA000B091B008892B8A2B8B2BA1F00E94590499
:100FB0002091AD083091AE084091AF085091B00833
:100FC00064197509860997092617370748075907CD
:100FD00008F442C08091BC0083FDD8CFA5ECA0935B
:100FE000BC000E9459042B013C018091AB08813068
:100FF00009F45FC08091A808891510F49090A808A2
:10100000A7E8B8E0E3E6F8E080E0891551F19D91AA
:1010100091938F5FFACF8091AD089091AE08A09127
:10102000AF08B091B008892B8A2B8B2B09F47ACFAB
:101030000E9459042091AD083091AE084091AF084C
:101040005091B00864197509860997092617370762
:101050004807590708F066CF8091AC080E948805C0
:10106000912C10926208909261089E141F0409F05E
:1010700049C088248394912C8C0E9D1E8C0C9D1C41
:101080003401C401861997098E159F05A0F5F50155
:1010900081819281DC01ED91FC910284F385E02D48
:1010A0001995F40181934F01ECCFB5EEB093BC00DC
:1010B00098CF8091AD089091AE08A091AF08B09103
:1010C000B008892B8A2B8B2B09F48FCF0E945904EF
:1010D0002091AD083091AE084091AF085091B00812
:1010E00064197509860997092617370748075907AC
:1010F00008F07BCFB1CFCE0CDF1CF7E0CF16D104C8
:1011000008F400CFE981EF77FA81FB804D815E81A1
:101110008F81282F30E094E0359527959A95E1F757
:10112000922F990F990F291B220F280FD8012C936A
:10113000852F90E024E0959587952A95E1F7982FE3
:10114000990F990F891B880F850F11968C93119712
:10115000642F70E034E0759567953A95E1F7862F36
:10116000880F880F681B660F640F12966C93129796
:101170004F2D50E064E0559547956A95E1F7842F2F
:10118000880F880F481B440F4F0D13964C931397ED
:101190002F2F30E074E0359527957A95E1F7822F6F
:1011A000880F880F281B220F2F0F14962C9314974B
:1011B0008E2F90E0F4E095958795FA95E1F7982FBA
:1011C000990F990F891B880F8E0F15968C93C80164
:1011D00027960FB6F894DEBF0FBECDBFDF91CF913B
:1011E0001F910F91FF90EF90DF90CF90BF90AF9045
:1011F0009F908F907F906F905F904F903F902F9037
:1012000008950F931F93CF938C01C62F0E941F0741
:101210006C2F6460C8010E941F076C2F6B7FC80190
:101220000E941F0783EC90E00197F1F7CF911F9187
:101230000F9108950F931F93CF93DF938C01D62FB7
:10124000C42F607F642B0E94010980E1D89FB00108
:1012500011246C2BC801DF91CF911F910F910C9439
:101260000109CF93DF9300D000D01F921F92CDB71A
:10127000DEB798E0E7E1F2E0DE01119601900D9211
:101280009A95E1F790918609981708F48FEF90E00E
:10129000880F991F21E030E02C0F3D1F820F931F14
:1012A000FC016081606840E08EE799E028960FB607
:1012B000F894DEBF0FBECDBFDF91CF910C941A0919
:1012C00041E00E941A0981E090E008950F931F9376
:1012D000CF93DF93EC0188819981009759F02A819F
:1012E0003B812617370730F081E0DF91CF911F91C6
:1012F0000F9108958B016F5F7F4F0E943E170097FB
:1013000059F0998388831B830A832C813D81232B89
:1013100059F7FC011082E8CF80E0E7CFCF93DF934D
:10132000EC0188819981009711F00E94B51619820D
:1013300018821D821C821B821A82DF91CF91089530
:10134000EF92FF920F931F93CF93DF93EC018617D9
:10135000970781F0FB01008111810115110539F01A
:10136000E480F580B7010E94660981110BC0CE01AF
:101370000E948E09CE01DF91CF911F910F91FF90B6
:10138000EF900895FD82EC82B801888199810E94D6
:101390002818F0CFFC0180819181009711F00C9406
:1013A000B5160895EF92FF920F931F93CF93DF939B
:1013B000EC017B01198218821B821A821D821C8219
:1013C000FB0101900020E9F731978F01061B170BF5
:1013D000B8010E946609811109C0CE01DF91CF9149
:1013E0001F910F91FF90EF900C948E091D830C8339
:1013F000B70188819981DF91CF911F910F91FF9063
:10140000EF900C942818FB0101900020E9F7319728
:10141000AF01461B570BDC01ED91FC910280F3817B
:10142000E02D19948F929F92AF92BF92CF92DF924C
:10143000EF92FF920F931F93CF93DF93CDB7DEB759
:10144000A1970FB6F894DEBF0FBECDBF6C01990F08
:10145000EE08FF08F7FE4BC06DE285ED98E00E94B4
:10146000AA028C0122273327A9012C193D094E0914
:101470005F0919A2CE0181967C019AE0892E912CF8
:10148000A12CB12CCA01B901A50194010E94EF154C
:10149000605DF70162937F0121153105410551051A
:1014A00089F790E080E0309729F0BF0185ED98E062
:1014B0000E94030A080F191F67E376E085ED98E0A4
:1014C0000E94030A800F911FA1960FB6F894DEBF09
:1014D0000FBECDBFDF91CF911F910F91FF90EF9085
:1014E000DF90CF90BF90AF909F908F900895A7010D
:1014F000960119A28E010F5D1F4F8AE0C82ED12CD4
:10150000E12CF12CCA01B901A70196010E94EF1547
:10151000605DF80162938F01211531054105510588
:1015200089F7309739F0BF0185ED98E00E94030AF2
:101530008C01C2CF10E000E0BFCF0F931F93CF9379
:10154000DF93EC010E94030A8C0167E376E0CE0191
:101550000E94030A800F911FDF91CF911F910F917D
:1015600008950C94030A85ED8093BC008091AD082A
:101570009091AE08A091AF08B091B0080796A11D58
:10158000B11D23E0B695A795979587952A95D1F734
:101590002091BC0024FD03C01092AB080895409137
:1015A000AD085091AE086091AF087091B008452B1E
:1015B000462B472B69F30097A105B10541F025E3C0
:1015C0002A95F1F700000197A109B109E1CF8091B7
:1015D000AC080C9488051F920F920FB60F9211243D
:1015E0000BB60F922F933F934F935F936F937F931D
:1015F0008F939F93AF93BF93EF93FF9385ED98E005
:101600000E948802FF91EF91BF91AF919F918F91BE
:101610007F916F915F914F913F912F910F900BBEF2
:101620000F900FBE0F901F9018951F920F920FB63C
:101630000F9211240BB60F922F938F939F93EF93DA
:10164000FF93E091E508F091E6088081E091EB08D6
:10165000F091EC0882FD1DC090818091EE088F5FB3
:101660008F732091EF08821741F0E091EE08F0E0CF
:10167000EB52F74F958F8093EE08FF91EF919F917A
:101680008F912F910F900BBE0F900FBE0F901F9058
:1016900018958081F2CF1F920F920FB60F921124EE
:1016A0002F933F938F939F93AF93BF93809137086E
:1016B00090913808A0913908B0913A0830913608D5
:1016C00023E0230F2D3758F50196A11DB11D20935E
:1016D00036088093370890933808A0933908B09360
:1016E0003A0880913B0890913C08A0913D08B09148
:1016F0003E080196A11DB11D80933B0890933C08C4
:10170000A0933D08B0933E08BF91AF919F918F91F8
:101710003F912F910F900FBE0F901F90189526E8C4
:10172000230F0296A11DB11DD2CF1F920F920FB6AB
:101730000F9211240BB60F922F933F934F935F9309
:101740006F937F938F939F93AF93BF93EF93FF9389
:10175000E0910E02F0910F021995FF91EF91BF9168
:10176000AF919F918F917F916F915F914F913F9139
:101770002F910F900BBE0F900FBE0F901F901895DA
:101780001F920F920FB60F9211240BB60F922F9348
:101790003F934F935F936F937F938F939F93AF93F9
:1017A000BF93EF93FF93E0910C02F0910D02199516
:1017B000FF91EF91BF91AF919F918F917F916F9129
:1017C0005F914F913F912F910F900BBE0F900FBEE5
:1017D0000F901F9018951F920F920FB60F92112421
:1017E0000BB60F922F933F934F935F936F937F931B
:1017F0008F939F93AF93BF93EF93FF93E091020278
:10180000F09103021995FF91EF91BF91AF919F91D4
:101810008F917F916F915F914F913F912F910F9099
:101820000BBE0F900FBE0F901F9018951F920F9236
:101830000FB60F9211240BB60F922F933F934F9335
:101840005F936F937F938F939F93AF93BF93EF9328
:10185000FF93E0910002F09101021995FF91EF9141
:10186000BF91AF919F918F917F916F915F914F91B8
:101870003F912F910F900BBE0F900FBE0F901F90B6
:1018800018951F920F920FB60F9211240BB60F925C
:101890002F933F934F935F936F937F938F939F9378
:1018A000AF93BF93EF93FF93E0910A02F0910B0285
:1018B0001995FF91EF91BF91AF919F918F917F917A
:1018C0006F915F914F913F912F910F900BBE0F90B1
:1018D0000FBE0F901F9018951F920F920FB60F9288
:1018E00011240BB60F922F933F934F935F936F93F7
:1018F0007F938F939F93AF93BF93EF93FF93E09169
:101900000802F09109021995FF91EF91BF91AF91F3
:101910009F918F917F916F915F914F913F912F9107
:101920000F900BBE0F900FBE0F901F9018951F9237
:101930000F920FB60F9211240BB60F922F933F9375
:101940004F935F936F937F938F939F93AF93BF93C7
:10195000EF93FF93E0910602F09107021995FF9132
:10196000EF91BF91AF919F918F917F916F915F9117
:101970004F913F912F910F900BBE0F900FBE0F9084
:101980001F9018951F920F920FB60F9211240BB64D
:101990000F922F933F934F935F936F937F938F9308
:1019A0009F93AF93BF93EF93FF93E0910402F09165
:1019B00005021995FF91EF91BF91AF919F918F9182
:1019C0007F916F915F914F913F912F910F900BBE3F
:1019D0000F900FBE0F901F9018951F920F920FB689
:1019E0000F9211240BB60F922F933F934F935F9357
:1019F0006F937F938F939F93AF93BF93EF93FF93D7
:101A00008091B900887F803609F44DC008F040C04D
:101A1000883209F4A9C028F5803109F49DC0C8F4C2
:101A2000882309F4FBC0883009F496C0FF91EF9138
:101A3000BF91AF919F918F917F916F915F914F91E6
:101A40003F912F910F900BBE0F900FBE0F901F90E4
:101A50001895883109F488C0803241F78093A9082D
:101A600014C0803409F49DC040F48033B9F3883346
:101A7000E9F68093A90885ECB0C0803509F485C0EB
:101A8000883509F496C0883489F60E94B30ACECF0F
:101A9000883909F48CC038F5883729F050F4883635
:101AA00011F0803719F683E08093AB081092350867
:101AB00057C0883809F47BC0803919F0803809F0A4
:101AC000B5CF80913508803208F071C0E0913508BB
:101AD00081E08E0F809335088091BB00F0E0EB5ED3
:101AE000F74F80833DC0803B39F0E0F4803A09F441
:101AF00079C0883A09F09ACF84E08093AB081092BD
:101B0000140810921308E0913F08F09140081995CD
:101B10008091130881110FC081E080931308109207
:101B2000F30709C0803C09F4A6CF883C09F4A3CF91
:101B3000883B09F07BCFE091140881E08E0F809301
:101B40001408F0E0ED50F84F80818093BB00909135
:101B500014088091130829C0809186088093BB00E7
:101B600085EC8093BC0062CF9091A8088091A70873
:101B7000981758F5E091A80881E08E0F8093A80887
:101B8000F0E0E957F74F8081E9CFE091A80881E0C4
:101B90008E0F8093A8088091BB00F0E0E957F74FC3
:101BA00080839091A8088091A7089817C8F285E8CB
:101BB000D8CFE091A80881E08E0F8093A80880918B
:101BC000BB00F0E0E957F74F80838091AA088111AC
:101BD0005CCF81E08093850884EA8093BC001092FA
:101BE000AB0824CF85EC8093BC001092AB088091A9
:101BF0003508803230F4E0913508F0E0EB5EF74FC5
:101C000010826091350870E0E0914108F09142083F
:101C100085E198E019951092350808CF1092A9082F
:101C200034CF1092D8081092D70888EE93E0A0E045
:101C3000B0E08093D9089093DA08A093DB08B093C2
:101C4000DC082BE036E03093D6082093D50825EC4D
:101C500030E03093E2082093E10824EC30E0309348
:101C6000E4082093E30820EC30E03093E60820936A
:101C7000E50821EC30E03093E8082093E70822ECF7
:101C800030E03093EA082093E90826EC30E0309306
:101C9000EC082093EB081092EE081092EF081092D7
:101CA000F0081092F108109275091092740980934F
:101CB000760990937709A0937809B09379098DE11B
:101CC00096E0909373098093720963E070E080E975
:101CD0009AE00E941F0564E070E08AE79AE00E94A3
:101CE0001F0565E070E084E69AE00E941F0566E04B
:101CF00070E08EE49AE00E941F0567E070E088E3E0
:101D00009AE00E941F0568E070E082E29AE00E947B
:101D10001F0569E070E08CE09AE00E941F056AE010
:101D200070E086EF99E00E941F0569E376E080EF9E
:101D300099E00E94D20969E376E08AEE99E00E9478
:101D4000D2091092E9091092E8091092E70910925D
:101D5000E409E0EAF2E081E08C3051F094918230C5
:101D600009F49F5F21E0280F3196992309F475C08B
:101D70008093E50981E08093E6096AE376E08CECE4
:101D800099E00E94D20960E476E082ED99E00E9439
:101D9000D2096FE077E088ED99E00E94D2096CE209
:101DA00077E08EED99E00E94D20965E476E082EA60
:101DB00099E00E94D2096CE476E088EA99E00E94FA
:101DC000D20963E576E08EEA99E00E94D2096BE5DC
:101DD00076E084EB99E00E94D20965E676E08AEB32
:101DE00099E00E94D2096EE676E080EC99E00E94CC
:101DF000D20965E776E086EC99E00E94D2096EE7A9
:101E000076E08AE899E00E94D20963E876E080E90A
:101E100099E00E94D20969E876E086E999E00E949B
:101E2000D2096FE876E08CE999E00E94D20910921D
:101E30008109109280098FE296E090937F09809348
:101E40007E0980E28093820980E18093870982E0A5
:101E500080938809109289090895822F7DCFCF93AE
:101E6000DF9300D000D0CDB7DEB7789484B5826020
:101E700084BD84B5816084BD85B5826085BD85B52E
:101E8000816085BD80916E00816080936E001092AC
:101E90008100809181008260809381008091810027
:101EA00081608093810080918000816080938000B8
:101EB0008091B10084608093B1008091B000816016
:101EC0008093B00080919100826080939100809116
:101ED0009100816080939100809190008160809357
:101EE00090008091A10082608093A1008091A10068
:101EF00081608093A1008091A00081608093A00008
:101F00008091210182608093210180912101816073
:101F10008093210180912001816080932001809134
:101F20007A00846080937A0080917A008260809346
:101F30007A0080917A00816080937A0080917A00A3
:101F4000806880937A001092C100E091E508F091DA
:101F5000E60882E08083E091E108F091E2081082D7
:101F6000E091E308F091E4088FEC80831092ED0893
:101F7000E091E908F091EA0886E08083E091E708C3
:101F8000F091E808808180618083E091E708F0911A
:101F9000E808808188608083E091E708F091E80894
:101FA000808180688083E091E708F091E808808173
:101FB0008F7D808310926208109261081092B2089F
:101FC0001092D4080E946A05B9E0EB2EB2E0FB2E15
:101FD000F0924008E0923F080AE012E010934208B5
:101FE0000093410860E082E00E94060460E086E31E
:101FF0000E94060460E087E30E94060461E08CE032
:102000000E94060461E08CE00E94D80382E390E025
:10201000A0E0B0E08093920A9093930AA093940A70
:10202000B093950A80937C0A90937D0AA0937E0AD0
:10203000B0937F0A8093660A9093670AA093680A18
:10204000B093690A8093500A9093510AA093520A60
:10205000B093530A80933A0A90933B0AA0933C0AA8
:10206000B0933D0A8093240A9093250AA093260AF0
:10207000B093270A80930E0A90930F0AA093100A38
:10208000B093110A8093F8099093F909A093FA0983
:10209000B093FB0985EF91E09093010280930002D9
:1020A00080916A00836080936A00EC9A10926208C3
:1020B000109261081092B2081092D4080E946A052A
:1020C000F0924008E0923F081093420800934108C4
:1020D0001092830980918809823018F098E09093DB
:1020E00083098093860962E370E080E090E00E94BB
:1020F0007E04609189098EE799E00E941F0768EECF
:1021000073E080E090E00E947E0460E38EE799E057
:102110000E9401090BE416E4C8010197F1F760E39E
:102120008EE799E00E940109C8010197F1F760E389
:102130008EE799E00E94010983E592E00197F1F7AB
:1021400060E28EE799E00E94010960918309606274
:1021500040E08EE799E00E941A0984E080938409A8
:1021600040E06CE08EE799E00E941A0940E061E0EF
:102170008EE799E00E941A090BE31FE1C80101975D
:10218000F1F782E08093850940E066E08EE799E010
:102190000E941A0940E062E08EE799E00E941A0965
:1021A000C8010197F1F788E08093890960E08EE724
:1021B00099E00E941F0780E00E94310965E976E0FE
:1021C0008EE799E00E94B10A81E00E94310967EA36
:1021D00076E08EE799E00E94B10A60ED77E080E05A
:1021E00090E00E947E0440E061E08EE799E00E946A
:1021F0001A09C8010197F1F768EB76E085ED98E0E0
:102200000E949D0ACE0101960E94360786E0FE01DB
:102210003196A4EEB9E001900D928A95E1F70E9403
:102220008B0160935D0870935E0880935F089093C4
:102230006008E3E04E2E512C612C712C11E006E079
:10224000F2E02F2E312CCC24C394D12CCE01019658
:102250000E94360786E0FE013196A4EEB9E00190B7
:102260000D928A95E1F70E948B0180905D08909015
:102270005E08A0905F08B0906008681979098A0923
:102280009B09A30192010E94EF15490130935C085C
:1022900020935B0880E99AE00E94B1048AE79AE003
:1022A0000E94B10484E69AE00E94B1048EE49AE0B0
:1022B0000E94B10488E39AE00E94B10482E29AE0AD
:1022C0000E94B1048CE09AE00E94B10486EF99E08C
:1022D0000E94B10486E30E9442047C0187E30E94CD
:1022E00042048E0D9F1D97FD0196959587959093BD
:1022F0005A08809359088091570890915808881A75
:10230000990A22E082169104A4F064EC76E085ED4F
:1023100098E00E94B10A80915B0890915C080E944D
:10232000120A80915B0890915C0890935808809302
:1023300057088091590890915A088130944008F4C8
:10234000BAC210931002809156088111ABC00E944E
:10235000310968EB76E08EE799E00E949D0A80E9FA
:102360009AE00E941305882309F1109356086CEC3B
:1023700079E080EF99E00E94A0096AEC76E085EDB3
:1023800098E00E949D0A80E00E94310968ED76E0A5
:102390008EE799E00E949D0A109255081092540809
:1023A00065EE76E085ED98E00E949D0A8AE79AE066
:1023B0000E941305882309F11093560862ED79E015
:1023C00080EF99E00E94A00961EF76E085ED98E04A
:1023D0000E949D0A80E00E9431096BEF76E08EE753
:1023E00099E00E949D0AD0925508C092540865EE6B
:1023F00076E085ED98E00E949D0A84E69AE00E94CE
:102400001305882309F11093560868ED79E080EFF1
:1024100099E00E94A00967E077E085ED98E00E94CE
:102420009D0A80E00E94310966E177E08EE799E03D
:102430000E949D0A309255082092540865EE76E07D
:1024400085ED98E00E949D0A8EE49AE00E941305B3
:10245000882319F11093560868ED79E080EF99E030
:102460000E94A00964E277E085ED98E00E949D0A51
:1024700080E00E94310962E377E08EE799E00E94F4
:102480009D0A43E050E0509355084093540865EE90
:1024900076E085ED98E00E949D0A80915608882399
:1024A00009F413C18091530881110FC181E00E948A
:1024B000310965EE76E08EE799E00E94B10A88E383
:1024C0009AE00E9413058823D9F1109353086AE813
:1024D00079E08AEE99E00E94A00981E00E9431092A
:1024E00063E477E085ED98E00E949D0A6BE577E074
:1024F0008EE799E00E94B10A10925208109251089A
:1025000080E00E9431098091540890915508089FFD
:10251000B001099F700D11246453764F1A821982FD
:102520001C821B821E821D82CE0101960E94A00980
:10253000CE0101960E943802CE0101960E94CA097E
:1025400082E29AE00E9413058823D9F11093530880
:1025500060E979E08AEE99E00E94A00981E00E949A
:1025600031096BE677E085ED98E00E949D0A62E80C
:1025700077E08EE799E00E94B10AD0925208C092AB
:10258000510880E00E9431098091540890915508CB
:10259000089FB001099F700D11246453764F1A8271
:1025A00019821C821B821E821D82CE0101960E940E
:1025B000A009CE0101960E943802CE0101960E9428
:1025C000CA098CE09AE00E9413058823D9F1109380
:1025D000530866E979E08AEE99E00E94A00981E05B
:1025E0000E94310961E977E085ED98E00E949D0A3B
:1025F0006EEA77E08EE799E00E94B10A30925208C5
:102600002092510880E00E943109809154089091F5
:102610005508089FB001099F700D11246453764F2F
:102620001A8219821C821B821E821D82CE01019693
:102630000E94A009CE0101960E943802CE010196A7
:102640000E94CA0986EF99E00E9413058823E9F1E8
:10265000109353086CE979E08AEE99E00E94A00992
:1026600081E00E9431096EEB77E085ED98E00E94F1
:102670009D0A67E877E08EE799E00E94B10A83E05F
:1026800090E0909352088093510880E00E943109B5
:102690008091540890915508089FB001099F700DD2
:1026A00011246453764F1A8219821C821B821E8267
:1026B0001D82CE0101960E94A009CE0101960E94C2
:1026C0003802CE0101960E94CA09E0905408F090A9
:1026D0005508A0905108B0905208F701EE0FFF1F67
:1026E000EE0FFF1FEA0DFB1DEE0FFF1FE152FA4F29
:1026F000208131818091590890915A08F701EE0F9D
:10270000FF1FE150FA4F40815181481759072CF4BF
:102710004091100260E0442341F08217930744F493
:1027200080911002811104C061E08CE00E94D80306
:10273000209153082223B1F180915608882391F10A
:1027400080914F08909150083FE03A9DF0013B9DE9
:10275000F00D11243CE33E9DA0013F9D500D11243E
:10276000E40FF51FE80FF91FEE0FFF1FE150FC4FBC
:102770006081718140915B0850915C086417750716
:1027800089F401969093500880934F0810924E0858
:1027900010924D081092490810924A0810924B0866
:1027A00010924C084FE04A9DF0014B9DF00D112412
:1027B0005CE35E9DC0015F9D900D1124E80FF91F41
:1027C00080914F0890915008E80FF91FEE0FFF1FFE
:1027D000E15EFD4F80819181909348088093470886
:1027E0002223D1F1809156088823B1F180915B08B2
:1027F00090915C082091450830914608AC01421B3D
:10280000530B4330510544F190934608809345089B
:1028100061ED77E085ED98E00E94B10A80914F0864
:10282000909150080E94120A6BED77E085ED98E0D8
:102830000E94B10A80914708909148080E94120AAC
:102840006AEE77E085ED98E00E94B10A8091430836
:10285000909144080E94120A6091490870914A08B8
:1028600080914B0890914C080E94A61420E030E023
:1028700040E250E40E94E1140E94B9159B0170935C
:1028800044086093430880914708909148082817AE
:102890003907A4F480911002882351F080914D08EB
:1028A00090914E08892B21F460E08CE00E94D803BF
:1028B0000E941703CBCC1092100245CD82179307CC
:1028C000BCF780911002882399F361E08CE00E94AC
:1028D000D803D0924E08C0924D08EACFCF93DF9331
:1028E0008CE999E00E94CA0986E999E00E94CA0928
:1028F00080E999E00E94CA098AE899E00E94CA0921
:10290000CCECD9E02697CE010E94CA0989E0C23AF0
:10291000D807C1F78EED99E00E94CA0988ED99E0C9
:102920000E94CA0982ED99E00E94CA098CEC99E0E4
:102930000E94CA098AEE99E00E94CA0980EF99E0D4
:10294000DF91CF910C94CA09E89409C097FB3EF43B
:1029500090958095709561957F4F8F4F9F4F9923EC
:10296000A9F0F92F96E9BB279395F695879577956A
:102970006795B795F111F8CFFAF4BB0F11F460FF2A
:102980001BC06F5F7F4F8F4F9F4F16C0882311F082
:1029900096E911C0772321F09EE8872F762F05C096
:1029A000662371F096E8862F70E060E02AF09A9531
:1029B000660F771F881FDAF7880F9695879597F926
:1029C00008950E94F4140C9465150E94571538F070
:1029D0000E945E1520F0952311F00C944E150C9476
:1029E000541511240C9499150E94761570F3959F37
:1029F000C1F3950F50E0551F629FF001729FBB27F6
:102A0000F00DB11D639FAA27F00DB11DAA1F649F91
:102A10006627B00DA11D661F829F2227B00DA11D44
:102A2000621F739FB00DA11D621F839FA00D611DCA
:102A3000221F749F3327A00D611D231F849F600DEB
:102A4000211D822F762F6A2F11249F5750409AF014
:102A5000F1F088234AF0EE0FFF1FBB1F661F771FA0
:102A6000881F91505040A9F79E3F510580F00C946B
:102A70004E150C9499155F3FE4F3983ED4F3869578
:102A800077956795B795F795E7959F5FC1F7FE2B0B
:102A9000880F911D9695879597F9089597F99F67E7
:102AA00080E870E060E008959FEF80EC08950024D6
:102AB0000A941616170618060906089500240A94A3
:102AC00012161306140605060895092E0394000C29
:102AD00011F4882352F0BB0F40F4BF2B11F460FFB8
:102AE00004C06F5F7F4F8F4F9F4F089557FD9058E1
:102AF000440F551F59F05F3F71F04795880F97FBC2
:102B0000991F61F09F3F79F087950895121613067B
:102B10001406551FF2CF4695F1DF08C016161706AA
:102B20001806991FF1CF86957105610508940895DF
:102B3000E894BB2766277727CB0197F908950E9471
:102B4000AA15A59F900DB49F900DA49F800D911D77
:102B500011240895A29FB001B39FC001A39F700DDF
:102B6000811D1124911DB29F700D811D1124911D95
:102B700008950E94C0156894B1110C949915089598
:102B80000E947E1588F09F5798F0B92F9927B7516A
:102B9000B0F0E1F0660F771F881F991F1AF0BA9501
:102BA000C9F714C0B13091F00E949815B1E00895B2
:102BB0000C949815672F782F8827B85F39F0B93FA4
:102BC000CCF3869577956795B395D9F73EF49095B4
:102BD0008095709561957F4F8F4F9F4F0895A1E22B
:102BE0001A2EAA1BBB1BFD010DC0AA1FBB1FEE1F87
:102BF000FF1FA217B307E407F50720F0A21BB30BD2
:102C0000E40BF50B661F771F881F991F1A9469F74D
:102C100060957095809590959B01AC01BD01CF01A9
:102C20000895EE0FFF1F881F8BBF0790F691E02DD0
:102C300019940F931F93CF93DF938230910510F473
:102C400082E090E0E091A80AF091A90A30E020E04B
:102C5000B0E0A0E0309799F42115310509F44AC09D
:102C6000281B390B24303105D8F58A819B816115E9
:102C7000710589F1FB0193838283FE0111C04081BC
:102C800051810281138148175907E0F0481759070D
:102C900099F4109761F012960C93129713961C9367
:102CA0003296CF01DF91CF911F910F91089500933C
:102CB000A80A1093A90AF4CF2115310551F0421743
:102CC000530738F0A901DB019A01BD01DF01F801CA
:102CD000C1CFEF01F9CF9093A90A8093A80ACDCF75
:102CE000FE01E20FF31F8193919322503109398342
:102CF0002883D7CF2091A60A3091A70A232B41F42D
:102D000020911302309114023093A70A2093A60A4F
:102D100020911102309112022115310541F42DB795
:102D20003EB74091150250911602241B350BE091DD
:102D3000A60AF091A70AE217F307A0F42E1B3F0B97
:102D40002817390778F0AC014E5F5F4F241735071D
:102D500048F04E0F5F1F5093A70A4093A60A819335
:102D600091939FCFF0E0E0E09CCFCF93DF9300976B
:102D7000E9F0FC01329713821282A091A80AB09167
:102D8000A90AED0130E020E01097A1F42081318103
:102D9000820F931F2091A60A3091A70A281739079E
:102DA00009F061C0F093A70AE093A60ADF91CF91E2
:102DB0000895EA01CE17DF07E8F54A815B819E019D
:102DC00041155105B1F7E901FB83EA834991599116
:102DD000C40FD51FEC17FD0761F480819181029625
:102DE000840F951FE90199838883828193819B8356
:102DF0008A83F0E0E0E012968D919C911397009702
:102E0000B9F52D913C911197CD010296820F931F38
:102E10002091A60A3091A70A2817390739F630976A
:102E200051F51092A90A1092A80AB093A70AA0938C
:102E3000A60ABCCFD383C28340815181840F951FE2
:102E4000C817D90761F44E5F5F4F88819981480F99
:102E5000591F518340838A819B81938382832115EB
:102E6000310509F0B0CFF093A90AE093A80A9ECFEC
:102E7000FD01DC01C0CF13821282D7CF4F925F9247
:102E80006F927F928F929F92AF92BF92CF92DF927A
:102E9000EF92FF920F931F93CF93DF938C010097D4
:102EA00099F4CB01DF91CF911F910F91FF90EF909B
:102EB000DF90CF90BF90AF909F908F907F906F905A
:102EC0005F904F900C941916FC01E60FF71F9C01C0
:102ED00022503109E217F30708F4AEC0D901CD91B1
:102EE000DC911197C617D70720F1C530D10578F0CE
:102EF000CE0104978617970750F0C61BD70B229771
:102F0000C193D1936D937C93CF010E94B516C801F4
:102F1000DF91CF911F910F91FF90EF90DF90CF90B5
:102F2000BF90AF909F908F907F906F905F904F90E9
:102F300008955B01AC1ABD0A4C018C0E9D1EA09138
:102F4000A80AB091A90A512C412CF12CE12C109720
:102F500031F58091A60A9091A70A8815990509F084
:102F60005CC04616570608F058C080911102909137
:102F70001202009741F48DB79EB74091150250910F
:102F80001602841B950BE817F90708F055C0F0935B
:102F9000A70AE093A60AF90171836083B8CF8D91E7
:102FA0009C91119712966C90129713967C901397A0
:102FB000A815B90559F56C0142E0C40ED11CCA141C
:102FC000DB0420F1AC014A195B09DA01129615976E
:102FD00080F06282738251834083D9016D937C9328
:102FE000E114F10471F0D7011396FC93EE9312975C
:102FF0008ECF22968C0F9D1FF90191838083F30160
:10300000EFCFF093A90AE093A80A81CF481659069A
:1030100008F42C017D01D3019ACFCB010E9419162F
:103020007C01009749F0AE01B8010E941F18C80149
:103030000E94B51687016BCF10E000E068CFFB015E
:10304000DC0102C001900D9241505040D8F7089524
:10305000FB01DC0101900D920020E1F7089511E0E1
:10306000C7E5D1E000E006C0802FFE010E941116E6
:103070002196011DC835D10780E00807A9F7F8940B
:10308000FFCFB004B004B004B004B004B004B00486
:10309000B004010000AA0A8000000040001400549F
:1030A000002A003C006F008B009E00AD00AF00AF17
:1030B00000AF00AF00000000000000000000004F63
:1030C00000BA00EC0007010C01070100000000003D
:1030D000000000000000000000000000000D0015CE
:1030E000003E006B0085009700A800B700C300D029
:1030F00000DD00000000000000000013003B007530
:10310000009400B300BE00E00000000000000000DA
:1031100000000000000000000011001C002700401B
:10312000005E005E005E0000000000000000000085
:103130000000000000000024004A008E008E000005
:10314000000000000000000000000000000000007F
:1031500000000000000E0016001E002C0049005464
:1031600000540054000000000000000000000000B7
:1031700000000017002800460073007300000000E4
:10318000000000000000000000000000000000003F
:1031900000AC00AC00AC00AC00AC00AC0000000027
:1031A000000000000000000000000000000000001F
:1031B000010001000100010000000000000000000B
:1031C00000000000000000000000000000980098CF
:1031D0000098009800980000000000000000000027
:1031E0000000000000000000000000D000D000D06F
:1031F00000D00000000000000000000000000000FF
:10320000000000000000000000C200C200C200C2B6
:1032100000C200C200C200C200C200C20000000022
:1032200000000000000000250125012501250125E1
:103230000125012501000000000000000000000041
:103240000000000000AE00AE00AE00AE00AE00AE6A
:1032500000AE00AE00AE00AE00AE00000000000008
:10326000000000ED00ED00ED00ED00ED00ED00EDE3
:1032700000ED000000000000000000000000000061
:10328000000F0025003300490061008100B900C72C
:1032900000D400E500000000000000000000001B5A
:1032A000006F009600BB00C700DC000000000000BB
:1032B000000000000000000000000000000D0015EC
:1032C000003E006B0085009700A800B700C300D047
:1032D00000DD00000000000000000013003B00754E
:1032E000009400B300BE00E00000000000000000F9
:1032F00000000000000000000005000B0012001F8D
:10330000003C0060007300000000000000000000AE
:1033100000000000000000090018003F006A0000E3
:10332000000000000000000000000000000000009D
:103330000000000000040009000F0018002C004FDE
:1033400000630074000000000000000000000000A6
:1033500000000006000E001D003E0064000000009A
:10336000000000000000000000000000000000005D
:10337000005F007E009400A8006100BF0000000014
:1033800000000000000000000000000000000070CD
:10339000009400A800B3000000000000000000003E
:1033A000000000000000000000000000005B00774B
:1033B000008C009F00B20000000000000000000030
:1033C000000000000000000000000067008900A16C
:1033D00000BC000000000000000000000000000031
:1033E000000000000000000000620083009900ABB4
:1033F00000BC00CA00D700E400FD0051010000003D
:103400000000000000000074009900B400CA00DF52
:1034100000E0006B01000000000000000000000060
:1034200000000000005F007E009300A400B300B71E
:1034300000CD00DA00E500F3004D010000000000BF
:103440000000006B008F00A500BA00CB00DC00EE8E
:10345000005C01000000000000000000000000000F
:1034600000DC004A0140013601DC004A014001361F
:1034700001DC004A0140013601DC00DC004001367D
:103480000126029E028A028A0200000000AA020BA4
:10349000024102F70272025002640200000000F0D2
:1034A00006C30633079906BC06A9069A0600000063
:1034B0000060090B02330742050D0A007768656159
:1034C0007400726963650053756E646179004D6FB5
:1034D0006E64617900547565736461790057656441
:1034E0006E65736461790054687572736461790004
:1034F0004672696461790053617475726461790020
:10350000534C53310053544C53320053434C5333B8
:10351000004C5330303400202020202057454C43AD
:103520004F4D45202020202000534D41525420492A
:10353000525249474154494F4E0053454C4543541C
:103540002043524F50004441593A200063726F703B
:103550002069732057484541540043524F50203A48
:103560002057484541540053454C45435420534F40
:10357000494C00524943452043524F500043524F5B
:1035800050203A20524943450063726F702069739E
:1035900020636F74746F6E0043524F50203A204383
:1035A0004F54544F4E0063726F70206973207375CF
:1035B0006761720043524F503A20535547415220A1
:1035C00043414E4500534F494C2069732073616E4F
:1035D0006479206C6F616D20736F696C0053414E8C
:1035E00044595F4C4F414D5F534F494C00534F4935
:1035F0004C2069732053494C54206C6F616D2073CB
:103600006F696C0053494C545F4C4F414D5F534FB1
:10361000494C00534F494C2069732073616E6479A3
:1036200020636C6179206C6F616D20736F696C0031
:1036300053414E44595F434C41595F534F494C00ED
:10364000534F494C20697320206C6F616D20736F5C
:10365000696C0064617920696E64657800776174D3
:1036600065725F6C6576656C5F746800564F4C558B
:043670004D450000C4
:020000040003F7
:10E000000D9489F10D94B2F10D94B2F10D94B2F129
:10E010000D94B2F10D94B2F10D94B2F10D94B2F1F0
:10E020000D94B2F10D94B2F10D94B2F10D94B2F1E0
:10E030000D94B2F10D94B2F10D94B2F10D94B2F1D0
:10E040000D94B2F10D94B2F10D94B2F10D94B2F1C0
:10E050000D94B2F10D94B2F10D94B2F10D94B2F1B0
:10E060000D94B2F10D94B2F10D94B2F10D94B2F1A0
:10E070000D94B2F10D94B2F10D94B2F10D94B2F190
:10E080000D94B2F10D94B2F10D94B2F10D94B2F180
:10E090000D94B2F10D94B2F10D94B2F10D94B2F170
:10E0A0000D94B2F10D94B2F10D94B2F10D94B2F160
:10E0B0000D94B2F10D94B2F10D94B2F10D94B2F150
:10E0C0000D94B2F10D94B2F10D94B2F10D94B2F140
:10E0D0000D94B2F10D94B2F10D94B2F10D94B2F130
:10E0E0000D94B2F141546D656761323536300041AF
:10E0F000726475696E6F206578706C6F72657220DE
:10E1000073746B3530305632206279204D4C530099
:10E11000426F6F746C6F616465723E004875683F52
:10E1200000436F6D70696C6564206F6E203D200048
:10E130004350552054797065202020203D20005FF9
:10E140005F4156525F415243485F5F3D2000415658
:10E1500052204C696243205665723D20004743437C
:10E160002056657273696F6E203D20004350552024
:10E1700049442020202020203D20004C6F7720663D
:10E18000757365202020203D20004869676820665F
:10E190007573652020203D200045787420667573D6
:10E1A00065202020203D20004C6F636B2066757336
:10E1B000652020203D20004D617220203720323024
:10E1C000313300312E362E3800342E332E350056A2
:10E1D00023202020414444522020206F7020636F70
:10E1E00064652020202020696E73747275637469E1
:10E1F0006F6E2061646472202020496E74657272B3
:10E20000757074006E6F20766563746F7200726A49
:10E210006D702020006A6D70200057686174207056
:10E220006F72743A00506F7274206E6F7420737541
:10E2300070706F72746564004D7573742062652030
:10E2400061206C6574746572002000577269747483
:10E25000696E672045450052656164696E672045B7
:10E26000450045452065727220636E743D00504F35
:10E27000525400303D5A65726F2061646472003FF1
:10E280003D43505520737461747300403D454550C3
:10E29000524F4D207465737400423D426C696E6B41
:10E2A000204C454400453D44756D70204545505215
:10E2B0004F4D00463D44756D7020464C415348001B
:10E2C000483D48656C70004C3D4C69737420492F83
:10E2D0004F20506F72747300513D51756974005234
:10E2E0003D44756D702052414D00563D73686F7707
:10E2F00020696E7465727275707420566563746FF0
:10E30000727300593D506F727420626C696E6B00BD
:10E310002A0011241FBECFEFD1E2DEBFCDBF01E046
:10E320000CBF12E0A0E0B2E0EEE1FDEF03E00BBFB6
:10E3300002C007900D92A030B107D9F712E0A0E01B
:10E34000B2E001C01D92AE30B107E1F70F9460F367
:10E350000D948DFE01E20EBF0FEF0DBF11241FBE05
:10E360000D9460F30D9400F020E030E040ED57E0B4
:10E3700005C0FA013197F1F72F5F3F4F2817390792
:10E38000C0F308959C01260F311DC901A0E0B0E043
:10E390002F5F3F4FABBFFC018791882361F08093D3
:10E3A000C6008091C00086FFFCCF8091C0008064D1
:10E3B0008093C000EACF08958DE08093C6008091DD
:10E3C000C00086FFFCCF8091C00080648093C000B5
:10E3D0008AE08093C6008091C00086FFFCCF8091C8
:10E3E000C00080648093C00008950F94C2F10F9420
:10E3F000DCF10895FC019081992359F09093C600B7
:10E400008091C00086FFFCCF8091C0008064809323
:10E41000C0003196992379F70895282F982F929567
:10E420009F70892F805D8A3308F0895F8093C600D2
:10E430008091C00086FFFCCF8091C00080648093F3
:10E44000C000822F8F70982F905D9A3308F0995FEB
:10E450009093C6008091C00086FFFCCF8091C000E1
:10E4600080648093C00008959C01FB01853691056E
:10E470001CF46330710594F0C90164E670E00F94F8
:10E480002EFE605D7F4F6093C6008091C00086FFC6
:10E49000FCCF8091C00080648093C0002B30310598
:10E4A00014F43297B4F0C90164E670E00F942EFEC4
:10E4B0006AE070E00F942EFE605D7F4F6093C600AF
:10E4C0008091C00086FFFCCF8091C0008064809363
:10E4D000C000C9016AE070E00F942EFEC0968093E0
:10E4E000C6008091C00086FFFCCF8091C000806490
:10E4F0008093C00008951F93182F8EE692EE60E07F
:10E500000F94C2F11093C6008091C00086FFFCCF2B
:10E510008091C00080648093C0000F94DCF11F9153
:10E5200008952F923F924F925F926F927F928F92B7
:10E530009F92AF92BF92CF92DF92EF92FF920F9392
:10E540001F93DF93CF93CDB7DEB762970FB6F894E2
:10E55000DEBF0FBECDBF382E622ECA01DB015C01CB
:10E560006D01772420E2222E2E010894411C511CBB
:10E570008BC081E0A81680E0B80681E0C80680E084
:10E58000D80628F0C601AA27BB270F940DF2BB2797
:10E59000AD2D9C2D8B2D0F940DF28A2D0F940DF225
:10E5A0002092C6008091C00086FFFCCF8091C00001
:10E5B00080648093C0009DE29093C6008091C0006B
:10E5C00086FFFCCF8091C00080648093C0002092C1
:10E5D000C6008091C00086FFFCCF8091C00080649F
:10E5E0008093C00019828601750188249924A1E0D6
:10E5F0003A1651F03A1620F0B2E03B1661F409C029
:10E600000BBFF701779007C0C7010F9477FE782EF4
:10E6100002C0F7017080872D0F940DF22092C60082
:10E620008091C00086FFFCCF8091C0008064809301
:10E63000C000872D8052F401EF70F0708F3520F408
:10E64000E40DF51D708204C0E40DF51D8EE280839B
:10E650000894E11CF11C011D111D0894811C911CE2
:10E6600090E18916910409F0C2CF80E190E0A0E02A
:10E67000B0E0A80EB91ECA1EDB1E198AC2010F9493
:10E68000FAF10F94DCF16A94662009F072CF629679
:10E690000FB6F894DEBF0FBECDBFCF91DF911F91B3
:10E6A0000F91FF90EF90DF90CF90BF90AF909F9031
:10E6B0008F907F906F905F904F903F902F90089534
:10E6C0002F923F924F925F926F927F928F929F9282
:10E6D000AF92BF92CF92DF92EF92FF920F931F9370
:10E6E000DF93CF93CDB7DEB7CD53D1400FB6F894BB
:10E6F000DEBF0FBECDBF01E20EBF0FEF0DBF94B75F
:10E70000F894A89514BE80916000886180936000A1
:10E7100010926000789493FF05C0E0910002F091A0
:10E7200001021995279A2F9A8091C00082608093E8
:10E73000C00080E18093C40088E18093C1000000A4
:10E74000EE24FF24870144E0A42EB12CCC24DD2448
:10E7500024C0C5010197F1F70894E11CF11C011DCB
:10E76000111D21E2E2162EE4F20620E0020720E06D
:10E77000120718F031E0C32ED12CC801B70127ECE5
:10E780003BE140E050E00F9441FE611571058105C9
:10E79000910519F485B1805885B98091C00087FD35
:10E7A00003C0C114D104A9F2A6014F5F5F4FC25E3E
:10E7B000DE4F59834883CE51D140C25EDE4F8881FF
:10E7C0009981CE51D140019711F00D9410FEC05D9A
:10E7D000DE4F19821882C053D14060E0C15DDE4F28
:10E7E0001882CF52D14088249924C35DDE4F19820C
:10E7F0001882CD52D140C05EDE4F188219821A8233
:10E800001B82C052D140CE5CDE4F188219821A8220
:10E810001B82C253D140EE24FF2487010BBFF701B6
:10E8200007911691C45CDE4F19830883CC53D14005
:10E830000D940BFEC25EDE4F28813981CE51D1404E
:10E840002130310509F52091C600C25EDE4F1982E4
:10E850001882CE51D14022C02F5F3F4F4F4F5F4FA4
:10E86000213082E138078AE7480780E0580780F0C6
:10E87000C45CDE4FE881F981CC53D140EF5FFF4F9C
:10E8800019F0EE27FF27099420E030E040E050E047
:10E890008091C00087FFE0CF2091C600C35DDE4FAE
:10E8A00048815981CD52D1404F5F5F4FC35DDE4FEC
:10E8B00059834883CD52D140213209F063C64A3092
:10E8C000510508F05FC60894811C911C53E0851621
:10E8D000910409F059C600E010E018C081E280936D
:10E8E000C6008091C00086FFFCCF8091C00080648C
:10E8F0008093C0002F5F3F4F2931310579F70F9486
:10E90000DCF10F5F1F4F0530110519F020E030E0FA
:10E91000E5CF10920A0210920B0210920C02109294
:10E920000D02109206021092070210920802109235
:10E930000902109202021092030210920402109235
:10E9400005028FEE90EE60E00F94F5F180E191EE1C
:10E9500060E00F94C2F18091C00087FFFCCF9091DE
:10E96000C600903608F09F759032B8F09093C600BC
:10E970008091C00086FFFCCF8091C00080648093AE
:10E98000C000A0E2A093C6008091C00086FFFCCF2B
:10E990008091C00080648093C000983409F4D7C18E
:10E9A0009934B8F4923409F459C1933458F490333B
:10E9B00019F1903308F4E3C59F33A1F1903409F0C5
:10E9C000DEC5BDC0953409F470C1963409F0D7C5D1
:10E9D00098C1923509F42BC2933538F49C3409F46C
:10E9E000F5C1913509F0CBC518C2963509F445C279
:10E9F000993509F0C4C567C483E792EE62E00F94CD
:10EA0000F5F110920602109207021092080210927D
:10EA1000090210920A0210920B0210920C0210923C
:10EA20000D0213C18FE792EE62E00F94F5F18FEEC5
:10EA300090EE60E00F94F5F181E291EE60E00F94CA
:10EA4000C2F187EB91EE60E00F94F5F180E391EE77
:10EA500060E00F94C2F184EE90EE60E00F94F5F167
:10EA60008FE391EE60E00F94C2F186E090E061E008
:10EA700070E00F9434F20F94DCF18DE591EE60E0DC
:10EA80000F94C2F189EC91EE60E00F94F5F18EE401
:10EA900091EE60E00F94C2F183EC91EE60E00F9490
:10EAA000F5F18CE691EE60E00F94C2F18EE10F94E7
:10EAB0000DF288E90F940DF281E00F940DF20F949E
:10EAC000DCF18BE791EE60E00F94C2F119E0E0E039
:10EAD000F0E010935700E4918E2F0F940DF20F94F5
:10EAE000DCF18AE891EE60E00F94C2F1E3E0F0E03F
:10EAF00010935700E4918E2F0F940DF20F94DCF1D8
:10EB000089E991EE60E00F94C2F1E2E0F0E0109349
:10EB10005700E4918E2F0F940DF20F94DCF188EAE8
:10EB200091EE60E00F94C2F1E1E0F0E01093570045
:10EB30001491812F0F940DF20F94DCF107CF8BE825
:10EB400092EE62E00F94F5F18BE492EE60E00F94A8
:10EB5000F5F10F94DCF100E010E019C0C8016F2D51
:10EB60000F947FFEFF2031F489E492EE60E00F9471
:10EB7000C2F10BC0F092C6008091C00086FFFCCFAE
:10EB80008091C00080648093C0000F5F1F4FC80158
:10EB900081519F41A0E0B0E0ABBFFC01F790BAE229
:10EBA000FB1621F0E2E000301E07C1F60F94DCF105
:10EBB0000F94DCF187E592EE60E00F94F5F10F948D
:10EBC000DCF1CC24DD2400E010E01EC0C8010F946D
:10EBD00077FEF82E882331F489E492EE60E00F94FA
:10EBE000C2F10BC08093C6008091C00086FFFCCFAD
:10EBF0008091C00080648093C000FE1419F00894D6
:10EC0000C11CD11C0F5F1F4FC80181519F41A0E063
:10EC1000B0E0ABBFFC01E790FAE2EF1621F022E092
:10EC20000030120799F60F94DCF10F94DCF182E6C4
:10EC300092EE60E00F94C2F1C60161E070E00F94C3
:10EC400034F20F94DCF10F94DCF110920202109276
:10EC50000302109204021092050278CE89E992EE26
:10EC600062E00F94F5F1279A2F9A16C02F9880E052
:10EC700090E0E0EDF7E03197F1F7019684369105E9
:10EC8000C1F72F9A80E090E0E0EDF7E03197F1F7DF
:10EC9000019684369105C1F78091C00087FFE6CFC9
:10ECA0008091C00087FFFCCF64C485EA92EE62E0E9
:10ECB0000F94F5F140910202509103026091040219
:10ECC0007091050281E020E10F9491F2809102029F
:10ECD00090910302A0910402B091050280509F4FD1
:10ECE000AF4FBF4F8093020290930302A0930402A0
:10ECF000B093050280509041A040B04008F426CE69
:10ED0000A4CF83EB92EE62E00F94F5F140910602FE
:10ED100050910702609108027091090280E020E1A1
:10ED20000F9491F28091060290910702A09108023F
:10ED3000B091090280509F4FAF4FBF4F80930602A2
:10ED400090930702A0930802B0930902FFCD80ECD4
:10ED500092EE62E00F94F5F183E792EE60E00F949B
:10ED6000F5F18FE792EE60E00F94F5F18BE892EE0B
:10ED700060E00F94F5F189E992EE60E00F94F5F10F
:10ED800085EA92EE60E00F94F5F183EB92EE60E09D
:10ED90000F94F5F180EC92EE60E00F94F5F187ECC2
:10EDA00092EE60E00F94F5F188ED92EE60E00F9442
:10EDB000F5F18FED92EE60E00F94F5F18AEE92EEB0
:10EDC00060E00F94F5F183E093EEBDCD87EC92EE19
:10EDD00062E00F94F5F181E40F947BF282E40F94EA
:10EDE0007BF283E40F947BF284E40F947BF285E45E
:10EDF0000F947BF286E40F947BF287E40F947BF20E
:10EE000088E40F947BF28AE40F947BF28BE40F94F6
:10EE10007BF28CE40F947BF299CD88ED92EE62E068
:10EE20000F94F5F1772473948824992409C48FED05
:10EE300092EE62E00F94F5F140910A0250910B02BC
:10EE400060910C0270910D0282E020E10F9491F22A
:10EE500080910A0290910B02A0910C02B0910D02D8
:10EE600080509F4FAF4FBF4F80930A0290930B0289
:10EE7000A0930C02B0930D0269CD8AEE92EE62E08F
:10EE80000F94F5F184EE90EE60E00F94F5F18FECC5
:10EE900091EE60E00F94F5F1662477244301CC5D98
:10EEA000DE4F19821882C452D140D401C301B695F5
:10EEB000A79597958795CA5DDE4F88839983AA8326
:10EEC000BB83C652D140CC5DDE4FA881B981C4520C
:10EED000D1401196CC5DDE4FB983A883C452D14096
:10EEE000CD0162E070E00F9434F2B0E2B093C6005E
:10EEF0008091C00086FFFCCF8091C0008064809329
:10EF0000C000EDE2E093C6008091C00086FFFCCF18
:10EF10008091C00080648093C000F0E2F093C6004E
:10EF20008091C00086FFFCCF8091C00080648093F8
:10EF3000C000CA5DDE4FE880F9800A811B81C6529D
:10EF4000D140BB27A12F902F8F2D0F940DF2CA5DBA
:10EF5000DE4F8881C652D1400F940DF2B0E2FB2EF5
:10EF6000F092C6008091C00086FFFCCF8091C00067
:10EF700080648093C0000DE30093C6008091C000C0
:10EF800086FFFCCF8091C00080648093C00010E2B7
:10EF90001093C6008091C00086FFFCCF8091C00016
:10EFA00080648093C0008BBEF3012791C65DDE4F65
:10EFB0002883CA52D140A22EBB24CC24DD2408943D
:10EFC000611C711C811C911C8BBEF3018791282E42
:10EFD0003324442455240894611C711C811C911C09
:10EFE0008BBEF3013791C55DDE4F3883CB52D140E4
:10EFF0000894611C711C811C911C8BBEF30147910C
:10F00000C45DDE4F4883CC52D140ADEFEA2EAFEF66
:10F01000FA2EAFEF0A2FAFEF1A2F6E0C7F1C801E57
:10F02000911E142D032DF22CEE24EA0CFB1C0C1D5A
:10F030001D1D0F940DF220E22093C6008091C000A8
:10F0400086FFFCCF8091C00080648093C000C65DC5
:10F05000DE4F8881CA52D1400F940DF230E23093D6
:10F06000C6008091C00086FFFCCF8091C000806404
:10F070008093C000C45DDE4F8881CC52D1400F9494
:10F080000DF240E24093C6008091C00086FFFCCFA5
:10F090008091C00080648093C000C55DDE4F888190
:10F0A000CB52D1400F940DF250E25093C6008091A4
:10F0B000C00086FFFCCF8091C00080648093C000B8
:10F0C0008FEFE8168FEFF80680E0080780E018075A
:10F0D00031F484E092EE60E00F94C2F1DFC0D80119
:10F0E000C7018070907CA070B0708050904CA040A0
:10F0F000B040D1F52FEF3FE340E050E0E222F322B1
:10F1000004231523CA5DDE4FA880B980CA80DB8046
:10F11000C652D140AE0CBF1CC01ED11EAA0CBB1CD7
:10F12000CC1CDD1C8EE092EE60E00F94C2F1BB2798
:10F13000A12F902F8F2D0F940DF28E2D0F940DF285
:10F1400030E23093C6008091C00086FFFCCF8091F2
:10F15000C00080648093C0004EE34093C60080915D
:10F16000C00086FFFCCF87C08EE09EEFA0E0B0E03D
:10F17000E822F9220A231B239CE0E91694E9F90608
:10F1800090E0090790E0190709F088C0C45DDE4FE0
:10F19000A881CC52D140EA2EFF2400E010E0102FCD
:10F1A0000F2DFE2CEE24C55DDE4FB881CB52D14031
:10F1B000EB0EF11C011D111DD601C501817090706F
:10F1C000A070B070DC0199278827E80EF91E0A1F8D
:10F1D0001B1F20EF30E040E050E0A222B322C42207
:10F1E000D52241E1AA0CBB1CCC1CDD1C4A95D1F7F1
:10F1F000EA0CFB1C0C1D1D1D81E090E0A0E0B0E0BE
:10F20000282239224A225B2235E1220C331C441C7D
:10F21000551C3A95D1F7E20CF31C041D151D57013E
:10F220006801AA0CBB1CCC1CDD1C85E192EE60E0E1
:10F230000F94C2F1C801AA27BB270F940DF2BB2778
:10F24000A12F902F8F2D0F940DF28E2D0F940DF274
:10F2500090E29093C6008091C00086FFFCCF809121
:10F26000C00080648093C000AEE3A093C60080918C
:10F27000C00086FFFCCF8091C00080648093C000F6
:10F28000C601AA27BB270F940DF2BB27AD2D9C2DDD
:10F290008B2D0F940DF28A2D0F940DF20F94DCF14B
:10F2A000CC5DDE4FE881F981C452D140F99709F471
:10F2B0004DCBF4E0EF2EF12C012D112D6E0C7F1CA7
:10F2C000801E911EF2CD83E093EE62E00F94F5F183
:10F2D0008AE192EE60E00F94C2F18091C00087FF56
:10F2E000FCCF1091C6001F751093C6008091C0001E
:10F2F00086FFFCCF8091C00080648093C0000F9493
:10F30000DCF1812F81548A3108F036C1163409F4BA
:10F3100095C0173490F4133409F44EC0143430F40B
:10F320001134F1F0123409F01DC130C0143409F465
:10F3300059C0153409F016C16BC01A3409F4C4C0A1
:10F340001B3438F4173409F48FC0183409F00AC19B
:10F35000A1C01B3409F4D2C01C3409F003C1E8C0B9
:10F360008FEF81B90DC082B1809582B980E090E0C5
:10F37000E0EDF7E03197F1F70196883C9105C1F790
:10F380008091C00087FFEFCF12B8EFC08FEF84B934
:10F390000DC085B1809585B980E090E0E0EDF7E0A3
:10F3A0003197F1F70196883C9105C1F78091C00033
:10F3B00087FFEFCF15B8D9C08FEF87B90DC088B1DF
:10F3C000809588B980E090E0E0EDF7E03197F1F7C3
:10F3D0000196883C9105C1F78091C00087FFEFCF6F
:10F3E00018B8C3C08FEF8AB90DC08BB180958BB9A7
:10F3F00080E090E0E0EDF7E03197F1F70196883C8E
:10F400009105C1F78091C00087FFEFCF1BB8ADC059
:10F410008FEF8DB90DC08EB180958EB980E090E0F0
:10F42000E0EDF7E03197F1F70196883C9105C1F7DF
:10F430008091C00087FFEFCF1EB897C08FEF80BBD1
:10F440000DC081B3809581BB80E090E0E0EDF7E0F6
:10F450003197F1F70196883C9105C1F78091C00082
:10F4600087FFEFCF11BA81C08FEF83BB0DC084B38C
:10F47000809584BB80E090E0E0EDF7E03197F1F714
:10F480000196883C9105C1F78091C00087FFEFCFBE
:10F4900014BA6BC08FEF809301010FC080910201FD
:10F4A00080958093020180E090E0E0EDF7E03197F5
:10F4B000F1F70196883C9105C1F78091C00087FF64
:10F4C000EDCF1092020151C08FEF809304010FC065
:10F4D0008091050180958093050180E090E0E0ED4A
:10F4E000F7E03197F1F70196883C9105C1F78091DB
:10F4F000C00087FFEDCF1092050137C08FEF8093DA
:10F5000007010FC08091080180958093080180E079
:10F5100090E0E0EDF7E03197F1F70196883C910536
:10F52000C1F78091C00087FFEDCF109208011DC088
:10F530008FEF80930A010FC080910B01809580931B
:10F540000B0180E090E0E0EDF7E03197F1F70196F4
:10F55000883C9105C1F78091C00087FFEDCF1092E4
:10F560000B0103C085E292EEEEC98091C00087FFD7
:10F57000FCCF8091C600EAC988E392EEE4C98CE131
:10F5800091EEE1C988249924933011F1943028F444
:10F59000913089F09230B8F408C0953061F195301F
:10F5A000F0F0963009F048C043C02B3109F042C951
:10F5B00091E06BE13FC96227C15DDE4F2883CF52E6
:10F5C000D14092E037C9B22FA0E0622793E032C960
:10F5D000822F90E0A82BB92B622794E02BC92E3004
:10F5E00009F039C3622795E0C05DDE4F19821882A9
:10F5F000C053D1401FC9E1E0F0E0EC0FFD1FC05D3A
:10F60000DE4F08811981C053D140E00FF11F2083E4
:10F610000F5F1F4FC05DDE4F19830883C053D14079
:10F6200062270A171B0709F005C9D80196E002C92D
:10F63000261709F010C303C0973009F0FBC87724E0
:10F640009981933109F412C19431C8F4963009F4C8
:10F65000D8C0973050F4923009F406C1933009F4C1
:10F660006DC0913009F059C253C0913109F477C08F
:10F67000923108F0BBC0903109F04FC2F5C098310B
:10F6800009F487C0993150F4953109F4EFC09531F0
:10F6900008F4C6C1963109F040C2C2C19A3109F4DA
:10F6A0006CC09A3108F491C09B3109F45BC09D3164
:10F6B00009F033C29D81903359F48F81882311F46E
:10F6C0009EE11CC0813011F091E018C098E916C08D
:10F6D000892F807591F0903539F4E0E0F0E089E011
:10F6E0008093570094910AC0983539F4E3E0F0E034
:10F6F00089E080935700949101C090E01A821B82A8
:10F700008D818C831D829E831F8227E030E009C299
:10F710001A8288E08B8381E48C8386E58D8382E581
:10F720008E8389E48F8383E5888780E589878FE5E9
:10F730008A8782E38B872BE030E0F3C18A818139AD
:10F7400041F0823941F0803911F48FE005C080E04A
:10F7500003C082E001C08AE01A828B8344C0772410
:10F76000739482C08D81882311F48EE12CC0813086
:10F7700011F081E028C088E926C01A82E1E0F0E0BB
:10F7800089E08093570084918B831C8224E030E0D1
:10F79000C8C18B81803589F48C81883039F4E2E0EE
:10F7A000F0E089E08093570084910DC0E0E0F0E044
:10F7B00089E080935700849106C0E3E0F0E089E09F
:10F7C0008093570084911A82DFCF8D81836C99E0FA
:10F7D000E1E0F0E0082E90935700E89507B600FCB2
:10F7E000FDCF1A821B8223E030E09BC180EC8A832C
:10F7F000CE5CDE4F188219821A821B82C253D1401E
:10F800008EC18A8190E0A0E0B0E0582F44273327D2
:10F8100022278B8190E0A0E0B0E0DC0199278827C7
:10F82000282B392B4A2B5B2B8D8190E0A0E0B0E098
:10F83000282B392B4A2B5B2B8C8190E0A0E0B0E089
:10F84000BA2FA92F982F8827282B392B4A2B5B2BCF
:10F85000220F331F441F551FC05EDE4F288339839C
:10F860004A835B83C052D1401A8259C13A81C95C34
:10F87000DE4F3883C753D140CA5CDE4F1882C6536F
:10F88000D1408B81C82EDD24CA5CDE4F488159816E
:10F89000C653D140C42AD52A933109F082C0CE5C28
:10F8A000DE4F88819981AA81BB81C253D1408050AB
:10F8B000904CA340B04030F583E0CE5CDE4FE88052
:10F8C000F9800A811B81C253D140F70100935B008C
:10F8D00080935700E89507B600FCFDCFCE5CDE4F65
:10F8E000088119812A813B81C253D14000501F4FAA
:10F8F0002F4F3F4FCE5CDE4F088319832A833B8313
:10F90000C253D140C05EDE4F488159816A817B81FC
:10F91000C052D140DE011B9631E08C9111962C91A2
:10F9200011971296C75CDE4F2883C953D140C85C3B
:10F93000DE4F1882C853D14090E0C85CDE4FE881AA
:10F94000F981C853D1408E2B9F2B0C01FA01609393
:10F950005B0030935700E89511244E5F5F4F6F4F67
:10F960007F4F0EEFE02E0FEFF02ECE0CDF1CC114F8
:10F97000D10499F685E0C05EDE4F088119812A81A5
:10F980003B81C052D140F80120935B008093570027
:10F99000E89507B600FCFDCF81E180935700E8951C
:10F9A00035C0C05EDE4F88819981AA81BB81C0527B
:10F9B000D140B695A795979587957C018601ABE0D8
:10F9C000AA2EB12CAC0EBD1E0BC0D5016D915D01F0
:10F9D000C7010F947FFE0894E11CF11C01501040F8
:10F9E0000115110591F7A60160E070E0440F551F65
:10F9F000661F771FC05EDE4FE880F9800A811B8199
:10FA0000C052D1404E0D5F1D601F711F1A82C05E33
:10FA1000DE4F488359836A837B83C052D1407FC0C5
:10FA2000FA80C55CDE4FF882CB53D140C65CDE4F16
:10FA30001882CA53D1408B81C82EDD24C65CDE4FAC
:10FA400008811981CA53D140C02AD12A1A828981DA
:10FA5000BE016D5F7F4F843121F59601C05EDE4FA0
:10FA6000E880F9800A811B81C052D1400BBFF701A9
:10FA700087919691DB018C9311969C936E5F7F4FDB
:10FA8000D801C7010296A11DB11DC05EDE4F88835B
:10FA90009983AA83BB83C052D14022503040F1F6F3
:10FAA00036C0C05EDE4F288139814A815B81C052F9
:10FAB000D1400894C108D108760100E010E0089414
:10FAC000C11CD11C0894E11CF11C011D111DE20E8A
:10FAD000F31E041F151F21BDBB27A52F942F832FB5
:10FAE00082BD2F5F3F4F4F4F5F4FF89A80B5DB01CC
:10FAF0008D93BD012E153F054007510761F7C05E8C
:10FB0000DE4F288339834A835B83C052D1409601FC
:10FB10002D5F3F4FFB01108204C080EC8A8322E0FE
:10FB200030E08BE18093C6008091C00086FFFCCF5F
:10FB30008091C00080648093C000C15DDE4FF88179
:10FB4000CF52D140F093C6008091C00086FFFCCF19
:10FB50008091C00080648093C000432F3093C60022
:10FB60008091C00086FFFCCF8091C00080648093AC
:10FB7000C000922F2093C6008091C00086FFFCCF6A
:10FB80008091C00080648093C0008EE08093C600A6
:10FB90008091C00086FFFCCF8091C000806480937C
:10FBA000C00065E1C15DDE4FE880CF52D1406E25D7
:10FBB00069276427FE01319610C090819093C6009A
:10FBC0008091C00086FFFCCF31968091C000806498
:10FBD0008093C0006927215030402115310569F715
:10FBE0006093C6008091C00086FFFCCF8091C0006A
:10FBF00080648093C00085B1805885B9772081F4F6
:10FC0000C15DDE4F0881CF52D1400F5FC15DDE4F35
:10FC10000883CF52D14090E0A0E0B0E00D941AF4F8
:10FC200027982F9880E090E020ED37E0F901319798
:10FC3000F1F7019684369105C9F700008091C00064
:10FC40008D7F8093C00081E180935700E895EE2777
:10FC5000FF270994FFCF90E00D941AF497FB092E2B
:10FC600007260AD077FD04D02ED006D000201AF443
:10FC7000709561957F4F0895F6F7909581959F4F08
:10FC80000895A1E21A2EAA1BBB1BFD010DC0AA1FDD
:10FC9000BB1FEE1FFF1FA217B307E407F50720F0F5
:10FCA000A21BB30BE40BF50B661F771F881F991F70
:10FCB0001A9469F760957095809590959B01AC01B9
:10FCC000BD01CF010895AA1BBB1B51E107C0AA1FAC
:10FCD000BB1FA617B70710F0A61BB70B881F991FED
:10FCE0005A95A9F780959095BC01CD010895F99991
:10FCF000FECF92BD81BDF89A992780B50895262F31
:10FD0000F999FECF1FBA92BD81BD20BD0FB6F89400
:0EFD1000FA9AF99A0FBE01960895F894FFCF63
:00000001FF
