:100000000C9463000C94FC070C94D5070C948B00A3
:100010000C948B000C948B000C948B000C948B0034
:100020000C948B000C948B000C948B000C948B0024
:100030000C948B000C948B000C948B000C948B0014
:100040000C948B070C948B000C9459070C94330779
:100050000C948B000C948B000C948B000C948B00F4
:100060000C9423080C948B0000000000240027004F
:100070002A0000000000250028002B0000000000DE
:1000800023002600290004040404040404040202DA
:100090000202020203030303030301020408102007
:1000A0004080010204081020010204081020000012
:1000B0000008000201000003040700000000000027
:1000C00000004209EF0E11241FBECFEFD8E0DEBFC3
:1000D000CDBF28E0A2ECB5E001C01D92A639B20761
:1000E000E1F715E0A0E0B1E0E0E6F5E202C005903E
:1000F0000D92A23CB107D9F710E0C2E6D0E004C0EF
:100100002197FE010E94AB10C136D107C9F70E94AA
:10011000710A0C94A3120C94000080918B069091AC
:100120008C06A0918D06B0918E060196A11DB11D81
:1001300080938B0690938C06A0938D06B0938E06C9
:10014000089508950895AF92BF92CF92DF92EF92F3
:10015000FF920F931F93CF93DF936C017B018B0171
:10016000040F151FEB015E01AE18BF08C017D107C1
:1001700059F06991D601ED91FC910190F081E02D4B
:10018000C6010995892B79F7C501DF91CF911F91A0
:100190000F91FF90EF90DF90CF90BF90AF900895B8
:1001A000FC0144815581608171818CE897E00C9459
:1001B000A300FC01538D448D252F30E0842F90E067
:1001C000821B930B541710F0CF9608950197089552
:1001D000FC01918D828D981761F0A28DAE0FBF2F1B
:1001E000B11D5D968C91928D9F5F9F73928F90E071
:1001F00008958FEF9FEF0895FC01918D828D9817E0
:1002000031F0828DE80FF11D858D90E008958FEF1C
:100210009FEF0895FC01918D228D892F90E0805CE5
:100220009F4F821B91098F73992708958FE996E05C
:100230000E940A0121E0892B09F420E0822F089511
:1002400080E090E0892B29F00E94160181110C9426
:1002500000000895FC01A48DA80FB92FB11DA35A69
:10026000BF4F2C91848D90E001968F739927848FD6
:10027000A689B7892C93A089B1898C9183708064F9
:100280008C93938D848D981306C00288F389E02D9A
:1002900080818F7D80830895EF92FF920F931F934B
:1002A000CF93DF93EC0181E0888F9B8D8C8D981329
:1002B0001AC0E889F989808185FF15C09FB7F89435
:1002C000EE89FF896083E889F98980818370806481
:1002D00080839FBF81E090E0DF91CF911F910F91CC
:1002E000FF90EF900895F62E0B8D10E00F5F1F4FDB
:1002F0000F731127E02E8C8D8E110CC00FB607FCEA
:10030000FACFE889F989808185FFF5CFCE010E9477
:100310002A01F1CFEB8DEC0FFD2FF11DE35AFF4FBA
:10032000F0829FB7F8940B8FEA89FB898081806205
:10033000CFCFCF93DF93EC01888D8823B9F0AA89C2
:10034000BB89E889F9898C9185FD03C0808186FD90
:100350000DC00FB607FCF7CF8C9185FFF2CF8081DF
:1003600085FFEDCFCE010E942A01E9CFDF91CF9129
:100370000895833081F028F4813099F08230A9F01B
:1003800008958730A9F08830C9F08430B1F48091A5
:1003900080008F7D03C0809180008F7780938000E4
:1003A000089584B58F7784BD089584B58F7DFBCF84
:1003B0008091B0008F778093B00008958091B00055
:1003C0008F7DF9CFCF93DF93282F30E0F901E255ED
:1003D000FF4F8491F901E656FF4FD491F901EA5796
:1003E000FF4FC491CC23A1F081110E94B901EC2FE1
:1003F000F0E0EE0FFF1FE458FF4FA591B491EC9190
:10040000ED2381E090E009F480E0DF91CF91089541
:1004100080E090E0FACF1F93CF93DF93282F30E056
:10042000F901E255FF4F8491F901E656FF4FD4914F
:10043000F901EA57FF4FC491CC23A9F0162F81117F
:100440000E94B901EC2FF0E0EE0FFF1FEE58FF4FB6
:10045000A591B4918FB7F894EC91111108C0D09583
:10046000DE23DC938FBFDF91CF911F910895DE2BA8
:10047000F8CFCF93DF9390E0FC01E656FF4F249135
:100480008A579F4FFC0184918823C9F090E0880F20
:10049000991FFC01E859FF4FA591B491FC01EE585A
:1004A000FF4FC591D49161110DC09FB7F8948C9105
:1004B000209582238C938881282328839FBFDF91F6
:1004C000CF910895623051F49FB7F8943C91822FF8
:1004D000809583238C93E8812E2BEFCF8FB7F894F0
:1004E000EC912E2B2C938FBFEACF8E50806480939B
:1004F0007C0080917A00806480937A0080917A00F9
:1005000086FDFCCF809178009091790008953FB7E7
:10051000F8948091750690917606A0917706B09137
:10052000780626B5A89B05C02F3F19F00196A11D9E
:10053000B11D3FBFBA2FA92F982F8827BC01CD012D
:10054000620F711D811D911D42E0660F771F881F8C
:10055000991F4A95D1F708958F929F92AF92BF92BB
:10056000CF92DF92EF92FF924B015C010E948702D3
:100570006B017C010E9487026C197D098E099F091D
:10058000683E734081059105A8F321E0821A910825
:10059000A108B10888EEC80E83E0D81EE11CF11C4A
:1005A00081149104A104B10429F7FF90EF90DF902A
:1005B000CF90BF90AF909F908F90089508950F9324
:1005C0001F93CF93DF93EC0188810E94E2012FB744
:1005D000F894409181065091820660918306709153
:1005E00084062FBF288939892817390731F04A8BAB
:1005F0005B8B6C8B7D8B998B888B0A891B892C89F3
:100600003D89401B510B620B730B0A811B812C81AE
:100610003D81401751076207730730F02E853F85F3
:100620003D872C879F878E872C853D858E859F856E
:100630002817390781F04A855B854230510581F4DE
:100640008E819F81A885B9850196A11DB11D8E83DC
:100650009F83A887B987DF91CF911F910F9108954C
:100660004115510531F421303105A9F7892B41F3AA
:10067000F2CF4130510579F7232B69F7019759F7EC
:10068000DFCFFC0184859585019729F481E02685DB
:100690003785232B09F080E00895CF93DF93EC0199
:1006A000862F688379831A821B821C821D821E8298
:1006B0001F82188619861B861A8662E00E943902FC
:1006C00088810E94E2019D878C879F878E87998B06
:1006D000888B1A8A1B8A1C8A1D8ADF91CF91089504
:1006E000089520910306260F3327331F2132310549
:1006F000ECF420914C06FC0190E080E0243069F09D
:1007000082E00895A09103062191AC014D515A4F0A
:10071000A40FB52FB11D2C930196861798F38091E5
:100720000306680F6093030680E0089581E0089552
:1007300010924C0681E080934B061092260661E0F1
:1007400082E10E940B0261E083E10E940B02E9EB6F
:10075000F0E080818E7F808380818D7F808388E43C
:100760008093B80085E48093BC000895CF93DF9315
:1007700091E09093E2058823B9F0C091B800D09140
:10078000BA008091BC008A7B8093BC0060E082E16B
:100790000E940B0260E083E10E940B020E9498031A
:1007A000D093BA00C093B800DF91CF910895089517
:1007B000E091800680917F06E81730F4F0E0EE5378
:1007C000FA4F808190E008958FEF9FEF0895909108
:1007D000800680917F062FEF3FEF981748F4E92FAE
:1007E000F0E0EE53FA4F208130E09F5F9093800657
:1007F000C901089580917F0690918006891B990B0D
:100800000895CF92DF92EF92FF920F931F93CF93B1
:10081000DF937C01CB018A0120915206222389F0CB
:10082000EB016B01C40ED51ECC15DD0569F0699195
:10083000D701ED91FC910190F081E02DC701099560
:10084000F3CF642F0E947103C801DF91CF911F91F4
:100850000F91FF90EF90DF90CF900895CF93DF93AB
:100860001F92CDB7DEB76983209152062223F9F09B
:1008700020917D06203258F021E030E0FC013383E6
:10088000228390E080E00F90DF91CF9108958091D6
:100890007E06E82FF0E0ED5AF94F998190838F5F43
:1008A00080937E0680937D0681E090E0ECCF61E04E
:1008B000CE0101960E947103F7CFCF92DF92EF92A3
:1008C000FF920F931F93CF93DF93FC01C48121E02C
:1008D00020935206C093730610927E0610927D06F6
:1008E0008385682B8CE397E00E942E04D0917D06CF
:1008F000D13208F092C00E9487026B017C01809186
:100900004C06811165C082E080934C0681E08093A3
:100910004B068FEF80934A0610924906D093480603
:10092000A3E5B6E0E8E2F6E080E0D81385C01092D7
:10093000270680912706CC0FC82BC09327068091ED
:100940002606813009F07CC0109226060E9487029C
:100950006B017C01809127068093BB0080914E063D
:1009600090914F06A0915006B0915106892B8A2B89
:100970008B2B99F00E94870200914E0610914F0632
:1009800020915006309151066C197D098E099F09FE
:100990000617170728073907E0F18091BC0083FD8F
:1009A000D9CF85EC8093BC000E9487026B017C014B
:1009B00080914C06823009F445C080914A068F3FF1
:1009C00061F180914A06803241F180914A0625C04A
:1009D00080914E0690914F06A0915006B09151061D
:1009E000892B8A2B8B2B09F48ACF0E9487020091D6
:1009F0004E0610914F0620915006309151066C1909
:100A00007D098E099F09061717072807390708F07F
:100A100076CF80914D060E94B60310927E0610920A
:100A20007D0610925206DF91CF911F910F91FF909A
:100A3000EF90DF90CF9008959D9191938F5F75CF48
:100A400085EEB0CF80914E0690914F06A091500652
:100A5000B0915106892B8A2B8B2B09F4A9CF0E94C8
:100A6000870200914E0610914F062091500630915A
:100A700051066C197D098E099F090617170728076B
:100A8000390708F095CFC5CF90E080E008950F9327
:100A90001F93CF938C01C62F0E945D046C2F64605E
:100AA000C8010E945D046C2F6B7FC8010E945D0429
:100AB00083EC90E00197F1F7CF911F910F9108958A
:100AC0000F931F93CF93DF938C01D62FC42F607F9A
:100AD000642B0E94470580E1D89FB00111246C2B44
:100AE000C801DF91CF911F910F910C944705CF93CF
:100AF000DF93CDB7DEB728970FB6F894DEBF0FBEF1
:100B0000CDBF98E0EAE0F1E0DE01119601900D9290
:100B10009A95E1F790919407981708F48FEF90E079
:100B2000880F991F21E030E02C0F3D1F820F931F8B
:100B3000FC016081606840E08CE897E028960FB681
:100B4000F894DEBF0FBECDBFDF91CF910C9460054E
:100B500041E00E94600581E090E008950F931F93AB
:100B6000CF93DF93EC0188819981009759F02A8116
:100B70003B812617370730F081E0DF91CF911F913D
:100B80000F9108958B016F5F7F4F0E94D6110097E0
:100B900059F0998388831B830A832C813D81232B01
:100BA00059F7FC011082E8CF80E0E7CFCF93DF93C5
:100BB000EC0188819981009711F00E944D111982F2
:100BC00018821D821C821B821A82DF91CF910895A8
:100BD000EF92FF920F931F93CF93DF93EC01861751
:100BE000970781F0FB01008111810115110539F092
:100BF000E480F580B7010E94AE0581110BC0CE01E3
:100C00000E94D605CE01DF91CF911F910F91FF90E9
:100C1000EF900895FD82EC82B801888199810E944D
:100C20009C12F0CFFC0180819181009711F00C940F
:100C30004D110895EF92FF920F931F93CF93DF937F
:100C4000EC017B01198218821B821A821D821C8290
:100C5000FB0101900020E9F731978F01061B170B6C
:100C6000B8010E94AE05811109C0CE01DF91CF917C
:100C70001F910F91FF90EF900C94D6051D830C836C
:100C8000B70188819981DF91CF911F910F91FF90DA
:100C9000EF900C949C12FB0101900020E9F7319732
:100CA000AF01461B570BDC01ED91FC910280F381F3
:100CB000E02D09948F929F92AF92BF92CF92DF92D4
:100CC000EF92FF920F931F93CF93DF93CDB7DEB7D1
:100CD000A1970FB6F894DEBF0FBECDBF6C01990F80
:100CE000EE08FF08F7FE4BC06DE28FE996E00E9428
:100CF0004C018C0122273327A9012C193D094E09EB
:100D00005F0919A2CE0181967C019AE0892E912C6F
:100D1000A12CB12CCA01B901A50194010E9489102E
:100D2000605DF70162937F01211531054105510591
:100D300089F790E080E0309729F0BF018FE996E0D5
:100D40000E944B06080F191F62E174E08FE996E0DC
:100D50000E944B06800F911FA1960FB6F894DEBF3C
:100D60000FBECDBFDF91CF911F910F91FF90EF90FC
:100D7000DF90CF90BF90AF909F908F900895A70184
:100D8000960119A28E010F5D1F4F8AE0C82ED12C4B
:100D9000E12CF12CCA01B901A70196010E9489102A
:100DA000605DF80162938F01211531054105510500
:100DB00089F7309739F0BF018FE996E00E944B0622
:100DC0008C01C2CF10E000E0BFCF0F931F93CF93F1
:100DD000DF93EC010E944B068C0162E174E0CE01CE
:100DE0000E944B06800F911FDF91CF911F910F91B1
:100DF00008950C944B0685ED8093BC0080914E06BF
:100E000090914F06A0915006B09151060796A11DF2
:100E1000B11D23E0B695A795979587952A95D1F7AB
:100E20002091BC0024FD03C010924C06089540910F
:100E30004E0650914F066091500670915106452B19
:100E4000462B472B69F30097A105B10541F025E337
:100E50002A95F1F700000197A109B109E1CF80912E
:100E60004D060C94B6031F920F920FB60F921124E9
:100E70002F933F934F935F936F937F938F939F93A2
:100E8000AF93BF93EF93FF938FE996E00E942A01FF
:100E9000FF91EF91BF91AF919F918F917F916F9152
:100EA0005F914F913F912F910F900FBE0F901F9028
:100EB00018951F920F920FB60F9211242F938F93B4
:100EC0009F93EF93FF93E091AF06F091B00680817E
:100ED000E091B506F091B60682FD1BC0908180912D
:100EE000B8068F5F8F732091B906821741F0E091A9
:100EF000B806F0E0E156F94F958F8093B806FF9160
:100F0000EF919F918F912F910F900FBE0F901F9097
:100F100018958081F4CF1F920F920FB60F92112473
:100F20002F933F938F939F93AF93BF9380918106AD
:100F300090918206A0918306B09184063091740648
:100F400023E0230F2D3758F50196A11DB11D2093E5
:100F500074068093810690938206A0938306B093D3
:100F600084068091750690917606A0917706B091DF
:100F700078060196A11DB11D8093750690937606A3
:100F8000A0937706B0937806BF91AF919F918F9110
:100F90003F912F910F900FBE0F901F90189526E84C
:100FA000230F0296A11DB11DD2CF1F920F920FB633
:100FB0000F9211242F933F934F935F936F937F93DF
:100FC0008F939F93AF93BF93EF93FF93E0910201B1
:100FD000F09103010995FF91EF91BF91AF919F911E
:100FE0008F917F916F915F914F913F912F910F90D2
:100FF0000FBE0F901F9018951F920F920FB60F9271
:1010000011242F933F934F935F936F937F938F930D
:101010009F93AF93BF93EF93FF93E0910001F09103
:1010200001010995FF91EF91BF91AF919F918F9130
:101030007F916F915F914F913F912F910F900FBED4
:101040000F901F9018951F920F920FB60F921124B8
:101050002F933F934F935F936F937F938F939F93C0
:10106000AF93BF93EF93FF938091B900887F803651
:1010700009F44AC0F0F5883209F4A7C018F58031A8
:1010800009F49BC0B8F4882309F4F9C0883009F446
:1010900094C0FF91EF91BF91AF919F918F917F91FC
:1010A0006F915F914F913F912F910F900FBE0F90D5
:1010B0001F901895883109F488C0803251F78093C9
:1010C0004A0614C0803409F49DC040F48033B9F35B
:1010D0008833F9F680934A0685ECB0C0803509F470
:1010E00085C0883509F496C0883499F60E94FB06BD
:1010F000D0CF883909F48CC038F5883729F050F4FE
:10110000883611F0803729F683E080934C061092E0
:10111000250657C0883809F47BC0803919F080381B
:1011200009F0B7CF80912506803208F071C0E091B8
:10113000250681E08E0F809325068091BB00F0E0AC
:10114000EB5FF94F80833DC0803B39F0E0F4803A9B
:1011500009F479C0883A09F09CCF84E080934C066A
:101160001092040610920306E0917B06F0917C0633
:1011700009958091030681110FC081E080930306D9
:101180001092E30509C0803C09F4A6CF883C09F41D
:10119000A3CF883B09F07DCFE091040681E08E0F5C
:1011A00080930406F0E0ED51FA4F80818093BB00FC
:1011B000909104068091030629C0809127068093B0
:1011C000BB0085EC8093BC0064CF90914906809170
:1011D0004806981758F5E091490681E08E0F8093F4
:1011E0004906F0E0E85DF94F8081E9CFE0914906DA
:1011F00081E08E0F809349068091BB00F0E0E85DAE
:10120000F94F808390914906809148069817C8F25B
:1012100085E8D8CFE091490681E08E0F809349069A
:101220008091BB00F0E0E85DF94F808380914B0630
:1012300081115CCF81E08093260684EA8093BC0014
:1012400010924C0626CF85EC8093BC0010924C0681
:1012500080912506803230F4E0912506F0E0EB5FC6
:10126000F94F10826091250670E0E0917906F091C7
:101270007A0685E096E00995109225060ACF10922D
:101280004A0634CF1092A2061092A10688EE93E08F
:10129000A0E0B0E08093A3069093A406A093A506D7
:1012A000B093A60626EE33E03093A00620939F0667
:1012B00025EC30E03093AC062093AB0624EC30E014
:1012C0003093AE062093AD0620EC30E03093B006AC
:1012D0002093AF0621EC30E03093B2062093B106A4
:1012E00022EC30E03093B4062093B30626EC30E0D5
:1012F0003093B6062093B5061092B8061092B90640
:101300001092BA061092BB0610923F0710923E0749
:101310008093400790934107A0934207B0934307FF
:1013200088EF93E090933D0780933C07A8E4B7E0F3
:10133000FD018285807C8287168217821086118645
:101340001282138214821582118210823B9687E0EA
:10135000EA38F80771F710928A0790E080E03BE0E6
:10136000389FF001399FF00D1124EE5AF84F20817B
:10137000422F4F7089F0207E208311961C921E927E
:1013800012961D921D921D921C92159716961D92F3
:101390001D921D921C92199701961B9686309105FD
:1013A000F9F663E070E08CE798E00E944D0364E09A
:1013B00070E086E698E00E944D0365E070E080E50D
:1013C00098E00E944D0366E070E08AE398E00E9496
:1013D0004D0367E070E084E298E00E944D0368E00E
:1013E00070E08EE098E00E944D0369E070E088EFC5
:1013F00097E00E944D0364E174E082EF97E00E9461
:101400001A0665E174E080EE97E00E941A066FEC20
:1014100074E086EE97E00E941A066CEE74E08CEEA3
:1014200097E00E941A066BE174E086EB97E00E9459
:101430001A0662E274E08CEB97E00E941A0669E2F9
:1014400074E082EC97E00E941A0661E374E088EC95
:1014500097E00E941A066BE374E08EEC97E00E941E
:101460001A0664E474E084ED97E00E941A066BE4C7
:1014700074E08AED97E00E941A0664E574E08EE954
:1014800097E00E941A0669E574E084EA97E00E94FA
:101490001A066FE574E08AEA97E00E941A0665E68C
:1014A00074E080EB97E00E941A0664E174E088E93A
:1014B00097E00E941A0610928F0710928E078AE01A
:1014C00094E090938D0780938C0780E2809390073F
:1014D00080E18093950782E08093960710929707AA
:1014E0000895CF93DF9300D000D000D0CDB7DEB702
:1014F000789484B5826084BD84B5816084BD85B5EF
:10150000826085BD85B5816085BD80916E008160FA
:1015100080936E00109281008091810082608093A0
:1015200081008091810081608093810080918000A2
:101530008160809380008091B10084608093B100CD
:101540008091B00081608093B00080917A008460C7
:1015500080937A0080917A00826080937A008091F3
:101560007A00816080937A0080917A00806880930D
:101570007A001092C100E091AF06F091B00682E0CF
:101580008083E091AB06F091AC061082E091AD064D
:10159000F091AE068FEC80831092B706E091B3060F
:1015A000F091B40686E08083E091B106F091B20636
:1015B000808180618083E091B106F091B2068081E4
:1015C00088608083E091B106F091B20680818068E6
:1015D0008083E091B106F091B20680818F7D808397
:1015E00082E390E0A0E0B0E080937E0890937F08D3
:1015F000A0938008B093810880936808909369084D
:10160000A0936A08B0936B08809352089093530894
:10161000A0935408B093550880933C0890933D08DC
:10162000A0933E08B0933F08809326089093270824
:10163000A0932808B093290880931008909311086C
:10164000A0931208B09313088093FA079093FB07B6
:10165000A093FC07B093FD0760E082E00E9439028E
:1016600060E08EE00E94390260E08FE00E94390263
:1016700061E08CE00E94390261E08CE00E940B0284
:101680008DE890E0909301018093000180916900C2
:10169000836080936900E89A1092800610927F061A
:1016A00010927E0610927D060E94980381EA90E0D7
:1016B00090937C0680937B0682EA90E090937A0672
:1016C000809379061092910780919607823018F0E6
:1016D00098E0909391078093940762E370E080E034
:1016E00090E00E94AC02609197078CE897E00E941E
:1016F0005D0468EE73E080E090E00E94AC0260E37D
:101700008CE897E00E9447050BE416E4C8010197B6
:10171000F1F760E38CE897E00E944705C801019764
:10172000F1F760E38CE897E00E94470583E592E0DB
:101730000197F1F760E28CE897E00E94470560911D
:101740009107606240E08CE897E00E94600584E0C9
:101750008093920740E06CE08CE897E00E9460057F
:1017600040E061E08CE897E00E9460050BE31FE138
:10177000C8010197F1F782E08093930740E066E0AB
:101780008CE897E00E94600540E062E08CE897E01A
:101790000E946005C8010197F1F788E080939707E0
:1017A00060E08CE897E00E945D0480E00E9477058D
:1017B0006BE674E08CE897E00E94F90681E00E94F5
:1017C00077056DE774E08CE897E00E94F90660ED1C
:1017D00077E080E090E00E94AC0240E061E08CE8BD
:1017E00097E00E946005C8010197F1F76EE874E088
:1017F0008FE996E00E94E506F0ED8F2EF7E09F2E30
:10180000A12CB12CACE36A2EB0E02B2EB0E03B2E25
:1018100013E0412E512C02E0C02ED12CEE24E39493
:10182000F12CE6E07E2E8CE798E00E94DF0286E64F
:1018300098E00E94DF0280E598E00E94DF028AE3E0
:1018400098E00E94DF0284E298E00E94DF028EE0CE
:1018500098E00E94DF0288EF97E00E94DF028EE0AE
:101860000E9475028C018FE00E947502800F911F0B
:1018700097FD01969595879590939E0680939D067A
:101880002FB7F8946091810670918206809183064B
:10189000909184062FBFA50194010E948910309376
:1018A0009C0620939B068091990690919A06281B8E
:1018B000390B22303105A4F06AE974E08FE996E033
:1018C0000E94F90680919B0690919C060E945A0600
:1018D00080919B0690919C0690939A06809399061E
:1018E00080919806811185C00E9477056EE874E0AA
:1018F0008CE897E00E94E5068CE798E00E9441039F
:10190000882311F181E08093980660EE77E082EF02
:1019100097E00E94E80560EA74E08FE996E00E9493
:10192000E50680E00E9477056EEA74E08CE897E0B7
:101930000E94E50610929706109296066BEB74E0F3
:101940008FE996E00E94E50686E698E00E94410352
:10195000882311F181E08093980666EE77E082EFAC
:1019600097E00E94E80567EC74E08FE996E00E943A
:10197000E50680E00E94770566ED74E08CE897E06C
:101980000E94E506F0929706E09296066BEB74E0F3
:101990008FE996E00E94E50680E598E00E94410309
:1019A000882311F181E0809398066CEE77E082EF56
:1019B00097E00E94E80564EE74E08FE996E00E94EB
:1019C000E50680E00E94770562EF74E08CE897E01E
:1019D0000E94E506D0929706C09296066BEB74E0E3
:1019E0008FE996E00E94E50680919806882309F425
:1019F00015C180919506811111C181E00E94770582
:101A00006BEB74E08CE897E00E94F9068AE398E0BB
:101A10000E9441038823E1F181E0809395066EE9FD
:101A200077E088E997E00E94E80581E00E94770569
:101A30006FEF74E08FE996E00E94E50667E175E0DC
:101A40008CE897E00E94F906109294061092930693
:101A500080E00E9477058091960690919706789E87
:101A6000B001799E700D11246052784F1A8219824C
:101A70001C821B821E821D82CE0101960E94E805F7
:101A8000CE0101960E94D000CE0101960E9412065E
:101A900084E298E00E9441038823E1F181E0809391
:101AA000950664EA77E088E997E00E94E80581E01E
:101AB0000E94770567E275E08FE996E00E94E506EF
:101AC0006EE375E08CE897E00E94F906F0929406C8
:101AD000E092930680E00E947705809196069091AF
:101AE0009706789EB001799E700D11246052784F50
:101AF0001A8219821C821B821E821D82CE010196CF
:101B00000E94E805CE0101960E94D000CE01019608
:101B10000E9412068EE098E00E9441038823E1F1C2
:101B200081E0809395066AEA77E088E997E00E9471
:101B3000E80581E00E9477056DE475E08FE996E0A5
:101B40000E94E5066AE675E08CE897E00E94F906D7
:101B5000D0929406C092930680E00E94770580910F
:101B6000960690919706789EB001799E700D11248B
:101B70006052784F1A8219821C821B821E821D823B
:101B8000CE0101960E94E805CE0101960E94D00088
:101B9000CE0101960E94120688EF97E00E94410351
:101BA0008823E1F181E08093950660EB77E088E996
:101BB00097E00E94E80581E00E9477056AE775E0FA
:101BC0008FE996E00E94E50663E475E08CE897E013
:101BD0000E94F906509294064092930680E00E947B
:101BE00077058091960690919706789EB001799E30
:101BF000700D11246052784F1A8219821C821B8248
:101C00001E821D82CE0101960E94E805CE0101963A
:101C10000E94D000CE0101960E94120620919606E5
:101C2000309197064091930650919406A0919506A5
:101C3000AA23B1F180919806882391F180919106B1
:101C4000909192066FE0649FF001659FF00D112462
:101C5000629EB001639E700D1124E60FF71FE80F1E
:101C6000F91FEE0FFF1FE658FD4F0190F081E02DA8
:101C700060919B0670919C06E617F70789F4019620
:101C800090939206809391061092900610928F0680
:101C900010928B0610928C0610928D0610928E0672
:101CA0008FE0849FF001859FF00D1124629EC0019A
:101CB000639E900D1124E80FF91F80919106909179
:101CC0009206E80FF91FEE0FFF1FEE5EFE4F8081B8
:101CD000918190938A0680938906AA23D1F18091FD
:101CE00098068823B1F180919B0690919C062091E3
:101CF000870630918806AC01421B530B43305105D7
:101D000044F190938806809387066DE875E08FE92B
:101D100096E00E94F90680919106909192060E94A9
:101D20005A0667E975E08FE996E00E94F90680910E
:101D3000890690918A060E945A0666EA75E08FE944
:101D400096E00E94F90680918506909186060E9491
:101D50005A0660918B0670918C0680918D06909149
:101D60008E060E94230F20E030E040E250E40E9403
:101D70005E0F0E9453109B01709386066093850648
:101D80008091890690918A0628173907E4F480919A
:101D90008F0690919006892B51F460E08CE00E94B0
:101DA0000B026DEA75E08FE996E00E94E5062114CA
:101DB000310409F438CD0E941601882309F433CD8B
:101DC0000E9400002ECD821793078CF761E08CE013
:101DD0000E940B02F0929006E0928F06E8CFCF931C
:101DE000DF9388E997E00E94120680EB97E00E945B
:101DF00012068AEA97E00E94120684EA97E00E949F
:101E000012068EE997E00E941206C0EED7E02697F0
:101E1000CE010E94120687E0C63BD807C1F78CEEC0
:101E200097E00E94120686EE97E00E94120680EE6E
:101E300097E00E94120682EF97E0DF91CF910C9419
:101E40001206E89409C097FB3EF490958095709532
:101E500061957F4F8F4F9F4F9923A9F0F92F96E9F6
:101E6000BB279395F695879577956795B795F1116B
:101E7000F8CFFAF4BB0F11F460FF1BC06F5F7F4F08
:101E80008F4F9F4F16C0882311F096E911C077231A
:101E900021F09EE8872F762F05C0662371F096E823
:101EA000862F70E060E02AF09A95660F771F881FF2
:101EB000DAF7880F9695879597F908950E94710F24
:101EC0000C94E20F0E94D40F38F00E94DB0F20F038
:101ED000952311F00C94CB0F0C94D10F11240C947A
:101EE00016100E94F30F70F3959FC1F3950F50E009
:101EF000551F629FF001729FBB27F00DB11D639FBC
:101F0000AA27F00DB11DAA1F649F6627B00DA11D61
:101F1000661F829F2227B00DA11D621F739FB00D07
:101F2000A11D621F839FA00D611D221F749F332777
:101F3000A00D611D231F849F600D211D822F762F10
:101F40006A2F11249F5750409AF0F1F088234AF0ED
:101F5000EE0FFF1FBB1F661F771F881F9150504059
:101F6000A9F79E3F510580F00C94CB0F0C941610EE
:101F70005F3FE4F3983ED4F3869577956795B795E0
:101F8000F795E7959F5FC1F7FE2B880F911D9695FA
:101F9000879597F9089597F99F6780E870E060E06A
:101FA00008959FEF80EC089500240A9416161706F2
:101FB00018060906089500240A941216130614063A
:101FC00005060895092E0394000C11F4882352F09D
:101FD000BB0F40F4BF2B11F460FF04C06F5F7F4F55
:101FE0008F4F9F4F089557FD9058440F551F59F03C
:101FF0005F3F71F04795880F97FB991F61F09F3FF6
:1020000079F087950895121613061406551FF2CF1E
:102010004695F1DF08C0161617061806991FF1CF6E
:1020200086957105610508940895E894BB27662795
:102030007727CB0197F908952F923F924F925F92A5
:102040006F927F928F929F92AF92BF92CF92DF92C8
:10205000EF92FF920F931F93CF93DF93CDB7DEB72D
:10206000CA1BDB0B0FB6F894DEBF0FBECDBF0994C1
:102070002A88398848885F846E847D848C849B8418
:10208000AA84B984C884DF80EE80FD800C811B8126
:10209000AA81B981CE0FD11D0FB6F894DEBF0FBE55
:1020A000CDBFED0108950E945A106894B1110C94AF
:1020B000161008950E94FB0F88F09F5798F0B92FD3
:1020C0009927B751B0F0E1F0660F771F881F991F6D
:1020D0001AF0BA95C9F714C0B13091F00E941510EA
:1020E000B1E008950C941510672F782F8827B85FFA
:1020F00039F0B93FCCF3869577956795B395D9F7C5
:102100003EF490958095709561957F4F8F4F9F4FCE
:102110000895A1E21A2EAA1BBB1BFD010DC0AA1F28
:10212000BB1FEE1FFF1FA217B307E407F50720F040
:10213000A21BB30BE40BF50B661F771F881F991FBB
:102140001A9469F760957095809590959B01AC0104
:10215000BD01CF010895EE0FFF1F0590F491E02D12
:1021600009940F931F93CF93DF938230910510F45E
:1021700082E090E0E0919408F091950830E020E052
:10218000B0E0A0E0309799F42115310509F44AC078
:10219000281B390B24303105D8F58A819B816115C4
:1021A000710589F1FB0193838283FE0111C0408197
:1021B00051810281138148175907E0F048175907E8
:1021C00099F4109761F012960C93129713961C9342
:1021D0003296CF01DF91CF911F910F910895009317
:1021E000940810939508F4CF2115310551F042174A
:1021F000530738F0A901DB019A01BD01DF01F801A5
:10220000C1CFEF01F9CF9093950880939408CDCF7B
:10221000FE01E20FF31F819391932250310939831C
:102220002883D7CF2091920830919308232B41F433
:102230002091060130910701309393082093920872
:1022400020910401309105012115310541F42DB78C
:102250003EB74091080150910901241B350BE091D4
:102260009208F0919308E217F307A0F42E1B3F0B9E
:102270002817390778F0AC014E5F5F4F24173507F8
:1022800048F04E0F5F1F509393084093920881933C
:1022900091939FCFF0E0E0E09CCFCF93DF93009746
:1022A000E9F0FC01329713821282A0919408B09158
:1022B0009508ED0130E020E01097A1F420813181F4
:1022C000820F931F209192083091930828173907A5
:1022D00009F061C0F0939308E0939208DF91CF91E9
:1022E0000895EA01CE17DF07E8F54A815B819E0178
:1022F00041155105B1F7E901FB83EA8349915991F1
:10230000C40FD51FEC17FD0761F4808191810296FF
:10231000840F951FE90199838883828193819B8330
:102320008A83F0E0E0E012968D919C9113970097DC
:10233000B9F52D913C911197CD010296820F931F13
:1023400020919208309193082817390739F6309771
:1023500051F51092950810929408B0939308A093A9
:102360009208BCCFD383C28340815181840F951FD3
:10237000C817D90761F44E5F5F4F88819981480F74
:10238000591F518340838A819B81938382832115C6
:10239000310509F0B0CFF0939508E09394089ECFF3
:1023A000FD01DC01C0CF13821282D7CFB0E0A0E0E4
:1023B000ECEDF1E10C941E108C01009751F4CB016F
:1023C0000E94B1108C01C801CDB7DEB7E0E10C94DA
:1023D0003A10FC01E60FF71F9C0122503109E21769
:1023E000F30708F49DC0D901CD91DC911197C61770
:1023F000D70798F0C530D10530F3CE010497861782
:10240000970708F3C61BD70B2297C193D1936D93FF
:102410007C93CF010E944D11D6CF5B01AC1ABD0A4F
:102420004C018C0E9D1EA0919408B0919508512CE2
:10243000412CF12CE12C109731F58091920890916C
:1024400093088815990509F05CC04616570608F0F0
:1024500058C08091040190910501009741F48DB717
:102460009EB74091080150910901841B950BE81714
:10247000F90708F055C0F0939308E0939208F9012A
:1024800071836083A0CF8D919C91119712966C906F
:10249000129713967C901397A815B90559F56C01FE
:1024A00042E0C40ED11CCA14DB0420F1AC014A196D
:1024B0005B09DA011296159780F06282738251836C
:1024C0004083D9016D937C93E114F10471F0D7013D
:1024D0001396FC93EE93129776CF22968C0F9D1F46
:1024E000F90191838083F301EFCFF0939508E09396
:1024F000940869CF4816590608F42C017D01D301D0
:102500009ACFCB010E94B1107C01009749F0AE0137
:10251000B8010E949312C8010E944D11870153CF48
:1025200010E000E050CFFB01DC0102C001900D92F1
:1025300041505040D8F70895FB01DC0101900D9205
:102540000020E1F7089510E0C2E6D0E004C0FE01EB
:102550000E94AB102196C336D107C9F7F894FFCF7C
:10256000DE02DE0200009608800000004000140039
:1025700054002A003C006F008B009E00AD00AF00AD
:10258000AF00AF00AF00000000000000000000003E
:102590004F00BA00EC0007010C0107010000000029
:1025A00000000000000000000000000000000D001E
:1025B00015003E006B0085009700A800B700C3001F
:1025C000D000DD00000000000000000013003B0010
:1025D00075009400B300BE00E000000000000000A1
:1025E00000000000000000000000AC00AC00AC00E7
:1025F000AC00AC00AC0000000000000000000000D7
:1026000000000000000000000001000100010001C6
:1026100000000000000000000000000000000000BA
:1026200000000000000098009800980098009800B2
:10263000000000000000000000000000000000009A
:1026400000000000D000D000D000D000000000004A
:10265000000000000000000000000000000000007A
:102660000000C200C200C200C200C200C200C2001C
:10267000C200C200C2000000000000000000000014
:102680002501250125012501250125012501000040
:102690000000000000000000000000000000AE008C
:1026A000AE00AE00AE00AE00AE00AE00AE00AE00BA
:1026B000AE00AE000000000000000000ED00ED00E4
:1026C000ED00ED00ED00ED00ED00ED00000000007C
:1026D000000000000000000000000F002500330093
:1026E000490061008100B900C700D400E500000086
:1026F00000000000000000001B006F009600BB00FF
:10270000C700DC0000000000000000000000000026
:102710000000000000000D0015003E006B00850069
:102720009700A800B700C300D000DD000000000043
:102730000000000013003B0075009400B300BE00D1
:10274000E0000000000000000000000000000000A9
:1027500000005F007E009400A8006100BF00000040
:102760000000000000000000000000000000000069
:1027700070009400A800B3000000000000000000FA
:1027800000000000000000000000000000005B00EE
:1027900077008C009F00B2000000000000000000E5
:1027A0000000000000000000000000006700890039
:1027B000A100BC00000000000000000000000000BC
:1027C000000000000000000000006200830099008B
:1027D000AB00BC00CA00D700E400FD0051010000BE
:1027E000000000000000000074009900B400CA005E
:1027F000DF00E0006B0100000000000000000000AE
:102800000000000000005F007E009300A400B30001
:10281000B700CD00DA00E500F3004D010000000034
:10282000000000006B008F00A500BA00CB00DC00A8
:10283000EE005C010000000000000000000000004D
:102840000000000000004C01A300D90099010A011A
:10285000E800FC00000000002E0401044405D7033A
:10286000FA03E703D80300000000A805A30044050D
:1028700070030D0A0077686561740053756E6461BA
:1028800079004D6F6E646179005475657364617988
:10289000005765646E65736461790054687572737E
:1028A000646179004672696461790053617475727C
:1028B00064617900534C53310053544C53320053EC
:1028C000434C5333004C5330303400202020202020
:1028D00057454C434F4D45202020202000534D416B
:1028E00052542049525249474154494F4E00534592
:1028F0004C4543542043524F50004441593A200024
:1029000063726F70206973205748454154004352E9
:102910004F50203A2057484541540053454C4543B9
:102920005420534F494C0063726F702069732063C9
:102930006F74746F6E0043524F50203A20434F54CF
:10294000544F4E0063726F70206973207375676116
:10295000720043524F50203A205355474152005382
:102960004F494C2069732073616E6479206C6F61EC
:102970006D20736F696C0053414E44595F4C4F4159
:102980004D5F534F494C00534F494C2069732053BE
:10299000494C54206C6F616D20736F696C00534912
:1029A0004C545F4C4F414D5F534F494C00534F497E
:1029B0004C2069732073616E647920636C617920A7
:1029C0006C6F616D20736F696C0053414E44595FA9
:1029D000434C41595F534F494C00534F494C206978
:1029E0007320206C6F616D20736F696C0064617976
:1029F00020696E6465780077617465725F6C6576D6
:102A0000656C5F746800564F4C554D450050554DF0
:102A100050206973206F6E202E2E2E2E2E2E2E2EDD
:022A20002E0086
:00000001FF
